Component: ARM Compiler 5.06 update 7 (build 960) Tool: armlink [4d3601]

==============================================================================

Section Cross References

    startup_stm32f103xb.o(STACK) refers (Special) to heapauxi.o(.text) for __use_two_region_memory
    startup_stm32f103xb.o(HEAP) refers (Special) to heapauxi.o(.text) for __use_two_region_memory
    startup_stm32f103xb.o(RESET) refers (Special) to heapauxi.o(.text) for __use_two_region_memory
    startup_stm32f103xb.o(RESET) refers to startup_stm32f103xb.o(STACK) for __initial_sp
    startup_stm32f103xb.o(RESET) refers to startup_stm32f103xb.o(.text) for Reset_Handler
    startup_stm32f103xb.o(RESET) refers to stm32f1xx_it.o(i.NMI_Handler) for NMI_Handler
    startup_stm32f103xb.o(RESET) refers to stm32f1xx_it.o(i.HardFault_Handler) for HardFault_Handler
    startup_stm32f103xb.o(RESET) refers to stm32f1xx_it.o(i.MemManage_Handler) for MemManage_Handler
    startup_stm32f103xb.o(RESET) refers to stm32f1xx_it.o(i.BusFault_Handler) for BusFault_Handler
    startup_stm32f103xb.o(RESET) refers to stm32f1xx_it.o(i.UsageFault_Handler) for UsageFault_Handler
    startup_stm32f103xb.o(RESET) refers to stm32f1xx_it.o(i.SVC_Handler) for SVC_Handler
    startup_stm32f103xb.o(RESET) refers to stm32f1xx_it.o(i.DebugMon_Handler) for DebugMon_Handler
    startup_stm32f103xb.o(RESET) refers to stm32f1xx_it.o(i.PendSV_Handler) for PendSV_Handler
    startup_stm32f103xb.o(RESET) refers to stm32f1xx_it.o(i.SysTick_Handler) for SysTick_Handler
    startup_stm32f103xb.o(RESET) refers to stm32f1xx_it.o(i.EXTI2_IRQHandler) for EXTI2_IRQHandler
    startup_stm32f103xb.o(RESET) refers to stm32f1xx_it.o(i.EXTI9_5_IRQHandler) for EXTI9_5_IRQHandler
    startup_stm32f103xb.o(RESET) refers to stm32f1xx_it.o(i.USART3_IRQHandler) for USART3_IRQHandler
    startup_stm32f103xb.o(.text) refers (Special) to heapauxi.o(.text) for __use_two_region_memory
==============================================================================

Removing Unused input sections from the image.

    Removing oled.o(.rev16_text), (4 bytes).
    Removing oled.o(.revsh_text), (4 bytes).
    Removing oled.o(.rrx_text), (6 bytes).
    Removing oled.o(i.OLED_Display_Off), (24 bytes).
    Removing oled.o(i.OLED_Display_On), (24 bytes).
    Removing oled.o(i.OLED_On), (52 bytes).
    Removing oled.o(i.OLED_ShowCHinese), (76 bytes).
    Removing oled.o(i.OLED_ShowNum), (106 bytes).
    Removing oled.o(i.oled_pow), (16 bytes).
    Removing iic.o(.rev16_text), (4 bytes).
    Removing iic.o(.revsh_text), (4 bytes).
    Removing iic.o(.rrx_text), (6 bytes).
    Removing iic.o(i.IIC_CheckDevice), (32 bytes).
    Removing inv_mpu.o(.rev16_text), (4 bytes).
    Removing inv_mpu.o(.revsh_text), (4 bytes).
    Removing inv_mpu.o(.rrx_text), (6 bytes).
    Removing inv_mpu.o(i.mpu_get_accel_reg), (72 bytes).
    Removing inv_mpu.o(i.mpu_get_compass_fsr), (6 bytes).
==============================================================================

Image Symbol Table

    Local Symbols

    Symbol Name                              Value     Ov Type        Size  Object(Section)

    ../Core/Src/adc.c                        0x00000000   Number         0  adc.o ABSOLUTE
    ../Core/Src/gpio.c                       0x00000000   Number         0  gpio.o ABSOLUTE
    ../Core/Src/i2c.c                        0x00000000   Number         0  i2c.o ABSOLUTE
    ../Core/Src/main.c                       0x00000000   Number         0  main.o ABSOLUTE
    ../Core/Src/stm32f1xx_hal_msp.c          0x00000000   Number         0  stm32f1xx_hal_msp.o ABSOLUTE
    ../Core/Src/stm32f1xx_it.c               0x00000000   Number         0  stm32f1xx_it.o ABSOLUTE
    ../Core/Src/system_stm32f1xx.c           0x00000000   Number         0  system_stm32f1xx.o ABSOLUTE
    ../Core/Src/tim.c                        0x00000000   Number         0  tim.o ABSOLUTE
    ../Core/Src/usart.c                      0x00000000   Number         0  usart.o ABSOLUTE
    ../Drivers/STM32F1xx_HAL_Driver/Src/stm32f1xx_hal.c 0x00000000   Number         0  stm32f1xx_hal.o ABSOLUTE
    ../Drivers/STM32F1xx_HAL_Driver/Src/stm32f1xx_hal_adc.c 0x00000000   Number         0  stm32f1xx_hal_adc.o ABSOLUTE
    ../Drivers/STM32F1xx_HAL_Driver/Src/stm32f1xx_hal_adc_ex.c 0x00000000   Number         0  stm32f1xx_hal_adc_ex.o ABSOLUTE
    ../Drivers/STM32F1xx_HAL_Driver/Src/stm32f1xx_hal_cortex.c 0x00000000   Number         0  stm32f1xx_hal_cortex.o ABSOLUTE
    ../Drivers/STM32F1xx_HAL_Driver/Src/stm32f1xx_hal_dma.c 0x00000000   Number         0  stm32f1xx_hal_dma.o ABSOLUTE
    ../Drivers/STM32F1xx_HAL_Driver/Src/stm32f1xx_hal_exti.c 0x00000000   Number         0  stm32f1xx_hal_exti.o ABSOLUTE
    ../Drivers/STM32F1xx_HAL_Driver/Src/stm32f1xx_hal_flash.c 0x00000000   Number         0  stm32f1xx_hal_flash.o ABSOLUTE
    ../Drivers/STM32F1xx_HAL_Driver/Src/stm32f1xx_hal_flash_ex.c 0x00000000   Number         0  stm32f1xx_hal_flash_ex.o ABSOLUTE
    ../Drivers/STM32F1xx_HAL_Driver/Src/stm32f1xx_hal_gpio.c 0x00000000   Number         0  stm32f1xx_hal_gpio.o ABSOLUTE
    ../Drivers/STM32F1xx_HAL_Driver/Src/stm32f1xx_hal_gpio_ex.c 0x00000000   Number         0  stm32f1xx_hal_gpio_ex.o ABSOLUTE
    ../Drivers/STM32F1xx_HAL_Driver/Src/stm32f1xx_hal_i2c.c 0x00000000   Number         0  stm32f1xx_hal_i2c.o ABSOLUTE
    ../Drivers/STM32F1xx_HAL_Driver/Src/stm32f1xx_hal_pwr.c 0x00000000   Number         0  stm32f1xx_hal_pwr.o ABSOLUTE
    ../Drivers/STM32F1xx_HAL_Driver/Src/stm32f1xx_hal_rcc.c 0x00000000   Number         0  stm32f1xx_hal_rcc.o ABSOLUTE
    ../Drivers/STM32F1xx_HAL_Driver/Src/stm32f1xx_hal_rcc_ex.c 0x00000000   Number         0  stm32f1xx_hal_rcc_ex.o ABSOLUTE
    ../Drivers/STM32F1xx_HAL_Driver/Src/stm32f1xx_hal_tim.c 0x00000000   Number         0  stm32f1xx_hal_tim.o ABSOLUTE
    ../Drivers/STM32F1xx_HAL_Driver/Src/stm32f1xx_hal_tim_ex.c 0x00000000   Number         0  stm32f1xx_hal_tim_ex.o ABSOLUTE
    ../Drivers/STM32F1xx_HAL_Driver/Src/stm32f1xx_hal_uart.c 0x00000000   Number         0  stm32f1xx_hal_uart.o ABSOLUTE
    ../clib/angel/boardlib.s                 0x00000000   Number         0  boardinit1.o ABSOLUTE
    ../clib/angel/boardlib.s                 0x00000000   Number         0  boardinit2.o ABSOLUTE
    ../clib/angel/boardlib.s                 0x00000000   Number         0  boardinit3.o ABSOLUTE
    ../clib/angel/boardlib.s                 0x00000000   Number         0  boardshut.o ABSOLUTE
    ../clib/angel/handlers.s                 0x00000000   Number         0  __scatter_zi.o ABSOLUTE
    ../clib/angel/handlers.s                 0x00000000   Number         0  __scatter_copy.o ABSOLUTE
    ../clib/angel/kernel.s                   0x00000000   Number         0  __rtentry.o ABSOLUTE
    ../clib/angel/kernel.s                   0x00000000   Number         0  __rtentry2.o ABSOLUTE
    ../clib/angel/kernel.s                   0x00000000   Number         0  __rtentry4.o ABSOLUTE
    ../clib/angel/kernel.s                   0x00000000   Number         0  rtexit.o ABSOLUTE
    ../clib/angel/kernel.s                   0x00000000   Number         0  rtexit2.o ABSOLUTE
    ../clib/angel/rt.s                       0x00000000   Number         0  rt_errno_addr_intlibspace.o ABSOLUTE
    ../clib/angel/rt.s                       0x00000000   Number         0  aeabi_ldiv0.o ABSOLUTE
    ../clib/angel/rt.s                       0x00000000   Number         0  aeabi_ldiv0_sigfpe.o ABSOLUTE
    ../clib/angel/rt.s                       0x00000000   Number         0  rt_locale.o ABSOLUTE
    ../clib/angel/rt.s                       0x00000000   Number         0  rt_div0.o ABSOLUTE
    ../clib/angel/rt.s                       0x00000000   Number         0  rt_locale_intlibspace.o ABSOLUTE
    ../clib/angel/rt.s                       0x00000000   Number         0  rt_raise.o ABSOLUTE
    ../clib/angel/rt.s                       0x00000000   Number         0  rt_errno_addr.o ABSOLUTE
    ../clib/angel/scatter.s                  0x00000000   Number         0  __scatter.o ABSOLUTE
    ../clib/angel/startup.s                  0x00000000   Number         0  __main.o ABSOLUTE
    ../clib/angel/sys.s                      0x00000000   Number         0  sys_stackheap_outer.o ABSOLUTE
    ../clib/angel/sys.s                      0x00000000   Number         0  use_no_semi.o ABSOLUTE
    ../clib/angel/sys.s                      0x00000000   Number         0  indicate_semi.o ABSOLUTE
    ../clib/angel/sys.s                      0x00000000   Number         0  libspace.o ABSOLUTE
    ../clib/angel/sysapp.c                   0x00000000   Number         0  sys_wrch.o ABSOLUTE
    ../clib/angel/sysapp.c                   0x00000000   Number         0  sys_command.o ABSOLUTE
    ../clib/angel/sysapp.c                   0x00000000   Number         0  sys_exit.o ABSOLUTE
    ../clib/armsys.c                         0x00000000   Number         0  _get_argv_nomalloc.o ABSOLUTE
    ../clib/armsys.c                         0x00000000   Number         0  no_argv.o ABSOLUTE
    ../clib/armsys.c                         0x00000000   Number         0  argv_veneer.o ABSOLUTE
    ../clib/armsys.c                         0x00000000   Number         0  argv_veneer.o ABSOLUTE
    ../clib/bigflt.c                         0x00000000   Number         0  bigflt0.o ABSOLUTE
    ../clib/btod.s                           0x00000000   Number         0  btod.o ABSOLUTE
    ../clib/fenv.c                           0x00000000   Number         0  _rserrno.o ABSOLUTE
    ../clib/heapalloc.c                      0x00000000   Number         0  hrguard.o ABSOLUTE
    ../clib/heapaux.c                        0x00000000   Number         0  heapauxi.o ABSOLUTE
    ../clib/libinit.s                        0x00000000   Number         0  libinit.o ABSOLUTE
    ../clib/libinit.s                        0x00000000   Number         0  libshutdown2.o ABSOLUTE
    ../clib/libinit.s                        0x00000000   Number         0  libshutdown.o ABSOLUTE
    ../clib/libinit.s                        0x00000000   Number         0  libinit2.o ABSOLUTE
    ../clib/locale.s                         0x00000000   Number         0  lc_numeric_c.o ABSOLUTE
    ../clib/longlong.s                       0x00000000   Number         0  llushr.o ABSOLUTE
    ../clib/longlong.s                       0x00000000   Number         0  lludiv10.o ABSOLUTE
    ../clib/longlong.s                       0x00000000   Number         0  llsdiv.o ABSOLUTE
    ../clib/longlong.s                       0x00000000   Number         0  lludivv7m.o ABSOLUTE
    ../clib/memcpset.s                       0x00000000   Number         0  rt_memclr.o ABSOLUTE
    ../clib/memcpset.s                       0x00000000   Number         0  aeabi_memset.o ABSOLUTE
    ../clib/memcpset.s                       0x00000000   Number         0  rt_memclr_w.o ABSOLUTE
    ../clib/memcpset.s                       0x00000000   Number         0  strcmpv7m.o ABSOLUTE
    ../clib/misc.s                           0x00000000   Number         0  printf_stubs.o ABSOLUTE
    ../clib/printf.c                         0x00000000   Number         0  __printf.o ABSOLUTE
    ../clib/printf.c                         0x00000000   Number         0  noretval__2sprintf.o ABSOLUTE
    ../clib/printf.c                         0x00000000   Number         0  __2sprintf.o ABSOLUTE
    ../clib/printf.c                         0x00000000   Number         0  __printf_ss_wp.o ABSOLUTE
    ../clib/printf.c                         0x00000000   Number         0  _printf_fp_infnan.o ABSOLUTE
    ../clib/printf.c                         0x00000000   Number         0  __printf_nopercent.o ABSOLUTE
    ../clib/printf.c                         0x00000000   Number         0  _sputc.o ABSOLUTE
    ../clib/printf.c                         0x00000000   Number         0  _printf_char_common.o ABSOLUTE
    ../clib/printf.c                         0x00000000   Number         0  _printf_fp_dec.o ABSOLUTE
    ../clib/printf.c                         0x00000000   Number         0  _printf_intcommon.o ABSOLUTE
    ../clib/printf.c                         0x00000000   Number         0  __printf_flags_ss_wp.o ABSOLUTE
    ../clib/printf.c                         0x00000000   Number         0  __printf_flags_wp.o ABSOLUTE
    ../clib/printf.c                         0x00000000   Number         0  __printf_wp.o ABSOLUTE
    ../clib/printf.c                         0x00000000   Number         0  __printf_flags_ss.o ABSOLUTE
    ../clib/printf.c                         0x00000000   Number         0  __printf_ss.o ABSOLUTE
    ../clib/printf.c                         0x00000000   Number         0  __printf_flags.o ABSOLUTE
    ../clib/printf.c                         0x00000000   Number         0  _printf_dec.o ABSOLUTE
    ../clib/printf.c                         0x00000000   Number         0  _printf_pad.o ABSOLUTE
    ../clib/printf_percent.s                 0x00000000   Number         0  _printf_f.o ABSOLUTE
    ../clib/printf_percent.s                 0x00000000   Number         0  _printf_percent.o ABSOLUTE
    ../clib/printf_percent.s                 0x00000000   Number         0  _printf_d.o ABSOLUTE
    ../clib/printf_percent.s                 0x00000000   Number         0  _printf_percent_end.o ABSOLUTE
    ../clib/signal.c                         0x00000000   Number         0  defsig_fpe_inner.o ABSOLUTE
    ../clib/signal.c                         0x00000000   Number         0  defsig_rtmem_inner.o ABSOLUTE
    ../clib/signal.c                         0x00000000   Number         0  defsig_pvfn_inner.o ABSOLUTE
    ../clib/signal.c                         0x00000000   Number         0  defsig_rtred_inner.o ABSOLUTE
    ../clib/signal.c                         0x00000000   Number         0  defsig_rtmem_outer.o ABSOLUTE
    ../clib/signal.c                         0x00000000   Number         0  defsig_rtmem_formal.o ABSOLUTE
    ../clib/signal.c                         0x00000000   Number         0  __raise.o ABSOLUTE
    ../clib/signal.c                         0x00000000   Number         0  defsig_cppl_inner.o ABSOLUTE
    ../clib/signal.c                         0x00000000   Number         0  defsig_segv_inner.o ABSOLUTE
    ../clib/signal.c                         0x00000000   Number         0  defsig_abrt_inner.o ABSOLUTE
    ../clib/signal.c                         0x00000000   Number         0  defsig_other.o ABSOLUTE
    ../clib/signal.c                         0x00000000   Number         0  defsig_fpe_formal.o ABSOLUTE
    ../clib/signal.c                         0x00000000   Number         0  defsig_exit.o ABSOLUTE
    ../clib/signal.c                         0x00000000   Number         0  defsig_fpe_outer.o ABSOLUTE
    ../clib/signal.c                         0x00000000   Number         0  defsig_general.o ABSOLUTE
    ../clib/signal.c                         0x00000000   Number         0  defsig_stak_inner.o ABSOLUTE
    ../clib/signal.s                         0x00000000   Number         0  defsig.o ABSOLUTE
    ../clib/stdlib.c                         0x00000000   Number         0  exit.o ABSOLUTE
    ../clib/string.c                         0x00000000   Number         0  memcmp.o ABSOLUTE
    ../fplib/d2f.s                           0x00000000   Number         0  d2f.o ABSOLUTE
    ../fplib/daddsub.s                       0x00000000   Number         0  daddsub_clz.o ABSOLUTE
    ../fplib/dcheck1.s                       0x00000000   Number         0  dcheck1.o ABSOLUTE
    ../fplib/dcmpi.s                         0x00000000   Number         0  dcmpi.o ABSOLUTE
    ../fplib/ddiv.s                          0x00000000   Number         0  ddiv.o ABSOLUTE
    ../fplib/deqf.s                          0x00000000   Number         0  deqf.o ABSOLUTE
    ../fplib/dflt.s                          0x00000000   Number         0  dflt_clz.o ABSOLUTE
    ../fplib/dleqf.s                         0x00000000   Number         0  dleqf.o ABSOLUTE
    ../fplib/dmul.s                          0x00000000   Number         0  dmul.o ABSOLUTE
    ../fplib/dnaninf.s                       0x00000000   Number         0  dnaninf.o ABSOLUTE
    ../fplib/dretinf.s                       0x00000000   Number         0  dretinf.o ABSOLUTE
    ../fplib/dsqrt.s                         0x00000000   Number         0  dsqrt_noumaal.o ABSOLUTE
    ../fplib/f2d.s                           0x00000000   Number         0  f2d.o ABSOLUTE
    ../fplib/faddsub.s                       0x00000000   Number         0  faddsub_clz.o ABSOLUTE
    ../fplib/fcheck1.s                       0x00000000   Number         0  fcheck1.o ABSOLUTE
    ../fplib/fdiv.s                          0x00000000   Number         0  fdiv.o ABSOLUTE
    ../fplib/ffix.s                          0x00000000   Number         0  ffix.o ABSOLUTE
    ../fplib/ffixu.s                         0x00000000   Number         0  ffixu.o ABSOLUTE
    ../fplib/fflt.s                          0x00000000   Number         0  fflt_clz.o ABSOLUTE
    ../fplib/fmul.s                          0x00000000   Number         0  fmul.o ABSOLUTE
    ../fplib/fnaninf.s                       0x00000000   Number         0  fnaninf.o ABSOLUTE
    ../fplib/fpinit.s                        0x00000000   Number         0  fpinit.o ABSOLUTE
    ../fplib/fretinf.s                       0x00000000   Number         0  fretinf.o ABSOLUTE
    ../fplib/istatus.s                       0x00000000   Number         0  istatus.o ABSOLUTE
    ../fplib/printf1.s                       0x00000000   Number         0  printf1.o ABSOLUTE
    ../fplib/retnan.s                        0x00000000   Number         0  retnan.o ABSOLUTE
    ../fplib/scalbn.s                        0x00000000   Number         0  scalbn.o ABSOLUTE
    ../fplib/scalbnf.s                       0x00000000   Number         0  scalbnf.o ABSOLUTE
    ../fplib/trapv.s                         0x00000000   Number         0  trapv.o ABSOLUTE
    ../fplib/usenofp.s                       0x00000000   Number         0  usenofp.o ABSOLUTE
    ../mathlib/asin.c                        0x00000000   Number         0  asin.o ABSOLUTE
    ../mathlib/asin.c                        0x00000000   Number         0  asin_x.o ABSOLUTE
    ../mathlib/atan.c                        0x00000000   Number         0  atan_x.o ABSOLUTE
    ../mathlib/atan.c                        0x00000000   Number         0  atan.o ABSOLUTE
    ../mathlib/atan2.c                       0x00000000   Number         0  atan2.o ABSOLUTE
    ../mathlib/atan2.c                       0x00000000   Number         0  atan2_x.o ABSOLUTE
    ../mathlib/dunder.c                      0x00000000   Number         0  dunder.o ABSOLUTE
    ../mathlib/fpclassify.c                  0x00000000   Number         0  fpclassify.o ABSOLUTE
    ../mathlib/poly.c                        0x00000000   Number         0  poly.o ABSOLUTE
    ../mathlib/qnan.c                        0x00000000   Number         0  qnan.o ABSOLUTE
    ../mathlib/sqrt.c                        0x00000000   Number         0  sqrt_x.o ABSOLUTE
    ../mathlib/sqrt.c                        0x00000000   Number         0  sqrt.o ABSOLUTE
    ..\Core\Src\adc.c                        0x00000000   Number         0  adc.o ABSOLUTE
    ..\Core\Src\encoder.c                    0x00000000   Number         0  encoder.o ABSOLUTE
    ..\Core\Src\gpio.c                       0x00000000   Number         0  gpio.o ABSOLUTE
    ..\Core\Src\i2c.c                        0x00000000   Number         0  i2c.o ABSOLUTE
    ..\Core\Src\main.c                       0x00000000   Number         0  main.o ABSOLUTE
    ..\Core\Src\motor.c                      0x00000000   Number         0  motor.o ABSOLUTE
    ..\Core\Src\oled.c                       0x00000000   Number         0  oled.o ABSOLUTE
    ..\Core\Src\pid.c                        0x00000000   Number         0  pid.o ABSOLUTE
    ..\Core\Src\sr04.c                       0x00000000   Number         0  sr04.o ABSOLUTE
    ..\Core\Src\stm32f1xx_hal_msp.c          0x00000000   Number         0  stm32f1xx_hal_msp.o ABSOLUTE
    ..\Core\Src\stm32f1xx_it.c               0x00000000   Number         0  stm32f1xx_it.o ABSOLUTE
    ..\Core\Src\system_stm32f1xx.c           0x00000000   Number         0  system_stm32f1xx.o ABSOLUTE
    ..\Core\Src\tim.c                        0x00000000   Number         0  tim.o ABSOLUTE
    ..\Core\Src\usart.c                      0x00000000   Number         0  usart.o ABSOLUTE
    ..\Drivers\STM32F1xx_HAL_Driver\Src\stm32f1xx_hal.c 0x00000000   Number         0  stm32f1xx_hal.o ABSOLUTE
    ..\Drivers\STM32F1xx_HAL_Driver\Src\stm32f1xx_hal_adc.c 0x00000000   Number         0  stm32f1xx_hal_adc.o ABSOLUTE
    ..\Drivers\STM32F1xx_HAL_Driver\Src\stm32f1xx_hal_adc_ex.c 0x00000000   Number         0  stm32f1xx_hal_adc_ex.o ABSOLUTE
    ..\Drivers\STM32F1xx_HAL_Driver\Src\stm32f1xx_hal_cortex.c 0x00000000   Number         0  stm32f1xx_hal_cortex.o ABSOLUTE
    ..\Drivers\STM32F1xx_HAL_Driver\Src\stm32f1xx_hal_dma.c 0x00000000   Number         0  stm32f1xx_hal_dma.o ABSOLUTE
    ..\Drivers\STM32F1xx_HAL_Driver\Src\stm32f1xx_hal_exti.c 0x00000000   Number         0  stm32f1xx_hal_exti.o ABSOLUTE
    ..\Drivers\STM32F1xx_HAL_Driver\Src\stm32f1xx_hal_flash.c 0x00000000   Number         0  stm32f1xx_hal_flash.o ABSOLUTE
    ..\Drivers\STM32F1xx_HAL_Driver\Src\stm32f1xx_hal_flash_ex.c 0x00000000   Number         0  stm32f1xx_hal_flash_ex.o ABSOLUTE
    ..\Drivers\STM32F1xx_HAL_Driver\Src\stm32f1xx_hal_gpio.c 0x00000000   Number         0  stm32f1xx_hal_gpio.o ABSOLUTE
    ..\Drivers\STM32F1xx_HAL_Driver\Src\stm32f1xx_hal_gpio_ex.c 0x00000000   Number         0  stm32f1xx_hal_gpio_ex.o ABSOLUTE
    ..\Drivers\STM32F1xx_HAL_Driver\Src\stm32f1xx_hal_i2c.c 0x00000000   Number         0  stm32f1xx_hal_i2c.o ABSOLUTE
    ..\Drivers\STM32F1xx_HAL_Driver\Src\stm32f1xx_hal_pwr.c 0x00000000   Number         0  stm32f1xx_hal_pwr.o ABSOLUTE
    ..\Drivers\STM32F1xx_HAL_Driver\Src\stm32f1xx_hal_rcc.c 0x00000000   Number         0  stm32f1xx_hal_rcc.o ABSOLUTE
    ..\Drivers\STM32F1xx_HAL_Driver\Src\stm32f1xx_hal_rcc_ex.c 0x00000000   Number         0  stm32f1xx_hal_rcc_ex.o ABSOLUTE
    ..\Drivers\STM32F1xx_HAL_Driver\Src\stm32f1xx_hal_tim.c 0x00000000   Number         0  stm32f1xx_hal_tim.o ABSOLUTE
    ..\Drivers\STM32F1xx_HAL_Driver\Src\stm32f1xx_hal_tim_ex.c 0x00000000   Number         0  stm32f1xx_hal_tim_ex.o ABSOLUTE
    ..\Drivers\STM32F1xx_HAL_Driver\Src\stm32f1xx_hal_uart.c 0x00000000   Number         0  stm32f1xx_hal_uart.o ABSOLUTE
    ..\MPU\IIC.c                             0x00000000   Number         0  iic.o ABSOLUTE
    ..\MPU\inv_mpu.c                         0x00000000   Number         0  inv_mpu.o ABSOLUTE
    ..\MPU\inv_mpu_dmp_motion_driver.c       0x00000000   Number         0  inv_mpu_dmp_motion_driver.o ABSOLUTE
    ..\MPU\mpu6050.c                         0x00000000   Number         0  mpu6050.o ABSOLUTE
    ..\\Core\\Src\\encoder.c                 0x00000000   Number         0  encoder.o ABSOLUTE
    ..\\Core\\Src\\motor.c                   0x00000000   Number         0  motor.o ABSOLUTE
    ..\\Core\\Src\\oled.c                    0x00000000   Number         0  oled.o ABSOLUTE
    ..\\Core\\Src\\pid.c                     0x00000000   Number         0  pid.o ABSOLUTE
    ..\\Core\\Src\\sr04.c                    0x00000000   Number         0  sr04.o ABSOLUTE
    ..\\MPU\\IIC.c                           0x00000000   Number         0  iic.o ABSOLUTE
    ..\\MPU\\inv_mpu.c                       0x00000000   Number         0  inv_mpu.o ABSOLUTE
    ..\\MPU\\inv_mpu_dmp_motion_driver.c     0x00000000   Number         0  inv_mpu_dmp_motion_driver.o ABSOLUTE
    ..\\MPU\\mpu6050.c                       0x00000000   Number         0  mpu6050.o ABSOLUTE
    dc.s                                     0x00000000   Number         0  dc.o ABSOLUTE
    startup_stm32f103xb.s                    0x00000000   Number         0  startup_stm32f103xb.o ABSOLUTE
    RESET                                    0x08000000   Section      236  startup_stm32f103xb.o(RESET)
    !!!main                                  0x080000ec   Section        8  __main.o(!!!main)
    !!!scatter                               0x080000f4   Section       52  __scatter.o(!!!scatter)
    !!handler_copy                           0x08000128   Section       26  __scatter_copy.o(!!handler_copy)
    !!handler_zi                             0x08000144   Section       28  __scatter_zi.o(!!handler_zi)
    .ARM.Collect$$_printf_percent$$00000000  0x08000160   Section        0  _printf_percent.o(.ARM.Collect$$_printf_percent$$00000000)
    .ARM.Collect$$_printf_percent$$00000003  0x08000160   Section        6  _printf_f.o(.ARM.Collect$$_printf_percent$$00000003)
    .ARM.Collect$$_printf_percent$$00000009  0x08000166   Section        6  _printf_d.o(.ARM.Collect$$_printf_percent$$00000009)
    .ARM.Collect$$_printf_percent$$00000017  0x0800016c   Section        4  _printf_percent_end.o(.ARM.Collect$$_printf_percent$$00000017)
    .ARM.Collect$$libinit$$00000000          0x08000170   Section        2  libinit.o(.ARM.Collect$$libinit$$00000000)
    .ARM.Collect$$libinit$$00000002          0x08000172   Section        0  libinit2.o(.ARM.Collect$$libinit$$00000002)
    .ARM.Collect$$libinit$$00000004          0x08000172   Section        0  libinit2.o(.ARM.Collect$$libinit$$00000004)
    .ARM.Collect$$libinit$$0000000A          0x08000172   Section        0  libinit2.o(.ARM.Collect$$libinit$$0000000A)
    .ARM.Collect$$libinit$$0000000C          0x08000172   Section        0  libinit2.o(.ARM.Collect$$libinit$$0000000C)
    .ARM.Collect$$libinit$$0000000E          0x08000172   Section        0  libinit2.o(.ARM.Collect$$libinit$$0000000E)
    .ARM.Collect$$libinit$$0000000F          0x08000172   Section        6  libinit2.o(.ARM.Collect$$libinit$$0000000F)
    .ARM.Collect$$libinit$$00000011          0x08000178   Section        0  libinit2.o(.ARM.Collect$$libinit$$00000011)
    .ARM.Collect$$libinit$$00000013          0x08000178   Section        0  libinit2.o(.ARM.Collect$$libinit$$00000013)
    .ARM.Collect$$libinit$$00000015          0x08000178   Section        0  libinit2.o(.ARM.Collect$$libinit$$00000015)
    .ARM.Collect$$libinit$$00000016          0x08000178   Section       10  libinit2.o(.ARM.Collect$$libinit$$00000016)
    .ARM.Collect$$libinit$$00000017          0x08000182   Section        0  libinit2.o(.ARM.Collect$$libinit$$00000017)
    .ARM.Collect$$libinit$$00000019          0x08000182   Section        0  libinit2.o(.ARM.Collect$$libinit$$00000019)
    .ARM.Collect$$libinit$$0000001B          0x08000182   Section        0  libinit2.o(.ARM.Collect$$libinit$$0000001B)
    .ARM.Collect$$libinit$$0000001D          0x08000182   Section        0  libinit2.o(.ARM.Collect$$libinit$$0000001D)
    .ARM.Collect$$libinit$$0000001F          0x08000182   Section        0  libinit2.o(.ARM.Collect$$libinit$$0000001F)
    .ARM.Collect$$libinit$$00000021          0x08000182   Section        0  libinit2.o(.ARM.Collect$$libinit$$00000021)
    .ARM.Collect$$libinit$$00000023          0x08000182   Section        0  libinit2.o(.ARM.Collect$$libinit$$00000023)
    .ARM.Collect$$libinit$$00000025          0x08000182   Section        0  libinit2.o(.ARM.Collect$$libinit$$00000025)
    .ARM.Collect$$libinit$$0000002C          0x08000182   Section        0  libinit2.o(.ARM.Collect$$libinit$$0000002C)
    .ARM.Collect$$libinit$$0000002E          0x08000182   Section        0  libinit2.o(.ARM.Collect$$libinit$$0000002E)
    .ARM.Collect$$libinit$$00000030          0x08000182   Section        0  libinit2.o(.ARM.Collect$$libinit$$00000030)
    .ARM.Collect$$libinit$$00000032          0x08000182   Section        0  libinit2.o(.ARM.Collect$$libinit$$00000032)
    .ARM.Collect$$libinit$$00000033          0x08000182   Section        2  libinit2.o(.ARM.Collect$$libinit$$00000033)
    .ARM.Collect$$libshutdown$$00000000      0x08000184   Section        2  libshutdown.o(.ARM.Collect$$libshutdown$$00000000)
    .ARM.Collect$$libshutdown$$00000002      0x08000186   Section        0  libshutdown2.o(.ARM.Collect$$libshutdown$$00000002)
    .ARM.Collect$$libshutdown$$00000004      0x08000186   Section        0  libshutdown2.o(.ARM.Collect$$libshutdown$$00000004)
    .ARM.Collect$$libshutdown$$00000006      0x08000186   Section        0  libshutdown2.o(.ARM.Collect$$libshutdown$$00000006)
    .ARM.Collect$$libshutdown$$00000009      0x08000186   Section        0  libshutdown2.o(.ARM.Collect$$libshutdown$$00000009)
    .ARM.Collect$$libshutdown$$0000000C      0x08000186   Section        0  libshutdown2.o(.ARM.Collect$$libshutdown$$0000000C)
    .ARM.Collect$$libshutdown$$0000000E      0x08000186   Section        0  libshutdown2.o(.ARM.Collect$$libshutdown$$0000000E)
    .ARM.Collect$$libshutdown$$00000011      0x08000186   Section        0  libshutdown2.o(.ARM.Collect$$libshutdown$$00000011)
    .ARM.Collect$$libshutdown$$00000012      0x08000186   Section        2  libshutdown2.o(.ARM.Collect$$libshutdown$$00000012)
    .ARM.Collect$$rtentry$$00000000          0x08000188   Section        0  __rtentry.o(.ARM.Collect$$rtentry$$00000000)
    .ARM.Collect$$rtentry$$00000002          0x08000188   Section        0  __rtentry2.o(.ARM.Collect$$rtentry$$00000002)
    .ARM.Collect$$rtentry$$00000004          0x08000188   Section        6  __rtentry4.o(.ARM.Collect$$rtentry$$00000004)
    .ARM.Collect$$rtentry$$00000009          0x0800018e   Section        0  __rtentry2.o(.ARM.Collect$$rtentry$$00000009)
    .ARM.Collect$$rtentry$$0000000A          0x0800018e   Section        4  __rtentry2.o(.ARM.Collect$$rtentry$$0000000A)
    .ARM.Collect$$rtentry$$0000000C          0x08000192   Section        0  __rtentry2.o(.ARM.Collect$$rtentry$$0000000C)
    .ARM.Collect$$rtentry$$0000000D          0x08000192   Section        8  __rtentry2.o(.ARM.Collect$$rtentry$$0000000D)
    .ARM.Collect$$rtexit$$00000000           0x0800019a   Section        2  rtexit.o(.ARM.Collect$$rtexit$$00000000)
    .ARM.Collect$$rtexit$$00000002           0x0800019c   Section        0  rtexit2.o(.ARM.Collect$$rtexit$$00000002)
    .ARM.Collect$$rtexit$$00000003           0x0800019c   Section        4  rtexit2.o(.ARM.Collect$$rtexit$$00000003)
    .ARM.Collect$$rtexit$$00000004           0x080001a0   Section        6  rtexit2.o(.ARM.Collect$$rtexit$$00000004)
    .text                                    0x080001a8   Section       64  startup_stm32f103xb.o(.text)
    .text                                    0x080001e8   Section       72  llsdiv.o(.text)
    .text                                    0x08000230   Section        0  noretval__2sprintf.o(.text)
    .text                                    0x08000258   Section        0  _printf_pad.o(.text)
    .text                                    0x080002a8   Section        0  _printf_dec.o(.text)
    .text                                    0x08000320   Section        0  __printf_flags_wp.o(.text)
    .text                                    0x08000458   Section        0  memcmp.o(.text)
    .text                                    0x080004b0   Section       16  aeabi_memset.o(.text)
    .text                                    0x080004c0   Section       78  rt_memclr_w.o(.text)
    .text                                    0x0800050e   Section        0  heapauxi.o(.text)
    .text                                    0x08000514   Section      238  lludivv7m.o(.text)
    .text                                    0x08000602   Section        0  _rserrno.o(.text)
    .text                                    0x08000618   Section        0  _printf_intcommon.o(.text)
    .text                                    0x080006ca   Section        0  _printf_fp_dec.o(.text)
    _fp_digits                               0x080006cd   Thumb Code   432  _printf_fp_dec.o(.text)
    .text                                    0x08000ae8   Section        0  _printf_char_common.o(.text)
    _printf_input_char                       0x08000ae9   Thumb Code    10  _printf_char_common.o(.text)
    .text                                    0x08000b18   Section        0  _sputc.o(.text)
    .text                                    0x08000b22   Section       68  rt_memclr.o(.text)
    .text                                    0x08000b68   Section        8  rt_locale_intlibspace.o(.text)
    .text                                    0x08000b70   Section        8  rt_errno_addr_intlibspace.o(.text)
    .text                                    0x08000b78   Section      138  lludiv10.o(.text)
    .text                                    0x08000c04   Section        0  _printf_fp_infnan.o(.text)
    .text                                    0x08000c84   Section        0  bigflt0.o(.text)
    .text                                    0x08000d68   Section        8  libspace.o(.text)
    .text                                    0x08000d70   Section       74  sys_stackheap_outer.o(.text)
    .text                                    0x08000dba   Section        0  exit.o(.text)
    .text                                    0x08000dcc   Section      128  strcmpv7m.o(.text)
    .text                                    0x08000e4c   Section        0  sys_exit.o(.text)
    .text                                    0x08000e58   Section        2  use_no_semi.o(.text)
    .text                                    0x08000e5a   Section        0  indicate_semi.o(.text)
    CL$$btod_d2e                             0x08000e5a   Section       62  btod.o(CL$$btod_d2e)
    CL$$btod_d2e_denorm_low                  0x08000e98   Section       70  btod.o(CL$$btod_d2e_denorm_low)
    CL$$btod_d2e_norm_op1                    0x08000ede   Section       96  btod.o(CL$$btod_d2e_norm_op1)
    CL$$btod_div_common                      0x08000f3e   Section      824  btod.o(CL$$btod_div_common)
    CL$$btod_e2e                             0x08001276   Section      220  btod.o(CL$$btod_e2e)
    CL$$btod_ediv                            0x08001352   Section       42  btod.o(CL$$btod_ediv)
    CL$$btod_emul                            0x0800137c   Section       42  btod.o(CL$$btod_emul)
    CL$$btod_mult_common                     0x080013a6   Section      580  btod.o(CL$$btod_mult_common)
    i.ADC_ConversionStop_Disable             0x080015ec   Section        0  stm32f1xx_hal_adc.o(i.ADC_ConversionStop_Disable)
    i.ADC_Enable                             0x08001644   Section        0  stm32f1xx_hal_adc.o(i.ADC_Enable)
    i.BusFault_Handler                       0x080016c0   Section        0  stm32f1xx_it.o(i.BusFault_Handler)
    i.Control                                0x080016c4   Section        0  pid.o(i.Control)
    i.DebugMon_Handler                       0x0800182c   Section        0  stm32f1xx_it.o(i.DebugMon_Handler)
    i.EXTI2_IRQHandler                       0x0800182e   Section        0  stm32f1xx_it.o(i.EXTI2_IRQHandler)
    i.EXTI9_5_IRQHandler                     0x08001834   Section        0  stm32f1xx_it.o(i.EXTI9_5_IRQHandler)
    i.Error_Handler                          0x0800183a   Section        0  main.o(i.Error_Handler)
    i.GET_Distance                           0x08001840   Section        0  sr04.o(i.GET_Distance)
    i.HAL_ADC_ConfigChannel                  0x08001868   Section        0  stm32f1xx_hal_adc.o(i.HAL_ADC_ConfigChannel)
    i.HAL_ADC_GetValue                       0x08001964   Section        0  stm32f1xx_hal_adc.o(i.HAL_ADC_GetValue)
    i.HAL_ADC_Init                           0x0800196c   Section        0  stm32f1xx_hal_adc.o(i.HAL_ADC_Init)
    i.HAL_ADC_MspInit                        0x08001a88   Section        0  adc.o(i.HAL_ADC_MspInit)
    i.HAL_ADC_Start                          0x08001ae0   Section        0  stm32f1xx_hal_adc.o(i.HAL_ADC_Start)
    i.HAL_DMA_Abort                          0x08001ba0   Section        0  stm32f1xx_hal_dma.o(i.HAL_DMA_Abort)
    i.HAL_DMA_Abort_IT                       0x08001be8   Section        0  stm32f1xx_hal_dma.o(i.HAL_DMA_Abort_IT)
    i.HAL_Delay                              0x08001c80   Section        0  stm32f1xx_hal.o(i.HAL_Delay)
    i.HAL_GPIO_EXTI_Callback                 0x08001ca4   Section        0  sr04.o(i.HAL_GPIO_EXTI_Callback)
    i.HAL_GPIO_EXTI_IRQHandler               0x08001d0c   Section        0  stm32f1xx_hal_gpio.o(i.HAL_GPIO_EXTI_IRQHandler)
    i.HAL_GPIO_Init                          0x08001d24   Section        0  stm32f1xx_hal_gpio.o(i.HAL_GPIO_Init)
    i.HAL_GPIO_ReadPin                       0x08001f04   Section        0  stm32f1xx_hal_gpio.o(i.HAL_GPIO_ReadPin)
    i.HAL_GPIO_WritePin                      0x08001f0e   Section        0  stm32f1xx_hal_gpio.o(i.HAL_GPIO_WritePin)
    i.HAL_GetTick                            0x08001f18   Section        0  stm32f1xx_hal.o(i.HAL_GetTick)
    i.HAL_I2C_Init                           0x08001f24   Section        0  stm32f1xx_hal_i2c.o(i.HAL_I2C_Init)
    i.HAL_I2C_Mem_Write                      0x080020ac   Section        0  stm32f1xx_hal_i2c.o(i.HAL_I2C_Mem_Write)
    i.HAL_I2C_MspInit                        0x080021dc   Section        0  i2c.o(i.HAL_I2C_MspInit)
    i.HAL_IncTick                            0x0800224c   Section        0  stm32f1xx_hal.o(i.HAL_IncTick)
    i.HAL_Init                               0x0800225c   Section        0  stm32f1xx_hal.o(i.HAL_Init)
    i.HAL_InitTick                           0x08002280   Section        0  stm32f1xx_hal.o(i.HAL_InitTick)
    i.HAL_MspInit                            0x080022c0   Section        0  stm32f1xx_hal_msp.o(i.HAL_MspInit)
    i.HAL_NVIC_EnableIRQ                     0x080022fc   Section        0  stm32f1xx_hal_cortex.o(i.HAL_NVIC_EnableIRQ)
    i.HAL_NVIC_SetPriority                   0x08002318   Section        0  stm32f1xx_hal_cortex.o(i.HAL_NVIC_SetPriority)
    i.HAL_NVIC_SetPriorityGrouping           0x08002358   Section        0  stm32f1xx_hal_cortex.o(i.HAL_NVIC_SetPriorityGrouping)
    i.HAL_RCCEx_PeriphCLKConfig              0x0800237c   Section        0  stm32f1xx_hal_rcc_ex.o(i.HAL_RCCEx_PeriphCLKConfig)
    i.HAL_RCC_ClockConfig                    0x08002468   Section        0  stm32f1xx_hal_rcc.o(i.HAL_RCC_ClockConfig)
    i.HAL_RCC_GetPCLK1Freq                   0x08002594   Section        0  stm32f1xx_hal_rcc.o(i.HAL_RCC_GetPCLK1Freq)
    i.HAL_RCC_GetPCLK2Freq                   0x080025b4   Section        0  stm32f1xx_hal_rcc.o(i.HAL_RCC_GetPCLK2Freq)
    i.HAL_RCC_GetSysClockFreq                0x080025d4   Section        0  stm32f1xx_hal_rcc.o(i.HAL_RCC_GetSysClockFreq)
    i.HAL_RCC_OscConfig                      0x08002620   Section        0  stm32f1xx_hal_rcc.o(i.HAL_RCC_OscConfig)
    i.HAL_SYSTICK_Config                     0x08002940   Section        0  stm32f1xx_hal_cortex.o(i.HAL_SYSTICK_Config)
    i.HAL_TIMEx_ConfigBreakDeadTime          0x08002968   Section        0  stm32f1xx_hal_tim_ex.o(i.HAL_TIMEx_ConfigBreakDeadTime)
    i.HAL_TIMEx_MasterConfigSynchronization  0x080029bc   Section        0  stm32f1xx_hal_tim_ex.o(i.HAL_TIMEx_MasterConfigSynchronization)
    i.HAL_TIM_Base_Init                      0x08002a24   Section        0  stm32f1xx_hal_tim.o(i.HAL_TIM_Base_Init)
    i.HAL_TIM_Base_MspInit                   0x08002a80   Section        0  tim.o(i.HAL_TIM_Base_MspInit)
    i.HAL_TIM_Base_Start                     0x08002aa8   Section        0  stm32f1xx_hal_tim.o(i.HAL_TIM_Base_Start)
    i.HAL_TIM_Base_Stop                      0x08002af8   Section        0  stm32f1xx_hal_tim.o(i.HAL_TIM_Base_Stop)
    i.HAL_TIM_ConfigClockSource              0x08002b1e   Section        0  stm32f1xx_hal_tim.o(i.HAL_TIM_ConfigClockSource)
    i.HAL_TIM_Encoder_Init                   0x08002bfa   Section        0  stm32f1xx_hal_tim.o(i.HAL_TIM_Encoder_Init)
    i.HAL_TIM_Encoder_MspInit                0x08002ca0   Section        0  tim.o(i.HAL_TIM_Encoder_MspInit)
    i.HAL_TIM_Encoder_Start                  0x08002d2c   Section        0  stm32f1xx_hal_tim.o(i.HAL_TIM_Encoder_Start)
    i.HAL_TIM_MspPostInit                    0x08002dbc   Section        0  tim.o(i.HAL_TIM_MspPostInit)
    i.HAL_TIM_PWM_ConfigChannel              0x08002e08   Section        0  stm32f1xx_hal_tim.o(i.HAL_TIM_PWM_ConfigChannel)
    i.HAL_TIM_PWM_Init                       0x08002ed4   Section        0  stm32f1xx_hal_tim.o(i.HAL_TIM_PWM_Init)
    i.HAL_TIM_PWM_MspInit                    0x08002f30   Section        0  tim.o(i.HAL_TIM_PWM_MspInit)
    i.HAL_TIM_PWM_Start                      0x08002f58   Section        0  stm32f1xx_hal_tim.o(i.HAL_TIM_PWM_Start)
    i.HAL_UARTEx_RxEventCallback             0x08002ff4   Section        0  stm32f1xx_hal_uart.o(i.HAL_UARTEx_RxEventCallback)
    i.HAL_UART_ErrorCallback                 0x08002ff6   Section        0  stm32f1xx_hal_uart.o(i.HAL_UART_ErrorCallback)
    i.HAL_UART_IRQHandler                    0x08002ff8   Section        0  stm32f1xx_hal_uart.o(i.HAL_UART_IRQHandler)
    i.HAL_UART_Init                          0x08003264   Section        0  stm32f1xx_hal_uart.o(i.HAL_UART_Init)
    i.HAL_UART_MspInit                       0x080032c8   Section        0  usart.o(i.HAL_UART_MspInit)
    i.HAL_UART_Receive_IT                    0x08003348   Section        0  stm32f1xx_hal_uart.o(i.HAL_UART_Receive_IT)
    i.HAL_UART_RxCpltCallback                0x08003364   Section        0  stm32f1xx_hal_uart.o(i.HAL_UART_RxCpltCallback)
    i.HAL_UART_Transmit                      0x08003366   Section        0  stm32f1xx_hal_uart.o(i.HAL_UART_Transmit)
    i.HAL_UART_TxCpltCallback                0x08003406   Section        0  stm32f1xx_hal_uart.o(i.HAL_UART_TxCpltCallback)
    i.HardFault_Handler                      0x08003408   Section        0  stm32f1xx_it.o(i.HardFault_Handler)
    i.I2C_IsAcknowledgeFailed                0x0800340a   Section        0  stm32f1xx_hal_i2c.o(i.I2C_IsAcknowledgeFailed)
    I2C_IsAcknowledgeFailed                  0x0800340b   Thumb Code    46  stm32f1xx_hal_i2c.o(i.I2C_IsAcknowledgeFailed)
    i.I2C_RequestMemoryWrite                 0x08003438   Section        0  stm32f1xx_hal_i2c.o(i.I2C_RequestMemoryWrite)
    I2C_RequestMemoryWrite                   0x08003439   Thumb Code   162  stm32f1xx_hal_i2c.o(i.I2C_RequestMemoryWrite)
    i.I2C_WaitOnBTFFlagUntilTimeout          0x080034e0   Section        0  stm32f1xx_hal_i2c.o(i.I2C_WaitOnBTFFlagUntilTimeout)
    I2C_WaitOnBTFFlagUntilTimeout            0x080034e1   Thumb Code    86  stm32f1xx_hal_i2c.o(i.I2C_WaitOnBTFFlagUntilTimeout)
    i.I2C_WaitOnFlagUntilTimeout             0x08003538   Section        0  stm32f1xx_hal_i2c.o(i.I2C_WaitOnFlagUntilTimeout)
    I2C_WaitOnFlagUntilTimeout               0x08003539   Thumb Code   144  stm32f1xx_hal_i2c.o(i.I2C_WaitOnFlagUntilTimeout)
    i.I2C_WaitOnMasterAddressFlagUntilTimeout 0x080035c8   Section        0  stm32f1xx_hal_i2c.o(i.I2C_WaitOnMasterAddressFlagUntilTimeout)
    I2C_WaitOnMasterAddressFlagUntilTimeout  0x080035c9   Thumb Code   188  stm32f1xx_hal_i2c.o(i.I2C_WaitOnMasterAddressFlagUntilTimeout)
    i.I2C_WaitOnTXEFlagUntilTimeout          0x08003684   Section        0  stm32f1xx_hal_i2c.o(i.I2C_WaitOnTXEFlagUntilTimeout)
    I2C_WaitOnTXEFlagUntilTimeout            0x08003685   Thumb Code    86  stm32f1xx_hal_i2c.o(i.I2C_WaitOnTXEFlagUntilTimeout)
    i.IIC_Ack                                0x080036dc   Section        0  iic.o(i.IIC_Ack)
    i.IIC_Delay                              0x0800371c   Section        0  iic.o(i.IIC_Delay)
    IIC_Delay                                0x0800371d   Thumb Code    12  iic.o(i.IIC_Delay)
    i.IIC_GPIO_Init                          0x08003728   Section        0  iic.o(i.IIC_GPIO_Init)
    i.IIC_NAck                               0x08003764   Section        0  iic.o(i.IIC_NAck)
    i.IIC_Read_Byte                          0x0800379c   Section        0  iic.o(i.IIC_Read_Byte)
    i.IIC_Send_Byte                          0x080037f4   Section        0  iic.o(i.IIC_Send_Byte)
    i.IIC_Start                              0x08003850   Section        0  iic.o(i.IIC_Start)
    i.IIC_Stop                               0x08003890   Section        0  iic.o(i.IIC_Stop)
    i.IIC_Wait_Ack                           0x080038c0   Section        0  iic.o(i.IIC_Wait_Ack)
    i.Limit                                  0x08003908   Section        0  motor.o(i.Limit)
    i.Load                                   0x08003934   Section        0  motor.o(i.Load)
    i.MPU_Get_Accelerometer                  0x080039b0   Section        0  mpu6050.o(i.MPU_Get_Accelerometer)
    i.MPU_Get_Gyroscope                      0x080039e2   Section        0  mpu6050.o(i.MPU_Get_Gyroscope)
    i.MPU_Init                               0x08003a14   Section        0  mpu6050.o(i.MPU_Init)
    i.MPU_Read_Byte                          0x08003a8a   Section        0  mpu6050.o(i.MPU_Read_Byte)
    i.MPU_Read_Len                           0x08003ac4   Section        0  mpu6050.o(i.MPU_Read_Len)
    i.MPU_Set_Accel_Fsr                      0x08003b30   Section        0  mpu6050.o(i.MPU_Set_Accel_Fsr)
    i.MPU_Set_Gyro_Fsr                       0x08003b3a   Section        0  mpu6050.o(i.MPU_Set_Gyro_Fsr)
    i.MPU_Set_LPF                            0x08003b44   Section        0  mpu6050.o(i.MPU_Set_LPF)
    i.MPU_Set_Rate                           0x08003b74   Section        0  mpu6050.o(i.MPU_Set_Rate)
    i.MPU_Write_Byte                         0x08003ba2   Section        0  mpu6050.o(i.MPU_Write_Byte)
    i.MPU_Write_Len                          0x08003bde   Section        0  mpu6050.o(i.MPU_Write_Len)
    i.MX_ADC1_Init                           0x08003c30   Section        0  adc.o(i.MX_ADC1_Init)
    i.MX_GPIO_Init                           0x08003c80   Section        0  gpio.o(i.MX_GPIO_Init)
    i.MX_I2C1_Init                           0x08003d68   Section        0  i2c.o(i.MX_I2C1_Init)
    i.MX_TIM1_Init                           0x08003da8   Section        0  tim.o(i.MX_TIM1_Init)
    i.MX_TIM2_Init                           0x08003e5c   Section        0  tim.o(i.MX_TIM2_Init)
    i.MX_TIM3_Init                           0x08003ec4   Section        0  tim.o(i.MX_TIM3_Init)
    i.MX_TIM4_Init                           0x08003f2c   Section        0  tim.o(i.MX_TIM4_Init)
    i.MX_USART3_UART_Init                    0x08003f98   Section        0  usart.o(i.MX_USART3_UART_Init)
    i.MemManage_Handler                      0x08003fd0   Section        0  stm32f1xx_it.o(i.MemManage_Handler)
    i.NMI_Handler                            0x08003fd2   Section        0  stm32f1xx_it.o(i.NMI_Handler)
    i.OLED_Clear                             0x08003fd4   Section        0  oled.o(i.OLED_Clear)
    i.OLED_Init                              0x08004008   Section        0  oled.o(i.OLED_Init)
    i.OLED_Set_Pos                           0x08004018   Section        0  oled.o(i.OLED_Set_Pos)
    i.OLED_ShowChar                          0x0800403c   Section        0  oled.o(i.OLED_ShowChar)
    i.OLED_ShowString                        0x080040c4   Section        0  oled.o(i.OLED_ShowString)
    i.OLED_WR_CMD                            0x080040fc   Section        0  oled.o(i.OLED_WR_CMD)
    i.OLED_WR_DATA                           0x08004120   Section        0  oled.o(i.OLED_WR_DATA)
    i.PendSV_Handler                         0x08004144   Section        0  stm32f1xx_it.o(i.PendSV_Handler)
    i.RCCdelay_us                            0x08004146   Section        0  sr04.o(i.RCCdelay_us)
    i.ReadEncoder                            0x08004160   Section        0  main.o(i.ReadEncoder)
    i.Read_Speed                             0x080041a4   Section        0  encoder.o(i.Read_Speed)
    i.SVC_Handler                            0x080041b0   Section        0  stm32f1xx_it.o(i.SVC_Handler)
    i.Stop                                   0x080041b4   Section        0  motor.o(i.Stop)
    i.SysTick_Handler                        0x080041e4   Section        0  stm32f1xx_it.o(i.SysTick_Handler)
    i.SystemClock_Config                     0x080041e8   Section        0  main.o(i.SystemClock_Config)
    i.SystemInit                             0x08004260   Section        0  system_stm32f1xx.o(i.SystemInit)
    i.TIM_Base_SetConfig                     0x08004264   Section        0  stm32f1xx_hal_tim.o(i.TIM_Base_SetConfig)
    i.TIM_CCxChannelCmd                      0x080042dc   Section        0  stm32f1xx_hal_tim.o(i.TIM_CCxChannelCmd)
    i.TIM_ETR_SetConfig                      0x080042f6   Section        0  stm32f1xx_hal_tim.o(i.TIM_ETR_SetConfig)
    i.TIM_ITRx_SetConfig                     0x0800430a   Section        0  stm32f1xx_hal_tim.o(i.TIM_ITRx_SetConfig)
    TIM_ITRx_SetConfig                       0x0800430b   Thumb Code    16  stm32f1xx_hal_tim.o(i.TIM_ITRx_SetConfig)
    i.TIM_OC1_SetConfig                      0x0800431c   Section        0  stm32f1xx_hal_tim.o(i.TIM_OC1_SetConfig)
    TIM_OC1_SetConfig                        0x0800431d   Thumb Code    74  stm32f1xx_hal_tim.o(i.TIM_OC1_SetConfig)
    i.TIM_OC2_SetConfig                      0x0800436c   Section        0  stm32f1xx_hal_tim.o(i.TIM_OC2_SetConfig)
    i.TIM_OC3_SetConfig                      0x080043c4   Section        0  stm32f1xx_hal_tim.o(i.TIM_OC3_SetConfig)
    TIM_OC3_SetConfig                        0x080043c5   Thumb Code    82  stm32f1xx_hal_tim.o(i.TIM_OC3_SetConfig)
    i.TIM_OC4_SetConfig                      0x0800441c   Section        0  stm32f1xx_hal_tim.o(i.TIM_OC4_SetConfig)
    TIM_OC4_SetConfig                        0x0800441d   Thumb Code    64  stm32f1xx_hal_tim.o(i.TIM_OC4_SetConfig)
    i.TIM_TI1_ConfigInputStage               0x08004460   Section        0  stm32f1xx_hal_tim.o(i.TIM_TI1_ConfigInputStage)
    TIM_TI1_ConfigInputStage                 0x08004461   Thumb Code    34  stm32f1xx_hal_tim.o(i.TIM_TI1_ConfigInputStage)
    i.TIM_TI2_ConfigInputStage               0x08004482   Section        0  stm32f1xx_hal_tim.o(i.TIM_TI2_ConfigInputStage)
    TIM_TI2_ConfigInputStage                 0x08004483   Thumb Code    36  stm32f1xx_hal_tim.o(i.TIM_TI2_ConfigInputStage)
    i.Turn                                   0x080044a8   Section        0  pid.o(i.Turn)
    i.UART_DMAAbortOnError                   0x080044d4   Section        0  stm32f1xx_hal_uart.o(i.UART_DMAAbortOnError)
    UART_DMAAbortOnError                     0x080044d5   Thumb Code    16  stm32f1xx_hal_uart.o(i.UART_DMAAbortOnError)
    i.UART_EndRxTransfer                     0x080044e4   Section        0  stm32f1xx_hal_uart.o(i.UART_EndRxTransfer)
    UART_EndRxTransfer                       0x080044e5   Thumb Code    78  stm32f1xx_hal_uart.o(i.UART_EndRxTransfer)
    i.UART_Receive_IT                        0x08004532   Section        0  stm32f1xx_hal_uart.o(i.UART_Receive_IT)
    UART_Receive_IT                          0x08004533   Thumb Code   194  stm32f1xx_hal_uart.o(i.UART_Receive_IT)
    i.UART_SetConfig                         0x080045f4   Section        0  stm32f1xx_hal_uart.o(i.UART_SetConfig)
    UART_SetConfig                           0x080045f5   Thumb Code   178  stm32f1xx_hal_uart.o(i.UART_SetConfig)
    i.UART_Start_Receive_IT                  0x080046ac   Section        0  stm32f1xx_hal_uart.o(i.UART_Start_Receive_IT)
    i.UART_WaitOnFlagUntilTimeout            0x080046e2   Section        0  stm32f1xx_hal_uart.o(i.UART_WaitOnFlagUntilTimeout)
    UART_WaitOnFlagUntilTimeout              0x080046e3   Thumb Code   114  stm32f1xx_hal_uart.o(i.UART_WaitOnFlagUntilTimeout)
    i.USART3_IRQHandler                      0x08004754   Section        0  stm32f1xx_it.o(i.USART3_IRQHandler)
    i.UsageFault_Handler                     0x080047b4   Section        0  stm32f1xx_it.o(i.UsageFault_Handler)
    i.Velocity                               0x080047b8   Section        0  pid.o(i.Velocity)
    i.Vertical                               0x08004870   Section        0  pid.o(i.Vertical)
    i.WriteCmd                               0x080048a4   Section        0  oled.o(i.WriteCmd)
    i.__ARM_fpclassify                       0x080048d8   Section        0  fpclassify.o(i.__ARM_fpclassify)
    i.__NVIC_SetPriority                     0x08004900   Section        0  stm32f1xx_hal_cortex.o(i.__NVIC_SetPriority)
    __NVIC_SetPriority                       0x08004901   Thumb Code    32  stm32f1xx_hal_cortex.o(i.__NVIC_SetPriority)
    i.__kernel_poly                          0x08004920   Section        0  poly.o(i.__kernel_poly)
    i.__mathlib_dbl_infnan                   0x080049ca   Section        0  dunder.o(i.__mathlib_dbl_infnan)
    i.__mathlib_dbl_infnan2                  0x080049d0   Section        0  dunder.o(i.__mathlib_dbl_infnan2)
    i.__mathlib_dbl_invalid                  0x080049d4   Section        0  dunder.o(i.__mathlib_dbl_invalid)
    i.__mathlib_dbl_underflow                0x080049e0   Section        0  dunder.o(i.__mathlib_dbl_underflow)
    i._is_digit                              0x080049f0   Section        0  __printf_wp.o(i._is_digit)
    i.accel_self_test                        0x08004a00   Section        0  inv_mpu.o(i.accel_self_test)
    accel_self_test                          0x08004a01   Thumb Code   114  inv_mpu.o(i.accel_self_test)
    i.asin                                   0x08004a80   Section        0  asin.o(i.asin)
    i.atan                                   0x08004cf0   Section        0  atan.o(i.atan)
    i.atan2                                  0x08004f10   Section        0  atan2.o(i.atan2)
    i.dmp_enable_6x_lp_quat                  0x080050ac   Section        0  inv_mpu_dmp_motion_driver.o(i.dmp_enable_6x_lp_quat)
    i.dmp_enable_feature                     0x080050e8   Section        0  inv_mpu_dmp_motion_driver.o(i.dmp_enable_feature)
    i.dmp_enable_gyro_cal                    0x080052c0   Section        0  inv_mpu_dmp_motion_driver.o(i.dmp_enable_gyro_cal)
    i.dmp_enable_lp_quat                     0x080052fc   Section        0  inv_mpu_dmp_motion_driver.o(i.dmp_enable_lp_quat)
    i.dmp_load_motion_driver_firmware        0x08005338   Section        0  inv_mpu_dmp_motion_driver.o(i.dmp_load_motion_driver_firmware)
    i.dmp_read_fifo                          0x0800534c   Section        0  inv_mpu_dmp_motion_driver.o(i.dmp_read_fifo)
    i.dmp_set_accel_bias                     0x080054b0   Section        0  inv_mpu_dmp_motion_driver.o(i.dmp_set_accel_bias)
    i.dmp_set_fifo_rate                      0x08005588   Section        0  inv_mpu_dmp_motion_driver.o(i.dmp_set_fifo_rate)
    i.dmp_set_gyro_bias                      0x080055ec   Section        0  inv_mpu_dmp_motion_driver.o(i.dmp_set_gyro_bias)
    i.dmp_set_orientation                    0x080056b8   Section        0  inv_mpu_dmp_motion_driver.o(i.dmp_set_orientation)
    i.dmp_set_shake_reject_thresh            0x080057c4   Section        0  inv_mpu_dmp_motion_driver.o(i.dmp_set_shake_reject_thresh)
    i.dmp_set_shake_reject_time              0x080057f4   Section        0  inv_mpu_dmp_motion_driver.o(i.dmp_set_shake_reject_time)
    i.dmp_set_shake_reject_timeout           0x08005814   Section        0  inv_mpu_dmp_motion_driver.o(i.dmp_set_shake_reject_timeout)
    i.dmp_set_tap_axes                       0x08005834   Section        0  inv_mpu_dmp_motion_driver.o(i.dmp_set_tap_axes)
    i.dmp_set_tap_count                      0x08005874   Section        0  inv_mpu_dmp_motion_driver.o(i.dmp_set_tap_count)
    i.dmp_set_tap_thresh                     0x08005898   Section        0  inv_mpu_dmp_motion_driver.o(i.dmp_set_tap_thresh)
    i.dmp_set_tap_time                       0x080059c0   Section        0  inv_mpu_dmp_motion_driver.o(i.dmp_set_tap_time)
    i.dmp_set_tap_time_multi                 0x080059e0   Section        0  inv_mpu_dmp_motion_driver.o(i.dmp_set_tap_time_multi)
    i.get_accel_prod_shift                   0x08005a00   Section        0  inv_mpu.o(i.get_accel_prod_shift)
    get_accel_prod_shift                     0x08005a01   Thumb Code   158  inv_mpu.o(i.get_accel_prod_shift)
    i.get_st_biases                          0x08005aac   Section        0  inv_mpu.o(i.get_st_biases)
    get_st_biases                            0x08005aad   Thumb Code   784  inv_mpu.o(i.get_st_biases)
    i.gyro_self_test                         0x08005dc0   Section        0  inv_mpu.o(i.gyro_self_test)
    gyro_self_test                           0x08005dc1   Thumb Code   190  inv_mpu.o(i.gyro_self_test)
    i.inv_orientation_matrix_to_scalar       0x08005e94   Section        0  inv_mpu.o(i.inv_orientation_matrix_to_scalar)
    i.inv_row_2_scale                        0x08005eb6   Section        0  inv_mpu.o(i.inv_row_2_scale)
    i.main                                   0x08005f00   Section        0  main.o(i.main)
    i.mget_ms                                0x080060e4   Section        0  inv_mpu.o(i.mget_ms)
    i.mpu_configure_fifo                     0x080060e8   Section        0  inv_mpu.o(i.mpu_configure_fifo)
    i.mpu_dmp_get_data                       0x0800613c   Section        0  inv_mpu.o(i.mpu_dmp_get_data)
    i.mpu_dmp_init                           0x080062d8   Section        0  inv_mpu.o(i.mpu_dmp_init)
    i.mpu_get_accel_fsr                      0x08006374   Section        0  inv_mpu.o(i.mpu_get_accel_fsr)
    i.mpu_get_accel_sens                     0x080063b0   Section        0  inv_mpu.o(i.mpu_get_accel_sens)
    i.mpu_get_gyro_fsr                       0x080063f4   Section        0  inv_mpu.o(i.mpu_get_gyro_fsr)
    i.mpu_get_gyro_sens                      0x08006428   Section        0  inv_mpu.o(i.mpu_get_gyro_sens)
    i.mpu_get_lpf                            0x08006468   Section        0  inv_mpu.o(i.mpu_get_lpf)
    i.mpu_get_sample_rate                    0x080064a0   Section        0  inv_mpu.o(i.mpu_get_sample_rate)
    i.mpu_init                               0x080064bc   Section        0  inv_mpu.o(i.mpu_init)
    i.mpu_load_firmware                      0x080065e0   Section        0  inv_mpu.o(i.mpu_load_firmware)
    i.mpu_lp_accel_mode                      0x08006680   Section        0  inv_mpu.o(i.mpu_lp_accel_mode)
    i.mpu_read_fifo_stream                   0x08006738   Section        0  inv_mpu.o(i.mpu_read_fifo_stream)
    i.mpu_read_mem                           0x080067c8   Section        0  inv_mpu.o(i.mpu_read_mem)
    i.mpu_reset_fifo                         0x0800681c   Section        0  inv_mpu.o(i.mpu_reset_fifo)
    i.mpu_run_self_test                      0x0800697c   Section        0  inv_mpu.o(i.mpu_run_self_test)
    i.mpu_set_accel_fsr                      0x08006a6c   Section        0  inv_mpu.o(i.mpu_set_accel_fsr)
    i.mpu_set_bypass                         0x08006ad4   Section        0  inv_mpu.o(i.mpu_set_bypass)
    i.mpu_set_dmp_state                      0x08006bb0   Section        0  inv_mpu.o(i.mpu_set_dmp_state)
    i.mpu_set_gyro_fsr                       0x08006c28   Section        0  inv_mpu.o(i.mpu_set_gyro_fsr)
    i.mpu_set_int_latched                    0x08006c94   Section        0  inv_mpu.o(i.mpu_set_int_latched)
    i.mpu_set_lpf                            0x08006cf8   Section        0  inv_mpu.o(i.mpu_set_lpf)
    i.mpu_set_sample_rate                    0x08006d64   Section        0  inv_mpu.o(i.mpu_set_sample_rate)
    i.mpu_set_sensors                        0x08006de4   Section        0  inv_mpu.o(i.mpu_set_sensors)
    i.mpu_write_mem                          0x08006e9c   Section        0  inv_mpu.o(i.mpu_write_mem)
    i.run_self_test                          0x08006ef0   Section        0  inv_mpu.o(i.run_self_test)
    i.set_int_enable                         0x08006f70   Section        0  inv_mpu.o(i.set_int_enable)
    set_int_enable                           0x08006f71   Thumb Code    84  inv_mpu.o(i.set_int_enable)
    i.sqrt                                   0x08006fc8   Section        0  sqrt.o(i.sqrt)
    locale$$code                             0x08007014   Section       44  lc_numeric_c.o(locale$$code)
    x$fpl$d2f                                0x08007040   Section       98  d2f.o(x$fpl$d2f)
    x$fpl$dadd                               0x080070a4   Section      336  daddsub_clz.o(x$fpl$dadd)
    _dadd1                                   0x080070b5   Thumb Code     0  daddsub_clz.o(x$fpl$dadd)
    x$fpl$dcheck1                            0x080071f4   Section       16  dcheck1.o(x$fpl$dcheck1)
    x$fpl$dcmpinf                            0x08007204   Section       24  dcmpi.o(x$fpl$dcmpinf)
    x$fpl$ddiv                               0x0800721c   Section      688  ddiv.o(x$fpl$ddiv)
    ddiv_entry                               0x08007223   Thumb Code     0  ddiv.o(x$fpl$ddiv)
    x$fpl$deqf                               0x080074cc   Section      120  deqf.o(x$fpl$deqf)
    x$fpl$dfltu                              0x08007544   Section       38  dflt_clz.o(x$fpl$dfltu)
    x$fpl$dmul                               0x0800756c   Section      340  dmul.o(x$fpl$dmul)
    x$fpl$dnaninf                            0x080076c0   Section      156  dnaninf.o(x$fpl$dnaninf)
    x$fpl$dretinf                            0x0800775c   Section       12  dretinf.o(x$fpl$dretinf)
    x$fpl$drsb                               0x08007768   Section       22  daddsub_clz.o(x$fpl$drsb)
    x$fpl$dsqrt                              0x08007780   Section      460  dsqrt_noumaal.o(x$fpl$dsqrt)
    x$fpl$dsub                               0x0800794c   Section      468  daddsub_clz.o(x$fpl$dsub)
    _dsub1                                   0x0800795d   Thumb Code     0  daddsub_clz.o(x$fpl$dsub)
    x$fpl$f2d                                0x08007b20   Section       86  f2d.o(x$fpl$f2d)
    x$fpl$fadd                               0x08007b78   Section      196  faddsub_clz.o(x$fpl$fadd)
    _fadd1                                   0x08007b87   Thumb Code     0  faddsub_clz.o(x$fpl$fadd)
    x$fpl$fcheck1                            0x08007c3c   Section       12  fcheck1.o(x$fpl$fcheck1)
    x$fpl$fdiv                               0x08007c48   Section      388  fdiv.o(x$fpl$fdiv)
    _fdiv1                                   0x08007c49   Thumb Code     0  fdiv.o(x$fpl$fdiv)
    x$fpl$ffix                               0x08007dcc   Section       54  ffix.o(x$fpl$ffix)
    x$fpl$ffixu                              0x08007e04   Section       62  ffixu.o(x$fpl$ffixu)
    x$fpl$fflt                               0x08007e44   Section       48  fflt_clz.o(x$fpl$fflt)
    x$fpl$ffltu                              0x08007e74   Section       38  fflt_clz.o(x$fpl$ffltu)
    x$fpl$fmul                               0x08007e9c   Section      258  fmul.o(x$fpl$fmul)
    x$fpl$fnaninf                            0x08007f9e   Section      140  fnaninf.o(x$fpl$fnaninf)
    x$fpl$fretinf                            0x0800802a   Section       10  fretinf.o(x$fpl$fretinf)
    x$fpl$frsb                               0x08008034   Section       20  faddsub_clz.o(x$fpl$frsb)
    x$fpl$fsub                               0x08008048   Section      234  faddsub_clz.o(x$fpl$fsub)
    _fsub1                                   0x08008057   Thumb Code     0  faddsub_clz.o(x$fpl$fsub)
    x$fpl$printf1                            0x08008132   Section        4  printf1.o(x$fpl$printf1)
    x$fpl$retnan                             0x08008136   Section      100  retnan.o(x$fpl$retnan)
    x$fpl$scalbn                             0x0800819a   Section       92  scalbn.o(x$fpl$scalbn)
    x$fpl$scalbnf                            0x080081f6   Section       76  scalbnf.o(x$fpl$scalbnf)
    x$fpl$trapveneer                         0x08008242   Section       48  trapv.o(x$fpl$trapveneer)
    .constdata                               0x08008272   Section     2504  oled.o(.constdata)
    x$fpl$usenofp                            0x08008272   Section        0  usenofp.o(x$fpl$usenofp)
    .constdata                               0x08008c3a   Section       27  inv_mpu.o(.constdata)
    .constdata                               0x08008c56   Section       12  inv_mpu.o(.constdata)
    .constdata                               0x08008c64   Section       40  inv_mpu.o(.constdata)
    .constdata                               0x08008c8c   Section     3062  inv_mpu_dmp_motion_driver.o(.constdata)
    dmp_memory                               0x08008c8c   Data        3062  inv_mpu_dmp_motion_driver.o(.constdata)
    .constdata                               0x08009882   Section       18  stm32f1xx_hal_rcc.o(.constdata)
    aPredivFactorTable                       0x08009882   Data           2  stm32f1xx_hal_rcc.o(.constdata)
    aPLLMULFactorTable                       0x08009884   Data          16  stm32f1xx_hal_rcc.o(.constdata)
    .constdata                               0x08009894   Section       16  system_stm32f1xx.o(.constdata)
    .constdata                               0x080098a4   Section        8  system_stm32f1xx.o(.constdata)
    .constdata                               0x080098ac   Section       17  __printf_flags_wp.o(.constdata)
    maptable                                 0x080098ac   Data          17  __printf_flags_wp.o(.constdata)
    .constdata                               0x080098c0   Section       80  asin.o(.constdata)
    pS                                       0x080098c0   Data          48  asin.o(.constdata)
    qS                                       0x080098f0   Data          32  asin.o(.constdata)
    .constdata                               0x08009910   Section      152  atan.o(.constdata)
    atanhi                                   0x08009910   Data          32  atan.o(.constdata)
    atanlo                                   0x08009930   Data          32  atan.o(.constdata)
    aTodd                                    0x08009950   Data          40  atan.o(.constdata)
    aTeven                                   0x08009978   Data          48  atan.o(.constdata)
    .constdata                               0x080099a8   Section        8  qnan.o(.constdata)
    .constdata                               0x080099b0   Section      148  bigflt0.o(.constdata)
    tenpwrs_x                                0x080099b0   Data          60  bigflt0.o(.constdata)
    tenpwrs_i                                0x080099ec   Data          64  bigflt0.o(.constdata)
    locale$$data                             0x08009a64   Section       28  lc_numeric_c.o(locale$$data)
    __lcnum_c_name                           0x08009a68   Data           2  lc_numeric_c.o(locale$$data)
    __lcnum_c_start                          0x08009a70   Data           0  lc_numeric_c.o(locale$$data)
    __lcnum_c_point                          0x08009a7c   Data           0  lc_numeric_c.o(locale$$data)
    __lcnum_c_thousands                      0x08009a7e   Data           0  lc_numeric_c.o(locale$$data)
    __lcnum_c_grouping                       0x08009a7f   Data           0  lc_numeric_c.o(locale$$data)
    __lcnum_c_end                            0x08009a80   Data           0  lc_numeric_c.o(locale$$data)
    .data                                    0x20000000   Section       27  oled.o(.data)
    .data                                    0x2000001c   Section       53  inv_mpu.o(.data)
    st                                       0x2000001c   Data          44  inv_mpu.o(.data)
    gyro_orientation                         0x20000048   Data           9  inv_mpu.o(.data)
    .data                                    0x20000054   Section        8  sr04.o(.data)
    .data                                    0x2000005c   Section      104  pid.o(.data)
    Err_LowOut_last                          0x20000088   Data           4  pid.o(.data)
    Encoder_S                                0x2000008c   Data           4  pid.o(.data)
    a                                        0x20000090   Data           4  pid.o(.data)
    .data                                    0x200000c4   Section        4  main.o(.data)
    .data                                    0x200000c8   Section        7  stm32f1xx_it.o(.data)
    .data                                    0x200000d0   Section       12  stm32f1xx_hal.o(.data)
    .data                                    0x200000dc   Section        4  system_stm32f1xx.o(.data)
    .bss                                     0x200000e0   Section       16  inv_mpu_dmp_motion_driver.o(.bss)
    dmp                                      0x200000e0   Data          16  inv_mpu_dmp_motion_driver.o(.bss)
    .bss                                     0x200000f0   Section       20  main.o(.bss)
    .bss                                     0x20000104   Section       48  adc.o(.bss)
    .bss                                     0x20000134   Section       84  i2c.o(.bss)
    .bss                                     0x20000188   Section      288  tim.o(.bss)
    .bss                                     0x200002a8   Section       72  usart.o(.bss)
    .bss                                     0x200002f0   Section       96  libspace.o(.bss)
    HEAP                                     0x20000350   Section      512  startup_stm32f103xb.o(HEAP)
    Heap_Mem                                 0x20000350   Data         512  startup_stm32f103xb.o(HEAP)
    STACK                                    0x20000550   Section     1024  startup_stm32f103xb.o(STACK)
    Stack_Mem                                0x20000550   Data        1024  startup_stm32f103xb.o(STACK)
    __initial_sp                             0x20000950   Data           0  startup_stm32f103xb.o(STACK)

    Global Symbols

    Symbol Name                              Value     Ov Type        Size  Object(Section)

    BuildAttributes$$THM_ISAv4$P$D$K$B$S$PE$A:L22UL41UL21$X:L11$S22US41US21$IEEE1$IW$USESV6$~STKCKD$USESV7$~SHL$OTIME$ROPI$IEEEX$EBA8$UX$STANDARDLIB$REQ8$PRES8$EABIv2 0x00000000   Number         0  anon$$obj.o ABSOLUTE
    __ARM_use_no_argv                        0x00000000   Number         0  main.o ABSOLUTE
    _printf_flags                            0x00000000   Number         0  printf_stubs.o ABSOLUTE
    _printf_return_value                     0x00000000   Number         0  printf_stubs.o ABSOLUTE
    _printf_sizespec                         0x00000000   Number         0  printf_stubs.o ABSOLUTE
    _printf_widthprec                        0x00000000   Number         0  printf_stubs.o ABSOLUTE
    __ARM_exceptions_init                     - Undefined Weak Reference
    __alloca_initialize                       - Undefined Weak Reference
    __arm_fini_                               - Undefined Weak Reference
    __arm_preinit_                            - Undefined Weak Reference
    __cpp_initialize__aeabi_                  - Undefined Weak Reference
    __cxa_finalize                            - Undefined Weak Reference
    __sigvec_lookup                           - Undefined Weak Reference
    _atexit_init                              - Undefined Weak Reference
    _call_atexit_fns                          - Undefined Weak Reference
    _clock_init                               - Undefined Weak Reference
    _fp_trap_init                             - Undefined Weak Reference
    _fp_trap_shutdown                         - Undefined Weak Reference
    _get_lc_collate                           - Undefined Weak Reference
    _get_lc_ctype                             - Undefined Weak Reference
    _get_lc_monetary                          - Undefined Weak Reference
    _get_lc_time                              - Undefined Weak Reference
    _getenv_init                              - Undefined Weak Reference
    _handle_redirection                       - Undefined Weak Reference
    _init_alloc                               - Undefined Weak Reference
    _init_user_alloc                          - Undefined Weak Reference
    _initio                                   - Undefined Weak Reference
    _printf_truncate_signed                   - Undefined Weak Reference
    _printf_truncate_unsigned                 - Undefined Weak Reference
    _rand_init                                - Undefined Weak Reference
    _signal_finish                            - Undefined Weak Reference
    _signal_init                              - Undefined Weak Reference
    _terminate_alloc                          - Undefined Weak Reference
    _terminate_user_alloc                     - Undefined Weak Reference
    _terminateio                              - Undefined Weak Reference
    __Vectors_Size                           0x000000ec   Number         0  startup_stm32f103xb.o ABSOLUTE
    __Vectors                                0x08000000   Data           4  startup_stm32f103xb.o(RESET)
    __Vectors_End                            0x080000ec   Data           0  startup_stm32f103xb.o(RESET)
    __main                                   0x080000ed   Thumb Code     8  __main.o(!!!main)
    __scatterload                            0x080000f5   Thumb Code     0  __scatter.o(!!!scatter)
    __scatterload_rt2                        0x080000f5   Thumb Code    44  __scatter.o(!!!scatter)
    __scatterload_rt2_thumb_only             0x080000f5   Thumb Code     0  __scatter.o(!!!scatter)
    __scatterload_null                       0x08000103   Thumb Code     0  __scatter.o(!!!scatter)
    __scatterload_copy                       0x08000129   Thumb Code    26  __scatter_copy.o(!!handler_copy)
    __scatterload_zeroinit                   0x08000145   Thumb Code    28  __scatter_zi.o(!!handler_zi)
    _printf_f                                0x08000161   Thumb Code     0  _printf_f.o(.ARM.Collect$$_printf_percent$$00000003)
    _printf_percent                          0x08000161   Thumb Code     0  _printf_percent.o(.ARM.Collect$$_printf_percent$$00000000)
    _printf_d                                0x08000167   Thumb Code     0  _printf_d.o(.ARM.Collect$$_printf_percent$$00000009)
    _printf_percent_end                      0x0800016d   Thumb Code     0  _printf_percent_end.o(.ARM.Collect$$_printf_percent$$00000017)
    __rt_lib_init                            0x08000171   Thumb Code     0  libinit.o(.ARM.Collect$$libinit$$00000000)
    __rt_lib_init_fp_1                       0x08000173   Thumb Code     0  libinit2.o(.ARM.Collect$$libinit$$00000002)
    __rt_lib_init_heap_1                     0x08000173   Thumb Code     0  libinit2.o(.ARM.Collect$$libinit$$0000000A)
    __rt_lib_init_lc_common                  0x08000173   Thumb Code     0  libinit2.o(.ARM.Collect$$libinit$$0000000F)
    __rt_lib_init_preinit_1                  0x08000173   Thumb Code     0  libinit2.o(.ARM.Collect$$libinit$$00000004)
    __rt_lib_init_rand_1                     0x08000173   Thumb Code     0  libinit2.o(.ARM.Collect$$libinit$$0000000E)
    __rt_lib_init_user_alloc_1               0x08000173   Thumb Code     0  libinit2.o(.ARM.Collect$$libinit$$0000000C)
    __rt_lib_init_lc_collate_1               0x08000179   Thumb Code     0  libinit2.o(.ARM.Collect$$libinit$$00000011)
    __rt_lib_init_lc_ctype_1                 0x08000179   Thumb Code     0  libinit2.o(.ARM.Collect$$libinit$$00000013)
    __rt_lib_init_lc_monetary_1              0x08000179   Thumb Code     0  libinit2.o(.ARM.Collect$$libinit$$00000015)
    __rt_lib_init_lc_numeric_2               0x08000179   Thumb Code     0  libinit2.o(.ARM.Collect$$libinit$$00000016)
    __rt_lib_init_alloca_1                   0x08000183   Thumb Code     0  libinit2.o(.ARM.Collect$$libinit$$0000002E)
    __rt_lib_init_argv_1                     0x08000183   Thumb Code     0  libinit2.o(.ARM.Collect$$libinit$$0000002C)
    __rt_lib_init_atexit_1                   0x08000183   Thumb Code     0  libinit2.o(.ARM.Collect$$libinit$$0000001B)
    __rt_lib_init_clock_1                    0x08000183   Thumb Code     0  libinit2.o(.ARM.Collect$$libinit$$00000021)
    __rt_lib_init_cpp_1                      0x08000183   Thumb Code     0  libinit2.o(.ARM.Collect$$libinit$$00000032)
    __rt_lib_init_exceptions_1               0x08000183   Thumb Code     0  libinit2.o(.ARM.Collect$$libinit$$00000030)
    __rt_lib_init_fp_trap_1                  0x08000183   Thumb Code     0  libinit2.o(.ARM.Collect$$libinit$$0000001F)
    __rt_lib_init_getenv_1                   0x08000183   Thumb Code     0  libinit2.o(.ARM.Collect$$libinit$$00000023)
    __rt_lib_init_lc_numeric_1               0x08000183   Thumb Code     0  libinit2.o(.ARM.Collect$$libinit$$00000017)
    __rt_lib_init_lc_time_1                  0x08000183   Thumb Code     0  libinit2.o(.ARM.Collect$$libinit$$00000019)
    __rt_lib_init_return                     0x08000183   Thumb Code     0  libinit2.o(.ARM.Collect$$libinit$$00000033)
    __rt_lib_init_signal_1                   0x08000183   Thumb Code     0  libinit2.o(.ARM.Collect$$libinit$$0000001D)
    __rt_lib_init_stdio_1                    0x08000183   Thumb Code     0  libinit2.o(.ARM.Collect$$libinit$$00000025)
    __rt_lib_shutdown                        0x08000185   Thumb Code     0  libshutdown.o(.ARM.Collect$$libshutdown$$00000000)
    __rt_lib_shutdown_cpp_1                  0x08000187   Thumb Code     0  libshutdown2.o(.ARM.Collect$$libshutdown$$00000004)
    __rt_lib_shutdown_fini_1                 0x08000187   Thumb Code     0  libshutdown2.o(.ARM.Collect$$libshutdown$$00000002)
    __rt_lib_shutdown_fp_trap_1              0x08000187   Thumb Code     0  libshutdown2.o(.ARM.Collect$$libshutdown$$00000009)
    __rt_lib_shutdown_heap_1                 0x08000187   Thumb Code     0  libshutdown2.o(.ARM.Collect$$libshutdown$$00000011)
    __rt_lib_shutdown_return                 0x08000187   Thumb Code     0  libshutdown2.o(.ARM.Collect$$libshutdown$$00000012)
    __rt_lib_shutdown_signal_1               0x08000187   Thumb Code     0  libshutdown2.o(.ARM.Collect$$libshutdown$$0000000C)
    __rt_lib_shutdown_stdio_1                0x08000187   Thumb Code     0  libshutdown2.o(.ARM.Collect$$libshutdown$$00000006)
    __rt_lib_shutdown_user_alloc_1           0x08000187   Thumb Code     0  libshutdown2.o(.ARM.Collect$$libshutdown$$0000000E)
    __rt_entry                               0x08000189   Thumb Code     0  __rtentry.o(.ARM.Collect$$rtentry$$00000000)
    __rt_entry_presh_1                       0x08000189   Thumb Code     0  __rtentry2.o(.ARM.Collect$$rtentry$$00000002)
    __rt_entry_sh                            0x08000189   Thumb Code     0  __rtentry4.o(.ARM.Collect$$rtentry$$00000004)
    __rt_entry_li                            0x0800018f   Thumb Code     0  __rtentry2.o(.ARM.Collect$$rtentry$$0000000A)
    __rt_entry_postsh_1                      0x0800018f   Thumb Code     0  __rtentry2.o(.ARM.Collect$$rtentry$$00000009)
    __rt_entry_main                          0x08000193   Thumb Code     0  __rtentry2.o(.ARM.Collect$$rtentry$$0000000D)
    __rt_entry_postli_1                      0x08000193   Thumb Code     0  __rtentry2.o(.ARM.Collect$$rtentry$$0000000C)
    __rt_exit                                0x0800019b   Thumb Code     0  rtexit.o(.ARM.Collect$$rtexit$$00000000)
    __rt_exit_ls                             0x0800019d   Thumb Code     0  rtexit2.o(.ARM.Collect$$rtexit$$00000003)
    __rt_exit_prels_1                        0x0800019d   Thumb Code     0  rtexit2.o(.ARM.Collect$$rtexit$$00000002)
    __rt_exit_exit                           0x080001a1   Thumb Code     0  rtexit2.o(.ARM.Collect$$rtexit$$00000004)
    Reset_Handler                            0x080001a9   Thumb Code     8  startup_stm32f103xb.o(.text)
    ADC1_2_IRQHandler                        0x080001c3   Thumb Code     0  startup_stm32f103xb.o(.text)
    CAN1_RX1_IRQHandler                      0x080001c3   Thumb Code     0  startup_stm32f103xb.o(.text)
    CAN1_SCE_IRQHandler                      0x080001c3   Thumb Code     0  startup_stm32f103xb.o(.text)
    DMA1_Channel1_IRQHandler                 0x080001c3   Thumb Code     0  startup_stm32f103xb.o(.text)
    DMA1_Channel2_IRQHandler                 0x080001c3   Thumb Code     0  startup_stm32f103xb.o(.text)
    DMA1_Channel3_IRQHandler                 0x080001c3   Thumb Code     0  startup_stm32f103xb.o(.text)
    DMA1_Channel4_IRQHandler                 0x080001c3   Thumb Code     0  startup_stm32f103xb.o(.text)
    DMA1_Channel5_IRQHandler                 0x080001c3   Thumb Code     0  startup_stm32f103xb.o(.text)
    DMA1_Channel6_IRQHandler                 0x080001c3   Thumb Code     0  startup_stm32f103xb.o(.text)
    DMA1_Channel7_IRQHandler                 0x080001c3   Thumb Code     0  startup_stm32f103xb.o(.text)
    EXTI0_IRQHandler                         0x080001c3   Thumb Code     0  startup_stm32f103xb.o(.text)
    EXTI15_10_IRQHandler                     0x080001c3   Thumb Code     0  startup_stm32f103xb.o(.text)
    EXTI1_IRQHandler                         0x080001c3   Thumb Code     0  startup_stm32f103xb.o(.text)
    EXTI3_IRQHandler                         0x080001c3   Thumb Code     0  startup_stm32f103xb.o(.text)
    EXTI4_IRQHandler                         0x080001c3   Thumb Code     0  startup_stm32f103xb.o(.text)
    FLASH_IRQHandler                         0x080001c3   Thumb Code     0  startup_stm32f103xb.o(.text)
    I2C1_ER_IRQHandler                       0x080001c3   Thumb Code     0  startup_stm32f103xb.o(.text)
    I2C1_EV_IRQHandler                       0x080001c3   Thumb Code     0  startup_stm32f103xb.o(.text)
    I2C2_ER_IRQHandler                       0x080001c3   Thumb Code     0  startup_stm32f103xb.o(.text)
    I2C2_EV_IRQHandler                       0x080001c3   Thumb Code     0  startup_stm32f103xb.o(.text)
    PVD_IRQHandler                           0x080001c3   Thumb Code     0  startup_stm32f103xb.o(.text)
    RCC_IRQHandler                           0x080001c3   Thumb Code     0  startup_stm32f103xb.o(.text)
    RTC_Alarm_IRQHandler                     0x080001c3   Thumb Code     0  startup_stm32f103xb.o(.text)
    RTC_IRQHandler                           0x080001c3   Thumb Code     0  startup_stm32f103xb.o(.text)
    SPI1_IRQHandler                          0x080001c3   Thumb Code     0  startup_stm32f103xb.o(.text)
    SPI2_IRQHandler                          0x080001c3   Thumb Code     0  startup_stm32f103xb.o(.text)
    TAMPER_IRQHandler                        0x080001c3   Thumb Code     0  startup_stm32f103xb.o(.text)
    TIM1_BRK_IRQHandler                      0x080001c3   Thumb Code     0  startup_stm32f103xb.o(.text)
    TIM1_CC_IRQHandler                       0x080001c3   Thumb Code     0  startup_stm32f103xb.o(.text)
    TIM1_TRG_COM_IRQHandler                  0x080001c3   Thumb Code     0  startup_stm32f103xb.o(.text)
    TIM1_UP_IRQHandler                       0x080001c3   Thumb Code     0  startup_stm32f103xb.o(.text)
    TIM2_IRQHandler                          0x080001c3   Thumb Code     0  startup_stm32f103xb.o(.text)
    TIM3_IRQHandler                          0x080001c3   Thumb Code     0  startup_stm32f103xb.o(.text)
    TIM4_IRQHandler                          0x080001c3   Thumb Code     0  startup_stm32f103xb.o(.text)
    USART1_IRQHandler                        0x080001c3   Thumb Code     0  startup_stm32f103xb.o(.text)
    USART2_IRQHandler                        0x080001c3   Thumb Code     0  startup_stm32f103xb.o(.text)
    USBWakeUp_IRQHandler                     0x080001c3   Thumb Code     0  startup_stm32f103xb.o(.text)
    USB_HP_CAN1_TX_IRQHandler                0x080001c3   Thumb Code     0  startup_stm32f103xb.o(.text)
    USB_LP_CAN1_RX0_IRQHandler               0x080001c3   Thumb Code     0  startup_stm32f103xb.o(.text)
    WWDG_IRQHandler                          0x080001c3   Thumb Code     0  startup_stm32f103xb.o(.text)
    __user_initial_stackheap                 0x080001c5   Thumb Code     0  startup_stm32f103xb.o(.text)
    __aeabi_ldivmod                          0x080001e9   Thumb Code     0  llsdiv.o(.text)
    _ll_sdiv                                 0x080001e9   Thumb Code    72  llsdiv.o(.text)
    __2sprintf                               0x08000231   Thumb Code    34  noretval__2sprintf.o(.text)
    _printf_pre_padding                      0x08000259   Thumb Code    44  _printf_pad.o(.text)
    _printf_post_padding                     0x08000285   Thumb Code    34  _printf_pad.o(.text)
    _printf_int_dec                          0x080002a9   Thumb Code   104  _printf_dec.o(.text)
    __printf                                 0x08000321   Thumb Code   308  __printf_flags_wp.o(.text)
    memcmp                                   0x08000459   Thumb Code    88  memcmp.o(.text)
    __aeabi_memset                           0x080004b1   Thumb Code    16  aeabi_memset.o(.text)
    __aeabi_memclr4                          0x080004c1   Thumb Code     0  rt_memclr_w.o(.text)
    __aeabi_memclr8                          0x080004c1   Thumb Code     0  rt_memclr_w.o(.text)
    __rt_memclr_w                            0x080004c1   Thumb Code    78  rt_memclr_w.o(.text)
    _memset_w                                0x080004c5   Thumb Code     0  rt_memclr_w.o(.text)
    __use_two_region_memory                  0x0800050f   Thumb Code     2  heapauxi.o(.text)
    __rt_heap_escrow$2region                 0x08000511   Thumb Code     2  heapauxi.o(.text)
    __rt_heap_expand$2region                 0x08000513   Thumb Code     2  heapauxi.o(.text)
    __aeabi_uldivmod                         0x08000515   Thumb Code     0  lludivv7m.o(.text)
    _ll_udiv                                 0x08000515   Thumb Code   238  lludivv7m.o(.text)
    __read_errno                             0x08000603   Thumb Code    10  _rserrno.o(.text)
    __set_errno                              0x0800060d   Thumb Code    12  _rserrno.o(.text)
    _printf_int_common                       0x08000619   Thumb Code   178  _printf_intcommon.o(.text)
    __lib_sel_fp_printf                      0x080006cb   Thumb Code     2  _printf_fp_dec.o(.text)
    _printf_fp_dec_real                      0x0800087d   Thumb Code   620  _printf_fp_dec.o(.text)
    _printf_char_common                      0x08000af3   Thumb Code    32  _printf_char_common.o(.text)
    _sputc                                   0x08000b19   Thumb Code    10  _sputc.o(.text)
    __aeabi_memclr                           0x08000b23   Thumb Code     0  rt_memclr.o(.text)
    __rt_memclr                              0x08000b23   Thumb Code    68  rt_memclr.o(.text)
    _memset                                  0x08000b27   Thumb Code     0  rt_memclr.o(.text)
    __rt_locale                              0x08000b69   Thumb Code     8  rt_locale_intlibspace.o(.text)
    __aeabi_errno_addr                       0x08000b71   Thumb Code     8  rt_errno_addr_intlibspace.o(.text)
    __errno$intlibspace                      0x08000b71   Thumb Code     0  rt_errno_addr_intlibspace.o(.text)
    __rt_errno_addr$intlibspace              0x08000b71   Thumb Code     0  rt_errno_addr_intlibspace.o(.text)
    _ll_udiv10                               0x08000b79   Thumb Code   138  lludiv10.o(.text)
    _printf_fp_infnan                        0x08000c05   Thumb Code   112  _printf_fp_infnan.o(.text)
    _btod_etento                             0x08000c85   Thumb Code   224  bigflt0.o(.text)
    __user_libspace                          0x08000d69   Thumb Code     8  libspace.o(.text)
    __user_perproc_libspace                  0x08000d69   Thumb Code     0  libspace.o(.text)
    __user_perthread_libspace                0x08000d69   Thumb Code     0  libspace.o(.text)
    __user_setup_stackheap                   0x08000d71   Thumb Code    74  sys_stackheap_outer.o(.text)
    exit                                     0x08000dbb   Thumb Code    18  exit.o(.text)
    strcmp                                   0x08000dcd   Thumb Code   128  strcmpv7m.o(.text)
    _sys_exit                                0x08000e4d   Thumb Code     8  sys_exit.o(.text)
    __I$use$semihosting                      0x08000e59   Thumb Code     0  use_no_semi.o(.text)
    __use_no_semihosting_swi                 0x08000e59   Thumb Code     2  use_no_semi.o(.text)
    __semihosting_library_function           0x08000e5b   Thumb Code     0  indicate_semi.o(.text)
    _btod_d2e                                0x08000e5b   Thumb Code    62  btod.o(CL$$btod_d2e)
    _d2e_denorm_low                          0x08000e99   Thumb Code    70  btod.o(CL$$btod_d2e_denorm_low)
    _d2e_norm_op1                            0x08000edf   Thumb Code    96  btod.o(CL$$btod_d2e_norm_op1)
    __btod_div_common                        0x08000f3f   Thumb Code   696  btod.o(CL$$btod_div_common)
    _e2e                                     0x08001277   Thumb Code   220  btod.o(CL$$btod_e2e)
    _btod_ediv                               0x08001353   Thumb Code    42  btod.o(CL$$btod_ediv)
    _btod_emul                               0x0800137d   Thumb Code    42  btod.o(CL$$btod_emul)
    __btod_mult_common                       0x080013a7   Thumb Code   580  btod.o(CL$$btod_mult_common)
    ADC_ConversionStop_Disable               0x080015ed   Thumb Code    86  stm32f1xx_hal_adc.o(i.ADC_ConversionStop_Disable)
    ADC_Enable                               0x08001645   Thumb Code   114  stm32f1xx_hal_adc.o(i.ADC_Enable)
    BusFault_Handler                         0x080016c1   Thumb Code     2  stm32f1xx_it.o(i.BusFault_Handler)
    Control                                  0x080016c5   Thumb Code   318  pid.o(i.Control)
    DebugMon_Handler                         0x0800182d   Thumb Code     2  stm32f1xx_it.o(i.DebugMon_Handler)
    EXTI2_IRQHandler                         0x0800182f   Thumb Code     6  stm32f1xx_it.o(i.EXTI2_IRQHandler)
    EXTI9_5_IRQHandler                       0x08001835   Thumb Code     6  stm32f1xx_it.o(i.EXTI9_5_IRQHandler)
    Error_Handler                            0x0800183b   Thumb Code     4  main.o(i.Error_Handler)
    GET_Distance                             0x08001841   Thumb Code    34  sr04.o(i.GET_Distance)
    HAL_ADC_ConfigChannel                    0x08001869   Thumb Code   240  stm32f1xx_hal_adc.o(i.HAL_ADC_ConfigChannel)
    HAL_ADC_GetValue                         0x08001965   Thumb Code     6  stm32f1xx_hal_adc.o(i.HAL_ADC_GetValue)
    HAL_ADC_Init                             0x0800196d   Thumb Code   272  stm32f1xx_hal_adc.o(i.HAL_ADC_Init)
    HAL_ADC_MspInit                          0x08001a89   Thumb Code    76  adc.o(i.HAL_ADC_MspInit)
    HAL_ADC_Start                            0x08001ae1   Thumb Code   184  stm32f1xx_hal_adc.o(i.HAL_ADC_Start)
    HAL_DMA_Abort                            0x08001ba1   Thumb Code    70  stm32f1xx_hal_dma.o(i.HAL_DMA_Abort)
    HAL_DMA_Abort_IT                         0x08001be9   Thumb Code   148  stm32f1xx_hal_dma.o(i.HAL_DMA_Abort_IT)
    HAL_Delay                                0x08001c81   Thumb Code    32  stm32f1xx_hal.o(i.HAL_Delay)
    HAL_GPIO_EXTI_Callback                   0x08001ca5   Thumb Code    84  sr04.o(i.HAL_GPIO_EXTI_Callback)
    HAL_GPIO_EXTI_IRQHandler                 0x08001d0d   Thumb Code    18  stm32f1xx_hal_gpio.o(i.HAL_GPIO_EXTI_IRQHandler)
    HAL_GPIO_Init                            0x08001d25   Thumb Code   446  stm32f1xx_hal_gpio.o(i.HAL_GPIO_Init)
    HAL_GPIO_ReadPin                         0x08001f05   Thumb Code    10  stm32f1xx_hal_gpio.o(i.HAL_GPIO_ReadPin)
    HAL_GPIO_WritePin                        0x08001f0f   Thumb Code    10  stm32f1xx_hal_gpio.o(i.HAL_GPIO_WritePin)
    HAL_GetTick                              0x08001f19   Thumb Code     6  stm32f1xx_hal.o(i.HAL_GetTick)
    HAL_I2C_Init                             0x08001f25   Thumb Code   376  stm32f1xx_hal_i2c.o(i.HAL_I2C_Init)
    HAL_I2C_Mem_Write                        0x080020ad   Thumb Code   294  stm32f1xx_hal_i2c.o(i.HAL_I2C_Mem_Write)
    HAL_I2C_MspInit                          0x080021dd   Thumb Code    96  i2c.o(i.HAL_I2C_MspInit)
    HAL_IncTick                              0x0800224d   Thumb Code    12  stm32f1xx_hal.o(i.HAL_IncTick)
    HAL_Init                                 0x0800225d   Thumb Code    32  stm32f1xx_hal.o(i.HAL_Init)
    HAL_InitTick                             0x08002281   Thumb Code    54  stm32f1xx_hal.o(i.HAL_InitTick)
    HAL_MspInit                              0x080022c1   Thumb Code    52  stm32f1xx_hal_msp.o(i.HAL_MspInit)
    HAL_NVIC_EnableIRQ                       0x080022fd   Thumb Code    26  stm32f1xx_hal_cortex.o(i.HAL_NVIC_EnableIRQ)
    HAL_NVIC_SetPriority                     0x08002319   Thumb Code    60  stm32f1xx_hal_cortex.o(i.HAL_NVIC_SetPriority)
    HAL_NVIC_SetPriorityGrouping             0x08002359   Thumb Code    26  stm32f1xx_hal_cortex.o(i.HAL_NVIC_SetPriorityGrouping)
    HAL_RCCEx_PeriphCLKConfig                0x0800237d   Thumb Code   224  stm32f1xx_hal_rcc_ex.o(i.HAL_RCCEx_PeriphCLKConfig)
    HAL_RCC_ClockConfig                      0x08002469   Thumb Code   280  stm32f1xx_hal_rcc.o(i.HAL_RCC_ClockConfig)
    HAL_RCC_GetPCLK1Freq                     0x08002595   Thumb Code    20  stm32f1xx_hal_rcc.o(i.HAL_RCC_GetPCLK1Freq)
    HAL_RCC_GetPCLK2Freq                     0x080025b5   Thumb Code    20  stm32f1xx_hal_rcc.o(i.HAL_RCC_GetPCLK2Freq)
    HAL_RCC_GetSysClockFreq                  0x080025d5   Thumb Code    58  stm32f1xx_hal_rcc.o(i.HAL_RCC_GetSysClockFreq)
    HAL_RCC_OscConfig                        0x08002621   Thumb Code   778  stm32f1xx_hal_rcc.o(i.HAL_RCC_OscConfig)
    HAL_SYSTICK_Config                       0x08002941   Thumb Code    40  stm32f1xx_hal_cortex.o(i.HAL_SYSTICK_Config)
    HAL_TIMEx_ConfigBreakDeadTime            0x08002969   Thumb Code    84  stm32f1xx_hal_tim_ex.o(i.HAL_TIMEx_ConfigBreakDeadTime)
    HAL_TIMEx_MasterConfigSynchronization    0x080029bd   Thumb Code    92  stm32f1xx_hal_tim_ex.o(i.HAL_TIMEx_MasterConfigSynchronization)
    HAL_TIM_Base_Init                        0x08002a25   Thumb Code    90  stm32f1xx_hal_tim.o(i.HAL_TIM_Base_Init)
    HAL_TIM_Base_MspInit                     0x08002a81   Thumb Code    30  tim.o(i.HAL_TIM_Base_MspInit)
    HAL_TIM_Base_Start                       0x08002aa9   Thumb Code    66  stm32f1xx_hal_tim.o(i.HAL_TIM_Base_Start)
    HAL_TIM_Base_Stop                        0x08002af9   Thumb Code    38  stm32f1xx_hal_tim.o(i.HAL_TIM_Base_Stop)
    HAL_TIM_ConfigClockSource                0x08002b1f   Thumb Code   220  stm32f1xx_hal_tim.o(i.HAL_TIM_ConfigClockSource)
    HAL_TIM_Encoder_Init                     0x08002bfb   Thumb Code   164  stm32f1xx_hal_tim.o(i.HAL_TIM_Encoder_Init)
    HAL_TIM_Encoder_MspInit                  0x08002ca1   Thumb Code   122  tim.o(i.HAL_TIM_Encoder_MspInit)
    HAL_TIM_Encoder_Start                    0x08002d2d   Thumb Code   142  stm32f1xx_hal_tim.o(i.HAL_TIM_Encoder_Start)
    HAL_TIM_MspPostInit                      0x08002dbd   Thumb Code    64  tim.o(i.HAL_TIM_MspPostInit)
    HAL_TIM_PWM_ConfigChannel                0x08002e09   Thumb Code   204  stm32f1xx_hal_tim.o(i.HAL_TIM_PWM_ConfigChannel)
    HAL_TIM_PWM_Init                         0x08002ed5   Thumb Code    90  stm32f1xx_hal_tim.o(i.HAL_TIM_PWM_Init)
    HAL_TIM_PWM_MspInit                      0x08002f31   Thumb Code    30  tim.o(i.HAL_TIM_PWM_MspInit)
    HAL_TIM_PWM_Start                        0x08002f59   Thumb Code   144  stm32f1xx_hal_tim.o(i.HAL_TIM_PWM_Start)
    HAL_UARTEx_RxEventCallback               0x08002ff5   Thumb Code     2  stm32f1xx_hal_uart.o(i.HAL_UARTEx_RxEventCallback)
    HAL_UART_ErrorCallback                   0x08002ff7   Thumb Code     2  stm32f1xx_hal_uart.o(i.HAL_UART_ErrorCallback)
    HAL_UART_IRQHandler                      0x08002ff9   Thumb Code   616  stm32f1xx_hal_uart.o(i.HAL_UART_IRQHandler)
    HAL_UART_Init                            0x08003265   Thumb Code   100  stm32f1xx_hal_uart.o(i.HAL_UART_Init)
    HAL_UART_MspInit                         0x080032c9   Thumb Code   116  usart.o(i.HAL_UART_MspInit)
    HAL_UART_Receive_IT                      0x08003349   Thumb Code    28  stm32f1xx_hal_uart.o(i.HAL_UART_Receive_IT)
    HAL_UART_RxCpltCallback                  0x08003365   Thumb Code     2  stm32f1xx_hal_uart.o(i.HAL_UART_RxCpltCallback)
    HAL_UART_Transmit                        0x08003367   Thumb Code   160  stm32f1xx_hal_uart.o(i.HAL_UART_Transmit)
    HAL_UART_TxCpltCallback                  0x08003407   Thumb Code     2  stm32f1xx_hal_uart.o(i.HAL_UART_TxCpltCallback)
    HardFault_Handler                        0x08003409   Thumb Code     2  stm32f1xx_it.o(i.HardFault_Handler)
    IIC_Ack                                  0x080036dd   Thumb Code    60  iic.o(i.IIC_Ack)
    IIC_GPIO_Init                            0x08003729   Thumb Code    50  iic.o(i.IIC_GPIO_Init)
    IIC_NAck                                 0x08003765   Thumb Code    50  iic.o(i.IIC_NAck)
    IIC_Read_Byte                            0x0800379d   Thumb Code    84  iic.o(i.IIC_Read_Byte)
    IIC_Send_Byte                            0x080037f5   Thumb Code    86  iic.o(i.IIC_Send_Byte)
    IIC_Start                                0x08003851   Thumb Code    60  iic.o(i.IIC_Start)
    IIC_Stop                                 0x08003891   Thumb Code    42  iic.o(i.IIC_Stop)
    IIC_Wait_Ack                             0x080038c1   Thumb Code    66  iic.o(i.IIC_Wait_Ack)
    Limit                                    0x08003909   Thumb Code    42  motor.o(i.Limit)
    Load                                     0x08003935   Thumb Code   116  motor.o(i.Load)
    MPU_Get_Accelerometer                    0x080039b1   Thumb Code    50  mpu6050.o(i.MPU_Get_Accelerometer)
    MPU_Get_Gyroscope                        0x080039e3   Thumb Code    50  mpu6050.o(i.MPU_Get_Gyroscope)
    MPU_Init                                 0x08003a15   Thumb Code   118  mpu6050.o(i.MPU_Init)
    MPU_Read_Byte                            0x08003a8b   Thumb Code    58  mpu6050.o(i.MPU_Read_Byte)
    MPU_Read_Len                             0x08003ac5   Thumb Code   108  mpu6050.o(i.MPU_Read_Len)
    MPU_Set_Accel_Fsr                        0x08003b31   Thumb Code    10  mpu6050.o(i.MPU_Set_Accel_Fsr)
    MPU_Set_Gyro_Fsr                         0x08003b3b   Thumb Code    10  mpu6050.o(i.MPU_Set_Gyro_Fsr)
    MPU_Set_LPF                              0x08003b45   Thumb Code    48  mpu6050.o(i.MPU_Set_LPF)
    MPU_Set_Rate                             0x08003b75   Thumb Code    46  mpu6050.o(i.MPU_Set_Rate)
    MPU_Write_Byte                           0x08003ba3   Thumb Code    60  mpu6050.o(i.MPU_Write_Byte)
    MPU_Write_Len                            0x08003bdf   Thumb Code    82  mpu6050.o(i.MPU_Write_Len)
    MX_ADC1_Init                             0x08003c31   Thumb Code    70  adc.o(i.MX_ADC1_Init)
    MX_GPIO_Init                             0x08003c81   Thumb Code   210  gpio.o(i.MX_GPIO_Init)
    MX_I2C1_Init                             0x08003d69   Thumb Code    50  i2c.o(i.MX_I2C1_Init)
    MX_TIM1_Init                             0x08003da9   Thumb Code   170  tim.o(i.MX_TIM1_Init)
    MX_TIM2_Init                             0x08003e5d   Thumb Code   100  tim.o(i.MX_TIM2_Init)
    MX_TIM3_Init                             0x08003ec5   Thumb Code    94  tim.o(i.MX_TIM3_Init)
    MX_TIM4_Init                             0x08003f2d   Thumb Code    98  tim.o(i.MX_TIM4_Init)
    MX_USART3_UART_Init                      0x08003f99   Thumb Code    48  usart.o(i.MX_USART3_UART_Init)
    MemManage_Handler                        0x08003fd1   Thumb Code     2  stm32f1xx_it.o(i.MemManage_Handler)
    NMI_Handler                              0x08003fd3   Thumb Code     2  stm32f1xx_it.o(i.NMI_Handler)
    OLED_Clear                               0x08003fd5   Thumb Code    52  oled.o(i.OLED_Clear)
    OLED_Init                                0x08004009   Thumb Code    16  oled.o(i.OLED_Init)
    OLED_Set_Pos                             0x08004019   Thumb Code    34  oled.o(i.OLED_Set_Pos)
    OLED_ShowChar                            0x0800403d   Thumb Code   126  oled.o(i.OLED_ShowChar)
    OLED_ShowString                          0x080040c5   Thumb Code    54  oled.o(i.OLED_ShowString)
    OLED_WR_CMD                              0x080040fd   Thumb Code    32  oled.o(i.OLED_WR_CMD)
    OLED_WR_DATA                             0x08004121   Thumb Code    32  oled.o(i.OLED_WR_DATA)
    PendSV_Handler                           0x08004145   Thumb Code     2  stm32f1xx_it.o(i.PendSV_Handler)
    RCCdelay_us                              0x08004147   Thumb Code    24  sr04.o(i.RCCdelay_us)
    ReadEncoder                              0x08004161   Thumb Code    44  main.o(i.ReadEncoder)
    Read_Speed                               0x080041a5   Thumb Code    12  encoder.o(i.Read_Speed)
    SVC_Handler                              0x080041b1   Thumb Code     2  stm32f1xx_it.o(i.SVC_Handler)
    Stop                                     0x080041b5   Thumb Code    42  motor.o(i.Stop)
    SysTick_Handler                          0x080041e5   Thumb Code     4  stm32f1xx_it.o(i.SysTick_Handler)
    SystemClock_Config                       0x080041e9   Thumb Code   120  main.o(i.SystemClock_Config)
    SystemInit                               0x08004261   Thumb Code     2  system_stm32f1xx.o(i.SystemInit)
    TIM_Base_SetConfig                       0x08004265   Thumb Code   108  stm32f1xx_hal_tim.o(i.TIM_Base_SetConfig)
    TIM_CCxChannelCmd                        0x080042dd   Thumb Code    26  stm32f1xx_hal_tim.o(i.TIM_CCxChannelCmd)
    TIM_ETR_SetConfig                        0x080042f7   Thumb Code    20  stm32f1xx_hal_tim.o(i.TIM_ETR_SetConfig)
    TIM_OC2_SetConfig                        0x0800436d   Thumb Code    84  stm32f1xx_hal_tim.o(i.TIM_OC2_SetConfig)
    Turn                                     0x080044a9   Thumb Code    40  pid.o(i.Turn)
    UART_Start_Receive_IT                    0x080046ad   Thumb Code    54  stm32f1xx_hal_uart.o(i.UART_Start_Receive_IT)
    USART3_IRQHandler                        0x08004755   Thumb Code    88  stm32f1xx_it.o(i.USART3_IRQHandler)
    UsageFault_Handler                       0x080047b5   Thumb Code     2  stm32f1xx_it.o(i.UsageFault_Handler)
    Velocity                                 0x080047b9   Thumb Code   174  pid.o(i.Velocity)
    Vertical                                 0x08004871   Thumb Code    48  pid.o(i.Vertical)
    WriteCmd                                 0x080048a5   Thumb Code    42  oled.o(i.WriteCmd)
    __ARM_fpclassify                         0x080048d9   Thumb Code    40  fpclassify.o(i.__ARM_fpclassify)
    __kernel_poly                            0x08004921   Thumb Code   170  poly.o(i.__kernel_poly)
    __mathlib_dbl_infnan                     0x080049cb   Thumb Code     6  dunder.o(i.__mathlib_dbl_infnan)
    __mathlib_dbl_infnan2                    0x080049d1   Thumb Code     4  dunder.o(i.__mathlib_dbl_infnan2)
    __mathlib_dbl_invalid                    0x080049d5   Thumb Code    12  dunder.o(i.__mathlib_dbl_invalid)
    __mathlib_dbl_underflow                  0x080049e1   Thumb Code    10  dunder.o(i.__mathlib_dbl_underflow)
    _is_digit                                0x080049f1   Thumb Code    14  __printf_wp.o(i._is_digit)
    asin                                     0x08004a81   Thumb Code   572  asin.o(i.asin)
    atan                                     0x08004cf1   Thumb Code   474  atan.o(i.atan)
    atan2                                    0x08004f11   Thumb Code   374  atan2.o(i.atan2)
    dmp_enable_6x_lp_quat                    0x080050ad   Thumb Code    58  inv_mpu_dmp_motion_driver.o(i.dmp_enable_6x_lp_quat)
    dmp_enable_feature                       0x080050e9   Thumb Code   464  inv_mpu_dmp_motion_driver.o(i.dmp_enable_feature)
    dmp_enable_gyro_cal                      0x080052c1   Thumb Code    34  inv_mpu_dmp_motion_driver.o(i.dmp_enable_gyro_cal)
    dmp_enable_lp_quat                       0x080052fd   Thumb Code    58  inv_mpu_dmp_motion_driver.o(i.dmp_enable_lp_quat)
    dmp_load_motion_driver_firmware          0x08005339   Thumb Code    16  inv_mpu_dmp_motion_driver.o(i.dmp_load_motion_driver_firmware)
    dmp_read_fifo                            0x0800534d   Thumb Code   352  inv_mpu_dmp_motion_driver.o(i.dmp_read_fifo)
    dmp_set_accel_bias                       0x080054b1   Thumb Code   210  inv_mpu_dmp_motion_driver.o(i.dmp_set_accel_bias)
    dmp_set_fifo_rate                        0x08005589   Thumb Code    82  inv_mpu_dmp_motion_driver.o(i.dmp_set_fifo_rate)
    dmp_set_gyro_bias                        0x080055ed   Thumb Code   196  inv_mpu_dmp_motion_driver.o(i.dmp_set_gyro_bias)
    dmp_set_orientation                      0x080056b9   Thumb Code   246  inv_mpu_dmp_motion_driver.o(i.dmp_set_orientation)
    dmp_set_shake_reject_thresh              0x080057c5   Thumb Code    48  inv_mpu_dmp_motion_driver.o(i.dmp_set_shake_reject_thresh)
    dmp_set_shake_reject_time                0x080057f5   Thumb Code    32  inv_mpu_dmp_motion_driver.o(i.dmp_set_shake_reject_time)
    dmp_set_shake_reject_timeout             0x08005815   Thumb Code    32  inv_mpu_dmp_motion_driver.o(i.dmp_set_shake_reject_timeout)
    dmp_set_tap_axes                         0x08005835   Thumb Code    64  inv_mpu_dmp_motion_driver.o(i.dmp_set_tap_axes)
    dmp_set_tap_count                        0x08005875   Thumb Code    34  inv_mpu_dmp_motion_driver.o(i.dmp_set_tap_count)
    dmp_set_tap_thresh                       0x08005899   Thumb Code   274  inv_mpu_dmp_motion_driver.o(i.dmp_set_tap_thresh)
    dmp_set_tap_time                         0x080059c1   Thumb Code    32  inv_mpu_dmp_motion_driver.o(i.dmp_set_tap_time)
    dmp_set_tap_time_multi                   0x080059e1   Thumb Code    32  inv_mpu_dmp_motion_driver.o(i.dmp_set_tap_time_multi)
    inv_orientation_matrix_to_scalar         0x08005e95   Thumb Code    34  inv_mpu.o(i.inv_orientation_matrix_to_scalar)
    inv_row_2_scale                          0x08005eb7   Thumb Code    72  inv_mpu.o(i.inv_row_2_scale)
    main                                     0x08005f01   Thumb Code   338  main.o(i.main)
    mget_ms                                  0x080060e5   Thumb Code     2  inv_mpu.o(i.mget_ms)
    mpu_configure_fifo                       0x080060e9   Thumb Code    78  inv_mpu.o(i.mpu_configure_fifo)
    mpu_dmp_get_data                         0x0800613d   Thumb Code   408  inv_mpu.o(i.mpu_dmp_get_data)
    mpu_dmp_init                             0x080062d9   Thumb Code   152  inv_mpu.o(i.mpu_dmp_init)
    mpu_get_accel_fsr                        0x08006375   Thumb Code    54  inv_mpu.o(i.mpu_get_accel_fsr)
    mpu_get_accel_sens                       0x080063b1   Thumb Code    62  inv_mpu.o(i.mpu_get_accel_sens)
    mpu_get_gyro_fsr                         0x080063f5   Thumb Code    48  inv_mpu.o(i.mpu_get_gyro_fsr)
    mpu_get_gyro_sens                        0x08006429   Thumb Code    44  inv_mpu.o(i.mpu_get_gyro_sens)
    mpu_get_lpf                              0x08006469   Thumb Code    52  inv_mpu.o(i.mpu_get_lpf)
    mpu_get_sample_rate                      0x080064a1   Thumb Code    22  inv_mpu.o(i.mpu_get_sample_rate)
    mpu_init                                 0x080064bd   Thumb Code   288  inv_mpu.o(i.mpu_init)
    mpu_load_firmware                        0x080065e1   Thumb Code   154  inv_mpu.o(i.mpu_load_firmware)
    mpu_lp_accel_mode                        0x08006681   Thumb Code   178  inv_mpu.o(i.mpu_lp_accel_mode)
    mpu_read_fifo_stream                     0x08006739   Thumb Code   140  inv_mpu.o(i.mpu_read_fifo_stream)
    mpu_read_mem                             0x080067c9   Thumb Code    80  inv_mpu.o(i.mpu_read_mem)
    mpu_reset_fifo                           0x0800681d   Thumb Code   346  inv_mpu.o(i.mpu_reset_fifo)
    mpu_run_self_test                        0x0800697d   Thumb Code   234  inv_mpu.o(i.mpu_run_self_test)
    mpu_set_accel_fsr                        0x08006a6d   Thumb Code    98  inv_mpu.o(i.mpu_set_accel_fsr)
    mpu_set_bypass                           0x08006ad5   Thumb Code   214  inv_mpu.o(i.mpu_set_bypass)
    mpu_set_dmp_state                        0x08006bb1   Thumb Code   114  inv_mpu.o(i.mpu_set_dmp_state)
    mpu_set_gyro_fsr                         0x08006c29   Thumb Code   104  inv_mpu.o(i.mpu_set_gyro_fsr)
    mpu_set_int_latched                      0x08006c95   Thumb Code    94  inv_mpu.o(i.mpu_set_int_latched)
    mpu_set_lpf                              0x08006cf9   Thumb Code   102  inv_mpu.o(i.mpu_set_lpf)
    mpu_set_sample_rate                      0x08006d65   Thumb Code   124  inv_mpu.o(i.mpu_set_sample_rate)
    mpu_set_sensors                          0x08006de5   Thumb Code   178  inv_mpu.o(i.mpu_set_sensors)
    mpu_write_mem                            0x08006e9d   Thumb Code    80  inv_mpu.o(i.mpu_write_mem)
    run_self_test                            0x08006ef1   Thumb Code   128  inv_mpu.o(i.run_self_test)
    sqrt                                     0x08006fc9   Thumb Code    76  sqrt.o(i.sqrt)
    _get_lc_numeric                          0x08007015   Thumb Code    44  lc_numeric_c.o(locale$$code)
    __aeabi_d2f                              0x08007041   Thumb Code     0  d2f.o(x$fpl$d2f)
    _d2f                                     0x08007041   Thumb Code    98  d2f.o(x$fpl$d2f)
    __aeabi_dadd                             0x080070a5   Thumb Code     0  daddsub_clz.o(x$fpl$dadd)
    _dadd                                    0x080070a5   Thumb Code   332  daddsub_clz.o(x$fpl$dadd)
    __fpl_dcheck_NaN1                        0x080071f5   Thumb Code    10  dcheck1.o(x$fpl$dcheck1)
    __fpl_dcmp_Inf                           0x08007205   Thumb Code    24  dcmpi.o(x$fpl$dcmpinf)
    __aeabi_ddiv                             0x0800721d   Thumb Code     0  ddiv.o(x$fpl$ddiv)
    _ddiv                                    0x0800721d   Thumb Code   552  ddiv.o(x$fpl$ddiv)
    __aeabi_cdcmpeq                          0x080074cd   Thumb Code     0  deqf.o(x$fpl$deqf)
    _dcmpeq                                  0x080074cd   Thumb Code   120  deqf.o(x$fpl$deqf)
    __aeabi_ui2d                             0x08007545   Thumb Code     0  dflt_clz.o(x$fpl$dfltu)
    _dfltu                                   0x08007545   Thumb Code    38  dflt_clz.o(x$fpl$dfltu)
    __aeabi_dmul                             0x0800756d   Thumb Code     0  dmul.o(x$fpl$dmul)
    _dmul                                    0x0800756d   Thumb Code   332  dmul.o(x$fpl$dmul)
    __fpl_dnaninf                            0x080076c1   Thumb Code   156  dnaninf.o(x$fpl$dnaninf)
    __fpl_dretinf                            0x0800775d   Thumb Code    12  dretinf.o(x$fpl$dretinf)
    __aeabi_drsub                            0x08007769   Thumb Code     0  daddsub_clz.o(x$fpl$drsb)
    _drsb                                    0x08007769   Thumb Code    22  daddsub_clz.o(x$fpl$drsb)
    _dsqrt                                   0x08007781   Thumb Code   456  dsqrt_noumaal.o(x$fpl$dsqrt)
    __aeabi_dsub                             0x0800794d   Thumb Code     0  daddsub_clz.o(x$fpl$dsub)
    _dsub                                    0x0800794d   Thumb Code   464  daddsub_clz.o(x$fpl$dsub)
    __aeabi_f2d                              0x08007b21   Thumb Code     0  f2d.o(x$fpl$f2d)
    _f2d                                     0x08007b21   Thumb Code    86  f2d.o(x$fpl$f2d)
    __aeabi_fadd                             0x08007b79   Thumb Code     0  faddsub_clz.o(x$fpl$fadd)
    _fadd                                    0x08007b79   Thumb Code   196  faddsub_clz.o(x$fpl$fadd)
    __fpl_fcheck_NaN1                        0x08007c3d   Thumb Code     6  fcheck1.o(x$fpl$fcheck1)
    __aeabi_fdiv                             0x08007c49   Thumb Code     0  fdiv.o(x$fpl$fdiv)
    _fdiv                                    0x08007c49   Thumb Code   384  fdiv.o(x$fpl$fdiv)
    __aeabi_f2iz                             0x08007dcd   Thumb Code     0  ffix.o(x$fpl$ffix)
    _ffix                                    0x08007dcd   Thumb Code    54  ffix.o(x$fpl$ffix)
    __aeabi_f2uiz                            0x08007e05   Thumb Code     0  ffixu.o(x$fpl$ffixu)
    _ffixu                                   0x08007e05   Thumb Code    62  ffixu.o(x$fpl$ffixu)
    __aeabi_i2f                              0x08007e45   Thumb Code     0  fflt_clz.o(x$fpl$fflt)
    _fflt                                    0x08007e45   Thumb Code    48  fflt_clz.o(x$fpl$fflt)
    __aeabi_ui2f                             0x08007e75   Thumb Code     0  fflt_clz.o(x$fpl$ffltu)
    _ffltu                                   0x08007e75   Thumb Code    38  fflt_clz.o(x$fpl$ffltu)
    __aeabi_fmul                             0x08007e9d   Thumb Code     0  fmul.o(x$fpl$fmul)
    _fmul                                    0x08007e9d   Thumb Code   258  fmul.o(x$fpl$fmul)
    __fpl_fnaninf                            0x08007f9f   Thumb Code   140  fnaninf.o(x$fpl$fnaninf)
    __fpl_fretinf                            0x0800802b   Thumb Code    10  fretinf.o(x$fpl$fretinf)
    __aeabi_frsub                            0x08008035   Thumb Code     0  faddsub_clz.o(x$fpl$frsb)
    _frsb                                    0x08008035   Thumb Code    20  faddsub_clz.o(x$fpl$frsb)
    __aeabi_fsub                             0x08008049   Thumb Code     0  faddsub_clz.o(x$fpl$fsub)
    _fsub                                    0x08008049   Thumb Code   234  faddsub_clz.o(x$fpl$fsub)
    _printf_fp_dec                           0x08008133   Thumb Code     4  printf1.o(x$fpl$printf1)
    __fpl_return_NaN                         0x08008137   Thumb Code   100  retnan.o(x$fpl$retnan)
    __ARM_scalbn                             0x0800819b   Thumb Code    92  scalbn.o(x$fpl$scalbn)
    __ARM_scalbnf                            0x080081f7   Thumb Code    76  scalbnf.o(x$fpl$scalbnf)
    __fpl_cmpreturn                          0x08008243   Thumb Code    48  trapv.o(x$fpl$trapveneer)
    F6x8                                     0x08008272   Data         552  oled.o(.constdata)
    __I$use$fp                               0x08008272   Number         0  usenofp.o(x$fpl$usenofp)
    F8X16                                    0x0800849a   Data        1504  oled.o(.constdata)
    Hzk                                      0x08008a7a   Data         448  oled.o(.constdata)
    reg                                      0x08008c3a   Data          27  inv_mpu.o(.constdata)
    hw                                       0x08008c56   Data          12  inv_mpu.o(.constdata)
    test                                     0x08008c64   Data          40  inv_mpu.o(.constdata)
    AHBPrescTable                            0x08009894   Data          16  system_stm32f1xx.o(.constdata)
    APBPrescTable                            0x080098a4   Data           8  system_stm32f1xx.o(.constdata)
    __mathlib_zero                           0x080099a8   Data           8  qnan.o(.constdata)
    Region$$Table$$Base                      0x08009a44   Number         0  anon$$obj.o(Region$$Table)
    Region$$Table$$Limit                     0x08009a64   Number         0  anon$$obj.o(Region$$Table)
    CMD_Data                                 0x20000000   Data          27  oled.o(.data)
    count                                    0x20000054   Data           2  sr04.o(.data)
    distance                                 0x20000058   Data           4  sr04.o(.data)
    stop                                     0x2000005c   Data           1  pid.o(.data)
    aacx                                     0x2000005e   Data           2  pid.o(.data)
    aacy                                     0x20000060   Data           2  pid.o(.data)
    aacz                                     0x20000062   Data           2  pid.o(.data)
    gyrox                                    0x20000064   Data           2  pid.o(.data)
    gyroy                                    0x20000066   Data           2  pid.o(.data)
    gyroz                                    0x20000068   Data           2  pid.o(.data)
    Med_Angle                                0x2000006c   Data           4  pid.o(.data)
    Vertical_Kp                              0x20000070   Data           4  pid.o(.data)
    Vertical_Kd                              0x20000074   Data           4  pid.o(.data)
    Velocity_Kp                              0x20000078   Data           4  pid.o(.data)
    Velocity_Ki                              0x2000007c   Data           4  pid.o(.data)
    Turn_Kp                                  0x20000080   Data           4  pid.o(.data)
    Turn_Kd                                  0x20000084   Data           4  pid.o(.data)
    Encoder_Left                             0x20000094   Data           4  pid.o(.data)
    Encoder_Right                            0x20000098   Data           4  pid.o(.data)
    pitch                                    0x2000009c   Data           4  pid.o(.data)
    roll                                     0x200000a0   Data           4  pid.o(.data)
    yaw                                      0x200000a4   Data           4  pid.o(.data)
    Vertical_out                             0x200000a8   Data           4  pid.o(.data)
    Velocity_out                             0x200000ac   Data           4  pid.o(.data)
    Turn_out                                 0x200000b0   Data           4  pid.o(.data)
    Target_Speed                             0x200000b4   Data           4  pid.o(.data)
    Target_Turn                              0x200000b8   Data           4  pid.o(.data)
    MOTO1                                    0x200000bc   Data           4  pid.o(.data)
    MOTO2                                    0x200000c0   Data           4  pid.o(.data)
    sys_tick                                 0x200000c4   Data           4  main.o(.data)
    Bluetooth_data                           0x200000c8   Data           1  stm32f1xx_it.o(.data)
    Fore                                     0x200000c9   Data           1  stm32f1xx_it.o(.data)
    Back                                     0x200000ca   Data           1  stm32f1xx_it.o(.data)
    Left                                     0x200000cb   Data           1  stm32f1xx_it.o(.data)
    Right                                    0x200000cc   Data           1  stm32f1xx_it.o(.data)
    rx_buffer                                0x200000cd   Data           2  stm32f1xx_it.o(.data)
    uwTickFreq                               0x200000d0   Data           1  stm32f1xx_hal.o(.data)
    uwTickPrio                               0x200000d4   Data           4  stm32f1xx_hal.o(.data)
    uwTick                                   0x200000d8   Data           4  stm32f1xx_hal.o(.data)
    SystemCoreClock                          0x200000dc   Data           4  system_stm32f1xx.o(.data)
    display_buf                              0x200000f0   Data          20  main.o(.bss)
    hadc1                                    0x20000104   Data          48  adc.o(.bss)
    hi2c1                                    0x20000134   Data          84  i2c.o(.bss)
    htim1                                    0x20000188   Data          72  tim.o(.bss)
    htim2                                    0x200001d0   Data          72  tim.o(.bss)
    htim3                                    0x20000218   Data          72  tim.o(.bss)
    htim4                                    0x20000260   Data          72  tim.o(.bss)
    huart3                                   0x200002a8   Data          72  usart.o(.bss)
    __libspace_start                         0x200002f0   Data          96  libspace.o(.bss)
    __temporary_stack_top$libspace           0x20000350   Data           0  libspace.o(.bss)



==============================================================================

Memory Map of the image

  Image Entry point : 0x080000ed

  Load Region LR_IROM1 (Base: 0x08000000, Size: 0x00009b60, Max: 0x00010000, ABSOLUTE)

    Execution Region ER_IROM1 (Exec base: 0x08000000, Load base: 0x08000000, Size: 0x00009a80, Max: 0x00010000, ABSOLUTE)

    Exec Addr    Load Addr    Size         Type   Attr      Idx    E Section Name        Object

    0x08000000   0x08000000   0x000000ec   Data   RO            3    RESET               startup_stm32f103xb.o
    0x080000ec   0x080000ec   0x00000008   Code   RO         4797  * !!!main             c_w.l(__main.o)
    0x080000f4   0x080000f4   0x00000034   Code   RO         5163    !!!scatter          c_w.l(__scatter.o)
    0x08000128   0x08000128   0x0000001a   Code   RO         5165    !!handler_copy      c_w.l(__scatter_copy.o)
    0x08000142   0x08000142   0x00000002   PAD
    0x08000144   0x08000144   0x0000001c   Code   RO         5167    !!handler_zi        c_w.l(__scatter_zi.o)
    0x08000160   0x08000160   0x00000000   Code   RO         4788    .ARM.Collect$$_printf_percent$$00000000  c_w.l(_printf_percent.o)
    0x08000160   0x08000160   0x00000006   Code   RO         4787    .ARM.Collect$$_printf_percent$$00000003  c_w.l(_printf_f.o)
    0x08000166   0x08000166   0x00000006   Code   RO         4786    .ARM.Collect$$_printf_percent$$00000009  c_w.l(_printf_d.o)
    0x0800016c   0x0800016c   0x00000004   Code   RO         4882    .ARM.Collect$$_printf_percent$$00000017  c_w.l(_printf_percent_end.o)
    0x08000170   0x08000170   0x00000002   Code   RO         5028    .ARM.Collect$$libinit$$00000000  c_w.l(libinit.o)
    0x08000172   0x08000172   0x00000000   Code   RO         5030    .ARM.Collect$$libinit$$00000002  c_w.l(libinit2.o)
    0x08000172   0x08000172   0x00000000   Code   RO         5032    .ARM.Collect$$libinit$$00000004  c_w.l(libinit2.o)
    0x08000172   0x08000172   0x00000000   Code   RO         5035    .ARM.Collect$$libinit$$0000000A  c_w.l(libinit2.o)
    0x08000172   0x08000172   0x00000000   Code   RO         5037    .ARM.Collect$$libinit$$0000000C  c_w.l(libinit2.o)
    0x08000172   0x08000172   0x00000000   Code   RO         5039    .ARM.Collect$$libinit$$0000000E  c_w.l(libinit2.o)
    0x08000172   0x08000172   0x00000006   Code   RO         5040    .ARM.Collect$$libinit$$0000000F  c_w.l(libinit2.o)
    0x08000178   0x08000178   0x00000000   Code   RO         5042    .ARM.Collect$$libinit$$00000011  c_w.l(libinit2.o)
    0x08000178   0x08000178   0x00000000   Code   RO         5044    .ARM.Collect$$libinit$$00000013  c_w.l(libinit2.o)
    0x08000178   0x08000178   0x00000000   Code   RO         5046    .ARM.Collect$$libinit$$00000015  c_w.l(libinit2.o)
    0x08000178   0x08000178   0x0000000a   Code   RO         5047    .ARM.Collect$$libinit$$00000016  c_w.l(libinit2.o)
    0x08000182   0x08000182   0x00000000   Code   RO         5048    .ARM.Collect$$libinit$$00000017  c_w.l(libinit2.o)
    0x08000182   0x08000182   0x00000000   Code   RO         5050    .ARM.Collect$$libinit$$00000019  c_w.l(libinit2.o)
    0x08000182   0x08000182   0x00000000   Code   RO         5052    .ARM.Collect$$libinit$$0000001B  c_w.l(libinit2.o)
    0x08000182   0x08000182   0x00000000   Code   RO         5054    .ARM.Collect$$libinit$$0000001D  c_w.l(libinit2.o)
    0x08000182   0x08000182   0x00000000   Code   RO         5056    .ARM.Collect$$libinit$$0000001F  c_w.l(libinit2.o)
    0x08000182   0x08000182   0x00000000   Code   RO         5058    .ARM.Collect$$libinit$$00000021  c_w.l(libinit2.o)
    0x08000182   0x08000182   0x00000000   Code   RO         5060    .ARM.Collect$$libinit$$00000023  c_w.l(libinit2.o)
    0x08000182   0x08000182   0x00000000   Code   RO         5062    .ARM.Collect$$libinit$$00000025  c_w.l(libinit2.o)
    0x08000182   0x08000182   0x00000000   Code   RO         5066    .ARM.Collect$$libinit$$0000002C  c_w.l(libinit2.o)
    0x08000182   0x08000182   0x00000000   Code   RO         5068    .ARM.Collect$$libinit$$0000002E  c_w.l(libinit2.o)
    0x08000182   0x08000182   0x00000000   Code   RO         5070    .ARM.Collect$$libinit$$00000030  c_w.l(libinit2.o)
    0x08000182   0x08000182   0x00000000   Code   RO         5072    .ARM.Collect$$libinit$$00000032  c_w.l(libinit2.o)
    0x08000182   0x08000182   0x00000002   Code   RO         5073    .ARM.Collect$$libinit$$00000033  c_w.l(libinit2.o)
    0x08000184   0x08000184   0x00000002   Code   RO         5119    .ARM.Collect$$libshutdown$$00000000  c_w.l(libshutdown.o)
    0x08000186   0x08000186   0x00000000   Code   RO         5130    .ARM.Collect$$libshutdown$$00000002  c_w.l(libshutdown2.o)
    0x08000186   0x08000186   0x00000000   Code   RO         5132    .ARM.Collect$$libshutdown$$00000004  c_w.l(libshutdown2.o)
    0x08000186   0x08000186   0x00000000   Code   RO         5134    .ARM.Collect$$libshutdown$$00000006  c_w.l(libshutdown2.o)
    0x08000186   0x08000186   0x00000000   Code   RO         5137    .ARM.Collect$$libshutdown$$00000009  c_w.l(libshutdown2.o)
    0x08000186   0x08000186   0x00000000   Code   RO         5140    .ARM.Collect$$libshutdown$$0000000C  c_w.l(libshutdown2.o)
    0x08000186   0x08000186   0x00000000   Code   RO         5142    .ARM.Collect$$libshutdown$$0000000E  c_w.l(libshutdown2.o)
    0x08000186   0x08000186   0x00000000   Code   RO         5145    .ARM.Collect$$libshutdown$$00000011  c_w.l(libshutdown2.o)
    0x08000186   0x08000186   0x00000002   Code   RO         5146    .ARM.Collect$$libshutdown$$00000012  c_w.l(libshutdown2.o)
    0x08000188   0x08000188   0x00000000   Code   RO         4869    .ARM.Collect$$rtentry$$00000000  c_w.l(__rtentry.o)
    0x08000188   0x08000188   0x00000000   Code   RO         4938    .ARM.Collect$$rtentry$$00000002  c_w.l(__rtentry2.o)
    0x08000188   0x08000188   0x00000006   Code   RO         4950    .ARM.Collect$$rtentry$$00000004  c_w.l(__rtentry4.o)
    0x0800018e   0x0800018e   0x00000000   Code   RO         4940    .ARM.Collect$$rtentry$$00000009  c_w.l(__rtentry2.o)
    0x0800018e   0x0800018e   0x00000004   Code   RO         4941    .ARM.Collect$$rtentry$$0000000A  c_w.l(__rtentry2.o)
    0x08000192   0x08000192   0x00000000   Code   RO         4943    .ARM.Collect$$rtentry$$0000000C  c_w.l(__rtentry2.o)
    0x08000192   0x08000192   0x00000008   Code   RO         4944    .ARM.Collect$$rtentry$$0000000D  c_w.l(__rtentry2.o)
    0x0800019a   0x0800019a   0x00000002   Code   RO         5076    .ARM.Collect$$rtexit$$00000000  c_w.l(rtexit.o)
    0x0800019c   0x0800019c   0x00000000   Code   RO         5087    .ARM.Collect$$rtexit$$00000002  c_w.l(rtexit2.o)
    0x0800019c   0x0800019c   0x00000004   Code   RO         5088    .ARM.Collect$$rtexit$$00000003  c_w.l(rtexit2.o)
    0x080001a0   0x080001a0   0x00000006   Code   RO         5089    .ARM.Collect$$rtexit$$00000004  c_w.l(rtexit2.o)
    0x080001a6   0x080001a6   0x00000002   PAD
    0x080001a8   0x080001a8   0x00000040   Code   RO            4    .text               startup_stm32f103xb.o
    0x080001e8   0x080001e8   0x00000048   Code   RO         4754    .text               c_w.l(llsdiv.o)
    0x08000230   0x08000230   0x00000028   Code   RO         4758    .text               c_w.l(noretval__2sprintf.o)
    0x08000258   0x08000258   0x0000004e   Code   RO         4762    .text               c_w.l(_printf_pad.o)
    0x080002a6   0x080002a6   0x00000002   PAD
    0x080002a8   0x080002a8   0x00000078   Code   RO         4764    .text               c_w.l(_printf_dec.o)
    0x08000320   0x08000320   0x00000138   Code   RO         4778    .text               c_w.l(__printf_flags_wp.o)
    0x08000458   0x08000458   0x00000058   Code   RO         4789    .text               c_w.l(memcmp.o)
    0x080004b0   0x080004b0   0x00000010   Code   RO         4791    .text               c_w.l(aeabi_memset.o)
    0x080004c0   0x080004c0   0x0000004e   Code   RO         4793    .text               c_w.l(rt_memclr_w.o)
    0x0800050e   0x0800050e   0x00000006   Code   RO         4795    .text               c_w.l(heapauxi.o)
    0x08000514   0x08000514   0x000000ee   Code   RO         4870    .text               c_w.l(lludivv7m.o)
    0x08000602   0x08000602   0x00000016   Code   RO         4872    .text               c_w.l(_rserrno.o)
    0x08000618   0x08000618   0x000000b2   Code   RO         4874    .text               c_w.l(_printf_intcommon.o)
    0x080006ca   0x080006ca   0x0000041e   Code   RO         4876    .text               c_w.l(_printf_fp_dec.o)
    0x08000ae8   0x08000ae8   0x00000030   Code   RO         4878    .text               c_w.l(_printf_char_common.o)
    0x08000b18   0x08000b18   0x0000000a   Code   RO         4880    .text               c_w.l(_sputc.o)
    0x08000b22   0x08000b22   0x00000044   Code   RO         4883    .text               c_w.l(rt_memclr.o)
    0x08000b66   0x08000b66   0x00000002   PAD
    0x08000b68   0x08000b68   0x00000008   Code   RO         4959    .text               c_w.l(rt_locale_intlibspace.o)
    0x08000b70   0x08000b70   0x00000008   Code   RO         4964    .text               c_w.l(rt_errno_addr_intlibspace.o)
    0x08000b78   0x08000b78   0x0000008a   Code   RO         4966    .text               c_w.l(lludiv10.o)
    0x08000c02   0x08000c02   0x00000002   PAD
    0x08000c04   0x08000c04   0x00000080   Code   RO         4968    .text               c_w.l(_printf_fp_infnan.o)
    0x08000c84   0x08000c84   0x000000e4   Code   RO         4972    .text               c_w.l(bigflt0.o)
    0x08000d68   0x08000d68   0x00000008   Code   RO         5012    .text               c_w.l(libspace.o)
    0x08000d70   0x08000d70   0x0000004a   Code   RO         5015    .text               c_w.l(sys_stackheap_outer.o)
    0x08000dba   0x08000dba   0x00000012   Code   RO         5019    .text               c_w.l(exit.o)
    0x08000dcc   0x08000dcc   0x00000080   Code   RO         5021    .text               c_w.l(strcmpv7m.o)
    0x08000e4c   0x08000e4c   0x0000000c   Code   RO         5105    .text               c_w.l(sys_exit.o)
    0x08000e58   0x08000e58   0x00000002   Code   RO         5122    .text               c_w.l(use_no_semi.o)
    0x08000e5a   0x08000e5a   0x00000000   Code   RO         5124    .text               c_w.l(indicate_semi.o)
    0x08000e5a   0x08000e5a   0x0000003e   Code   RO         4975    CL$$btod_d2e        c_w.l(btod.o)
    0x08000e98   0x08000e98   0x00000046   Code   RO         4977    CL$$btod_d2e_denorm_low  c_w.l(btod.o)
    0x08000ede   0x08000ede   0x00000060   Code   RO         4976    CL$$btod_d2e_norm_op1  c_w.l(btod.o)
    0x08000f3e   0x08000f3e   0x00000338   Code   RO         4985    CL$$btod_div_common  c_w.l(btod.o)
    0x08001276   0x08001276   0x000000dc   Code   RO         4982    CL$$btod_e2e        c_w.l(btod.o)
    0x08001352   0x08001352   0x0000002a   Code   RO         4979    CL$$btod_ediv       c_w.l(btod.o)
    0x0800137c   0x0800137c   0x0000002a   Code   RO         4978    CL$$btod_emul       c_w.l(btod.o)
    0x080013a6   0x080013a6   0x00000244   Code   RO         4984    CL$$btod_mult_common  c_w.l(btod.o)
    0x080015ea   0x080015ea   0x00000002   PAD
    0x080015ec   0x080015ec   0x00000056   Code   RO         1689    i.ADC_ConversionStop_Disable  stm32f1xx_hal_adc.o
    0x08001642   0x08001642   0x00000002   PAD
    0x08001644   0x08001644   0x0000007c   Code   RO         1693    i.ADC_Enable        stm32f1xx_hal_adc.o
    0x080016c0   0x080016c0   0x00000002   Code   RO         1532    i.BusFault_Handler  stm32f1xx_it.o
    0x080016c2   0x080016c2   0x00000002   PAD
    0x080016c4   0x080016c4   0x00000168   Code   RO         1155    i.Control           pid.o
    0x0800182c   0x0800182c   0x00000002   Code   RO         1533    i.DebugMon_Handler  stm32f1xx_it.o
    0x0800182e   0x0800182e   0x00000006   Code   RO         1534    i.EXTI2_IRQHandler  stm32f1xx_it.o
    0x08001834   0x08001834   0x00000006   Code   RO         1535    i.EXTI9_5_IRQHandler  stm32f1xx_it.o
    0x0800183a   0x0800183a   0x00000004   Code   RO         1217    i.Error_Handler     main.o
    0x0800183e   0x0800183e   0x00000002   PAD
    0x08001840   0x08001840   0x00000028   Code   RO         1037    i.GET_Distance      sr04.o
    0x08001868   0x08001868   0x000000fc   Code   RO         1695    i.HAL_ADC_ConfigChannel  stm32f1xx_hal_adc.o
    0x08001964   0x08001964   0x00000006   Code   RO         1702    i.HAL_ADC_GetValue  stm32f1xx_hal_adc.o
    0x0800196a   0x0800196a   0x00000002   PAD
    0x0800196c   0x0800196c   0x0000011c   Code   RO         1704    i.HAL_ADC_Init      stm32f1xx_hal_adc.o
    0x08001a88   0x08001a88   0x00000058   Code   RO         1317    i.HAL_ADC_MspInit   adc.o
    0x08001ae0   0x08001ae0   0x000000c0   Code   RO         1710    i.HAL_ADC_Start     stm32f1xx_hal_adc.o
    0x08001ba0   0x08001ba0   0x00000046   Code   RO         2346    i.HAL_DMA_Abort     stm32f1xx_hal_dma.o
    0x08001be6   0x08001be6   0x00000002   PAD
    0x08001be8   0x08001be8   0x00000098   Code   RO         2347    i.HAL_DMA_Abort_IT  stm32f1xx_hal_dma.o
    0x08001c80   0x08001c80   0x00000024   Code   RO         1972    i.HAL_Delay         stm32f1xx_hal.o
    0x08001ca4   0x08001ca4   0x00000068   Code   RO         1038    i.HAL_GPIO_EXTI_Callback  sr04.o
    0x08001d0c   0x08001d0c   0x00000018   Code   RO         2281    i.HAL_GPIO_EXTI_IRQHandler  stm32f1xx_hal_gpio.o
    0x08001d24   0x08001d24   0x000001e0   Code   RO         2282    i.HAL_GPIO_Init     stm32f1xx_hal_gpio.o
    0x08001f04   0x08001f04   0x0000000a   Code   RO         2284    i.HAL_GPIO_ReadPin  stm32f1xx_hal_gpio.o
    0x08001f0e   0x08001f0e   0x0000000a   Code   RO         2286    i.HAL_GPIO_WritePin  stm32f1xx_hal_gpio.o
    0x08001f18   0x08001f18   0x0000000c   Code   RO         1976    i.HAL_GetTick       stm32f1xx_hal.o
    0x08001f24   0x08001f24   0x00000188   Code   RO         2953    i.HAL_I2C_Init      stm32f1xx_hal_i2c.o
    0x080020ac   0x080020ac   0x00000130   Code   RO         2974    i.HAL_I2C_Mem_Write  stm32f1xx_hal_i2c.o
    0x080021dc   0x080021dc   0x00000070   Code   RO         1359    i.HAL_I2C_MspInit   i2c.o
    0x0800224c   0x0800224c   0x00000010   Code   RO         1982    i.HAL_IncTick       stm32f1xx_hal.o
    0x0800225c   0x0800225c   0x00000024   Code   RO         1983    i.HAL_Init          stm32f1xx_hal.o
    0x08002280   0x08002280   0x00000040   Code   RO         1984    i.HAL_InitTick      stm32f1xx_hal.o
    0x080022c0   0x080022c0   0x0000003c   Code   RO         1629    i.HAL_MspInit       stm32f1xx_hal_msp.o
    0x080022fc   0x080022fc   0x0000001a   Code   RO         2442    i.HAL_NVIC_EnableIRQ  stm32f1xx_hal_cortex.o
    0x08002316   0x08002316   0x00000002   PAD
    0x08002318   0x08002318   0x00000040   Code   RO         2448    i.HAL_NVIC_SetPriority  stm32f1xx_hal_cortex.o
    0x08002358   0x08002358   0x00000024   Code   RO         2449    i.HAL_NVIC_SetPriorityGrouping  stm32f1xx_hal_cortex.o
    0x0800237c   0x0800237c   0x000000ec   Code   RO         2244    i.HAL_RCCEx_PeriphCLKConfig  stm32f1xx_hal_rcc_ex.o
    0x08002468   0x08002468   0x0000012c   Code   RO         2140    i.HAL_RCC_ClockConfig  stm32f1xx_hal_rcc.o
    0x08002594   0x08002594   0x00000020   Code   RO         2147    i.HAL_RCC_GetPCLK1Freq  stm32f1xx_hal_rcc.o
    0x080025b4   0x080025b4   0x00000020   Code   RO         2148    i.HAL_RCC_GetPCLK2Freq  stm32f1xx_hal_rcc.o
    0x080025d4   0x080025d4   0x0000004c   Code   RO         2149    i.HAL_RCC_GetSysClockFreq  stm32f1xx_hal_rcc.o
    0x08002620   0x08002620   0x00000320   Code   RO         2152    i.HAL_RCC_OscConfig  stm32f1xx_hal_rcc.o
    0x08002940   0x08002940   0x00000028   Code   RO         2453    i.HAL_SYSTICK_Config  stm32f1xx_hal_cortex.o
    0x08002968   0x08002968   0x00000054   Code   RO         4088    i.HAL_TIMEx_ConfigBreakDeadTime  stm32f1xx_hal_tim_ex.o
    0x080029bc   0x080029bc   0x00000068   Code   RO         4104    i.HAL_TIMEx_MasterConfigSynchronization  stm32f1xx_hal_tim_ex.o
    0x08002a24   0x08002a24   0x0000005a   Code   RO         3381    i.HAL_TIM_Base_Init  stm32f1xx_hal_tim.o
    0x08002a7e   0x08002a7e   0x00000002   PAD
    0x08002a80   0x08002a80   0x00000028   Code   RO         1401    i.HAL_TIM_Base_MspInit  tim.o
    0x08002aa8   0x08002aa8   0x00000050   Code   RO         3384    i.HAL_TIM_Base_Start  stm32f1xx_hal_tim.o
    0x08002af8   0x08002af8   0x00000026   Code   RO         3387    i.HAL_TIM_Base_Stop  stm32f1xx_hal_tim.o
    0x08002b1e   0x08002b1e   0x000000dc   Code   RO         3390    i.HAL_TIM_ConfigClockSource  stm32f1xx_hal_tim.o
    0x08002bfa   0x08002bfa   0x000000a4   Code   RO         3402    i.HAL_TIM_Encoder_Init  stm32f1xx_hal_tim.o
    0x08002c9e   0x08002c9e   0x00000002   PAD
    0x08002ca0   0x08002ca0   0x0000008c   Code   RO         1403    i.HAL_TIM_Encoder_MspInit  tim.o
    0x08002d2c   0x08002d2c   0x0000008e   Code   RO         3405    i.HAL_TIM_Encoder_Start  stm32f1xx_hal_tim.o
    0x08002dba   0x08002dba   0x00000002   PAD
    0x08002dbc   0x08002dbc   0x0000004c   Code   RO         1404    i.HAL_TIM_MspPostInit  tim.o
    0x08002e08   0x08002e08   0x000000cc   Code   RO         3453    i.HAL_TIM_PWM_ConfigChannel  stm32f1xx_hal_tim.o
    0x08002ed4   0x08002ed4   0x0000005a   Code   RO         3456    i.HAL_TIM_PWM_Init  stm32f1xx_hal_tim.o
    0x08002f2e   0x08002f2e   0x00000002   PAD
    0x08002f30   0x08002f30   0x00000028   Code   RO         1406    i.HAL_TIM_PWM_MspInit  tim.o
    0x08002f58   0x08002f58   0x0000009c   Code   RO         3461    i.HAL_TIM_PWM_Start  stm32f1xx_hal_tim.o
    0x08002ff4   0x08002ff4   0x00000002   Code   RO         4364    i.HAL_UARTEx_RxEventCallback  stm32f1xx_hal_uart.o
    0x08002ff6   0x08002ff6   0x00000002   Code   RO         4378    i.HAL_UART_ErrorCallback  stm32f1xx_hal_uart.o
    0x08002ff8   0x08002ff8   0x0000026c   Code   RO         4381    i.HAL_UART_IRQHandler  stm32f1xx_hal_uart.o
    0x08003264   0x08003264   0x00000064   Code   RO         4382    i.HAL_UART_Init     stm32f1xx_hal_uart.o
    0x080032c8   0x080032c8   0x00000080   Code   RO         1491    i.HAL_UART_MspInit  usart.o
    0x08003348   0x08003348   0x0000001c   Code   RO         4387    i.HAL_UART_Receive_IT  stm32f1xx_hal_uart.o
    0x08003364   0x08003364   0x00000002   Code   RO         4388    i.HAL_UART_RxCpltCallback  stm32f1xx_hal_uart.o
    0x08003366   0x08003366   0x000000a0   Code   RO         4390    i.HAL_UART_Transmit  stm32f1xx_hal_uart.o
    0x08003406   0x08003406   0x00000002   Code   RO         4393    i.HAL_UART_TxCpltCallback  stm32f1xx_hal_uart.o
    0x08003408   0x08003408   0x00000002   Code   RO         1536    i.HardFault_Handler  stm32f1xx_it.o
    0x0800340a   0x0800340a   0x0000002e   Code   RO         2996    i.I2C_IsAcknowledgeFailed  stm32f1xx_hal_i2c.o
    0x08003438   0x08003438   0x000000a8   Code   RO         3007    i.I2C_RequestMemoryWrite  stm32f1xx_hal_i2c.o
    0x080034e0   0x080034e0   0x00000056   Code   RO         3011    i.I2C_WaitOnBTFFlagUntilTimeout  stm32f1xx_hal_i2c.o
    0x08003536   0x08003536   0x00000002   PAD
    0x08003538   0x08003538   0x00000090   Code   RO         3012    i.I2C_WaitOnFlagUntilTimeout  stm32f1xx_hal_i2c.o
    0x080035c8   0x080035c8   0x000000bc   Code   RO         3013    i.I2C_WaitOnMasterAddressFlagUntilTimeout  stm32f1xx_hal_i2c.o
    0x08003684   0x08003684   0x00000056   Code   RO         3015    i.I2C_WaitOnTXEFlagUntilTimeout  stm32f1xx_hal_i2c.o
    0x080036da   0x080036da   0x00000002   PAD
    0x080036dc   0x080036dc   0x00000040   Code   RO          223    i.IIC_Ack           iic.o
    0x0800371c   0x0800371c   0x0000000c   Code   RO          225    i.IIC_Delay         iic.o
    0x08003728   0x08003728   0x0000003c   Code   RO          226    i.IIC_GPIO_Init     iic.o
    0x08003764   0x08003764   0x00000038   Code   RO          227    i.IIC_NAck          iic.o
    0x0800379c   0x0800379c   0x00000058   Code   RO          228    i.IIC_Read_Byte     iic.o
    0x080037f4   0x080037f4   0x0000005c   Code   RO          229    i.IIC_Send_Byte     iic.o
    0x08003850   0x08003850   0x00000040   Code   RO          230    i.IIC_Start         iic.o
    0x08003890   0x08003890   0x00000030   Code   RO          231    i.IIC_Stop          iic.o
    0x080038c0   0x080038c0   0x00000048   Code   RO          232    i.IIC_Wait_Ack      iic.o
    0x08003908   0x08003908   0x0000002a   Code   RO         1082    i.Limit             motor.o
    0x08003932   0x08003932   0x00000002   PAD
    0x08003934   0x08003934   0x0000007c   Code   RO         1083    i.Load              motor.o
    0x080039b0   0x080039b0   0x00000032   Code   RO          855    i.MPU_Get_Accelerometer  mpu6050.o
    0x080039e2   0x080039e2   0x00000032   Code   RO          856    i.MPU_Get_Gyroscope  mpu6050.o
    0x08003a14   0x08003a14   0x00000076   Code   RO          858    i.MPU_Init          mpu6050.o
    0x08003a8a   0x08003a8a   0x0000003a   Code   RO          859    i.MPU_Read_Byte     mpu6050.o
    0x08003ac4   0x08003ac4   0x0000006c   Code   RO          860    i.MPU_Read_Len      mpu6050.o
    0x08003b30   0x08003b30   0x0000000a   Code   RO          861    i.MPU_Set_Accel_Fsr  mpu6050.o
    0x08003b3a   0x08003b3a   0x0000000a   Code   RO          862    i.MPU_Set_Gyro_Fsr  mpu6050.o
    0x08003b44   0x08003b44   0x00000030   Code   RO          863    i.MPU_Set_LPF       mpu6050.o
    0x08003b74   0x08003b74   0x0000002e   Code   RO          864    i.MPU_Set_Rate      mpu6050.o
    0x08003ba2   0x08003ba2   0x0000003c   Code   RO          865    i.MPU_Write_Byte    mpu6050.o
    0x08003bde   0x08003bde   0x00000052   Code   RO          866    i.MPU_Write_Len     mpu6050.o
    0x08003c30   0x08003c30   0x00000050   Code   RO         1318    i.MX_ADC1_Init      adc.o
    0x08003c80   0x08003c80   0x000000e8   Code   RO         1292    i.MX_GPIO_Init      gpio.o
    0x08003d68   0x08003d68   0x00000040   Code   RO         1360    i.MX_I2C1_Init      i2c.o
    0x08003da8   0x08003da8   0x000000b4   Code   RO         1407    i.MX_TIM1_Init      tim.o
    0x08003e5c   0x08003e5c   0x00000068   Code   RO         1408    i.MX_TIM2_Init      tim.o
    0x08003ec4   0x08003ec4   0x00000068   Code   RO         1409    i.MX_TIM3_Init      tim.o
    0x08003f2c   0x08003f2c   0x0000006c   Code   RO         1410    i.MX_TIM4_Init      tim.o
    0x08003f98   0x08003f98   0x00000038   Code   RO         1492    i.MX_USART3_UART_Init  usart.o
    0x08003fd0   0x08003fd0   0x00000002   Code   RO         1537    i.MemManage_Handler  stm32f1xx_it.o
    0x08003fd2   0x08003fd2   0x00000002   Code   RO         1538    i.NMI_Handler       stm32f1xx_it.o
    0x08003fd4   0x08003fd4   0x00000034   Code   RO           13    i.OLED_Clear        oled.o
    0x08004008   0x08004008   0x00000010   Code   RO           16    i.OLED_Init         oled.o
    0x08004018   0x08004018   0x00000022   Code   RO           18    i.OLED_Set_Pos      oled.o
    0x0800403a   0x0800403a   0x00000002   PAD
    0x0800403c   0x0800403c   0x00000088   Code   RO           20    i.OLED_ShowChar     oled.o
    0x080040c4   0x080040c4   0x00000036   Code   RO           22    i.OLED_ShowString   oled.o
    0x080040fa   0x080040fa   0x00000002   PAD
    0x080040fc   0x080040fc   0x00000024   Code   RO           23    i.OLED_WR_CMD       oled.o
    0x08004120   0x08004120   0x00000024   Code   RO           24    i.OLED_WR_DATA      oled.o
    0x08004144   0x08004144   0x00000002   Code   RO         1539    i.PendSV_Handler    stm32f1xx_it.o
    0x08004146   0x08004146   0x00000018   Code   RO         1039    i.RCCdelay_us       sr04.o
    0x0800415e   0x0800415e   0x00000002   PAD
    0x08004160   0x08004160   0x00000044   Code   RO         1218    i.ReadEncoder       main.o
    0x080041a4   0x080041a4   0x0000000c   Code   RO         1128    i.Read_Speed        encoder.o
    0x080041b0   0x080041b0   0x00000002   Code   RO         1540    i.SVC_Handler       stm32f1xx_it.o
    0x080041b2   0x080041b2   0x00000002   PAD
    0x080041b4   0x080041b4   0x00000030   Code   RO         1084    i.Stop              motor.o
    0x080041e4   0x080041e4   0x00000004   Code   RO         1541    i.SysTick_Handler   stm32f1xx_it.o
    0x080041e8   0x080041e8   0x00000078   Code   RO         1219    i.SystemClock_Config  main.o
    0x08004260   0x08004260   0x00000002   Code   RO         4716    i.SystemInit        system_stm32f1xx.o
    0x08004262   0x08004262   0x00000002   PAD
    0x08004264   0x08004264   0x00000078   Code   RO         3474    i.TIM_Base_SetConfig  stm32f1xx_hal_tim.o
    0x080042dc   0x080042dc   0x0000001a   Code   RO         3475    i.TIM_CCxChannelCmd  stm32f1xx_hal_tim.o
    0x080042f6   0x080042f6   0x00000014   Code   RO         3485    i.TIM_ETR_SetConfig  stm32f1xx_hal_tim.o
    0x0800430a   0x0800430a   0x00000010   Code   RO         3486    i.TIM_ITRx_SetConfig  stm32f1xx_hal_tim.o
    0x0800431a   0x0800431a   0x00000002   PAD
    0x0800431c   0x0800431c   0x00000050   Code   RO         3487    i.TIM_OC1_SetConfig  stm32f1xx_hal_tim.o
    0x0800436c   0x0800436c   0x00000058   Code   RO         3488    i.TIM_OC2_SetConfig  stm32f1xx_hal_tim.o
    0x080043c4   0x080043c4   0x00000058   Code   RO         3489    i.TIM_OC3_SetConfig  stm32f1xx_hal_tim.o
    0x0800441c   0x0800441c   0x00000044   Code   RO         3490    i.TIM_OC4_SetConfig  stm32f1xx_hal_tim.o
    0x08004460   0x08004460   0x00000022   Code   RO         3492    i.TIM_TI1_ConfigInputStage  stm32f1xx_hal_tim.o
    0x08004482   0x08004482   0x00000024   Code   RO         3494    i.TIM_TI2_ConfigInputStage  stm32f1xx_hal_tim.o
    0x080044a6   0x080044a6   0x00000002   PAD
    0x080044a8   0x080044a8   0x0000002c   Code   RO         1156    i.Turn              pid.o
    0x080044d4   0x080044d4   0x00000010   Code   RO         4395    i.UART_DMAAbortOnError  stm32f1xx_hal_uart.o
    0x080044e4   0x080044e4   0x0000004e   Code   RO         4405    i.UART_EndRxTransfer  stm32f1xx_hal_uart.o
    0x08004532   0x08004532   0x000000c2   Code   RO         4407    i.UART_Receive_IT   stm32f1xx_hal_uart.o
    0x080045f4   0x080045f4   0x000000b8   Code   RO         4408    i.UART_SetConfig    stm32f1xx_hal_uart.o
    0x080046ac   0x080046ac   0x00000036   Code   RO         4410    i.UART_Start_Receive_IT  stm32f1xx_hal_uart.o
    0x080046e2   0x080046e2   0x00000072   Code   RO         4411    i.UART_WaitOnFlagUntilTimeout  stm32f1xx_hal_uart.o
    0x08004754   0x08004754   0x00000060   Code   RO         1542    i.USART3_IRQHandler  stm32f1xx_it.o
    0x080047b4   0x080047b4   0x00000002   Code   RO         1543    i.UsageFault_Handler  stm32f1xx_it.o
    0x080047b6   0x080047b6   0x00000002   PAD
    0x080047b8   0x080047b8   0x000000b8   Code   RO         1157    i.Velocity          pid.o
    0x08004870   0x08004870   0x00000034   Code   RO         1158    i.Vertical          pid.o
    0x080048a4   0x080048a4   0x00000034   Code   RO           25    i.WriteCmd          oled.o
    0x080048d8   0x080048d8   0x00000028   Code   RO         4924    i.__ARM_fpclassify  m_ws.l(fpclassify.o)
    0x08004900   0x08004900   0x00000020   Code   RO         2455    i.__NVIC_SetPriority  stm32f1xx_hal_cortex.o
    0x08004920   0x08004920   0x000000aa   Code   RO         4926    i.__kernel_poly     m_ws.l(poly.o)
    0x080049ca   0x080049ca   0x00000006   Code   RO         4911    i.__mathlib_dbl_infnan  m_ws.l(dunder.o)
    0x080049d0   0x080049d0   0x00000004   Code   RO         4912    i.__mathlib_dbl_infnan2  m_ws.l(dunder.o)
    0x080049d4   0x080049d4   0x0000000c   Code   RO         4913    i.__mathlib_dbl_invalid  m_ws.l(dunder.o)
    0x080049e0   0x080049e0   0x00000010   Code   RO         4916    i.__mathlib_dbl_underflow  m_ws.l(dunder.o)
    0x080049f0   0x080049f0   0x0000000e   Code   RO         4776    i._is_digit         c_w.l(__printf_wp.o)
    0x080049fe   0x080049fe   0x00000002   PAD
    0x08004a00   0x08004a00   0x00000080   Code   RO          306    i.accel_self_test   inv_mpu.o
    0x08004a80   0x08004a80   0x00000270   Code   RO         4852    i.asin              m_ws.l(asin.o)
    0x08004cf0   0x08004cf0   0x00000220   Code   RO         4901    i.atan              m_ws.l(atan.o)
    0x08004f10   0x08004f10   0x0000019c   Code   RO         4862    i.atan2             m_ws.l(atan2.o)
    0x080050ac   0x080050ac   0x0000003a   Code   RO          666    i.dmp_enable_6x_lp_quat  inv_mpu_dmp_motion_driver.o
    0x080050e6   0x080050e6   0x00000002   PAD
    0x080050e8   0x080050e8   0x000001d8   Code   RO          667    i.dmp_enable_feature  inv_mpu_dmp_motion_driver.o
    0x080052c0   0x080052c0   0x0000003c   Code   RO          668    i.dmp_enable_gyro_cal  inv_mpu_dmp_motion_driver.o
    0x080052fc   0x080052fc   0x0000003a   Code   RO          669    i.dmp_enable_lp_quat  inv_mpu_dmp_motion_driver.o
    0x08005336   0x08005336   0x00000002   PAD
    0x08005338   0x08005338   0x00000014   Code   RO          674    i.dmp_load_motion_driver_firmware  inv_mpu_dmp_motion_driver.o
    0x0800534c   0x0800534c   0x00000164   Code   RO          675    i.dmp_read_fifo     inv_mpu_dmp_motion_driver.o
    0x080054b0   0x080054b0   0x000000d8   Code   RO          678    i.dmp_set_accel_bias  inv_mpu_dmp_motion_driver.o
    0x08005588   0x08005588   0x00000064   Code   RO          679    i.dmp_set_fifo_rate  inv_mpu_dmp_motion_driver.o
    0x080055ec   0x080055ec   0x000000cc   Code   RO          680    i.dmp_set_gyro_bias  inv_mpu_dmp_motion_driver.o
    0x080056b8   0x080056b8   0x0000010c   Code   RO          682    i.dmp_set_orientation  inv_mpu_dmp_motion_driver.o
    0x080057c4   0x080057c4   0x00000030   Code   RO          685    i.dmp_set_shake_reject_thresh  inv_mpu_dmp_motion_driver.o
    0x080057f4   0x080057f4   0x00000020   Code   RO          686    i.dmp_set_shake_reject_time  inv_mpu_dmp_motion_driver.o
    0x08005814   0x08005814   0x00000020   Code   RO          687    i.dmp_set_shake_reject_timeout  inv_mpu_dmp_motion_driver.o
    0x08005834   0x08005834   0x00000040   Code   RO          688    i.dmp_set_tap_axes  inv_mpu_dmp_motion_driver.o
    0x08005874   0x08005874   0x00000022   Code   RO          689    i.dmp_set_tap_count  inv_mpu_dmp_motion_driver.o
    0x08005896   0x08005896   0x00000002   PAD
    0x08005898   0x08005898   0x00000128   Code   RO          690    i.dmp_set_tap_thresh  inv_mpu_dmp_motion_driver.o
    0x080059c0   0x080059c0   0x00000020   Code   RO          691    i.dmp_set_tap_time  inv_mpu_dmp_motion_driver.o
    0x080059e0   0x080059e0   0x00000020   Code   RO          692    i.dmp_set_tap_time_multi  inv_mpu_dmp_motion_driver.o
    0x08005a00   0x08005a00   0x000000ac   Code   RO          307    i.get_accel_prod_shift  inv_mpu.o
    0x08005aac   0x08005aac   0x00000314   Code   RO          308    i.get_st_biases     inv_mpu.o
    0x08005dc0   0x08005dc0   0x000000d4   Code   RO          309    i.gyro_self_test    inv_mpu.o
    0x08005e94   0x08005e94   0x00000022   Code   RO          310    i.inv_orientation_matrix_to_scalar  inv_mpu.o
    0x08005eb6   0x08005eb6   0x00000048   Code   RO          311    i.inv_row_2_scale   inv_mpu.o
    0x08005efe   0x08005efe   0x00000002   PAD
    0x08005f00   0x08005f00   0x000001e4   Code   RO         1220    i.main              main.o
    0x080060e4   0x080060e4   0x00000002   Code   RO          312    i.mget_ms           inv_mpu.o
    0x080060e6   0x080060e6   0x00000002   PAD
    0x080060e8   0x080060e8   0x00000054   Code   RO          313    i.mpu_configure_fifo  inv_mpu.o
    0x0800613c   0x0800613c   0x0000019c   Code   RO          314    i.mpu_dmp_get_data  inv_mpu.o
    0x080062d8   0x080062d8   0x0000009c   Code   RO          315    i.mpu_dmp_init      inv_mpu.o
    0x08006374   0x08006374   0x0000003c   Code   RO          316    i.mpu_get_accel_fsr  inv_mpu.o
    0x080063b0   0x080063b0   0x00000044   Code   RO          318    i.mpu_get_accel_sens  inv_mpu.o
    0x080063f4   0x080063f4   0x00000034   Code   RO          324    i.mpu_get_gyro_fsr  inv_mpu.o
    0x08006428   0x08006428   0x00000040   Code   RO          326    i.mpu_get_gyro_sens  inv_mpu.o
    0x08006468   0x08006468   0x00000038   Code   RO          328    i.mpu_get_lpf       inv_mpu.o
    0x080064a0   0x080064a0   0x0000001c   Code   RO          330    i.mpu_get_sample_rate  inv_mpu.o
    0x080064bc   0x080064bc   0x00000124   Code   RO          332    i.mpu_init          inv_mpu.o
    0x080065e0   0x080065e0   0x000000a0   Code   RO          333    i.mpu_load_firmware  inv_mpu.o
    0x08006680   0x08006680   0x000000b8   Code   RO          334    i.mpu_lp_accel_mode  inv_mpu.o
    0x08006738   0x08006738   0x00000090   Code   RO          337    i.mpu_read_fifo_stream  inv_mpu.o
    0x080067c8   0x080067c8   0x00000054   Code   RO          338    i.mpu_read_mem      inv_mpu.o
    0x0800681c   0x0800681c   0x00000160   Code   RO          341    i.mpu_reset_fifo    inv_mpu.o
    0x0800697c   0x0800697c   0x000000f0   Code   RO          342    i.mpu_run_self_test  inv_mpu.o
    0x08006a6c   0x08006a6c   0x00000068   Code   RO          344    i.mpu_set_accel_fsr  inv_mpu.o
    0x08006ad4   0x08006ad4   0x000000dc   Code   RO          345    i.mpu_set_bypass    inv_mpu.o
    0x08006bb0   0x08006bb0   0x00000078   Code   RO          347    i.mpu_set_dmp_state  inv_mpu.o
    0x08006c28   0x08006c28   0x0000006c   Code   RO          348    i.mpu_set_gyro_fsr  inv_mpu.o
    0x08006c94   0x08006c94   0x00000064   Code   RO          349    i.mpu_set_int_latched  inv_mpu.o
    0x08006cf8   0x08006cf8   0x0000006c   Code   RO          351    i.mpu_set_lpf       inv_mpu.o
    0x08006d64   0x08006d64   0x00000080   Code   RO          352    i.mpu_set_sample_rate  inv_mpu.o
    0x08006de4   0x08006de4   0x000000b8   Code   RO          353    i.mpu_set_sensors   inv_mpu.o
    0x08006e9c   0x08006e9c   0x00000054   Code   RO          354    i.mpu_write_mem     inv_mpu.o
    0x08006ef0   0x08006ef0   0x00000080   Code   RO          355    i.run_self_test     inv_mpu.o
    0x08006f70   0x08006f70   0x00000058   Code   RO          356    i.set_int_enable    inv_mpu.o
    0x08006fc8   0x08006fc8   0x0000004c   Code   RO         4930    i.sqrt              m_ws.l(sqrt.o)
    0x08007014   0x08007014   0x0000002c   Code   RO         4998    locale$$code        c_w.l(lc_numeric_c.o)
    0x08007040   0x08007040   0x00000062   Code   RO         4799    x$fpl$d2f           fz_ws.l(d2f.o)
    0x080070a2   0x080070a2   0x00000002   PAD
    0x080070a4   0x080070a4   0x00000150   Code   RO         4801    x$fpl$dadd          fz_ws.l(daddsub_clz.o)
    0x080071f4   0x080071f4   0x00000010   Code   RO         5000    x$fpl$dcheck1       fz_ws.l(dcheck1.o)
    0x08007204   0x08007204   0x00000018   Code   RO         5002    x$fpl$dcmpinf       fz_ws.l(dcmpi.o)
    0x0800721c   0x0800721c   0x000002b0   Code   RO         4808    x$fpl$ddiv          fz_ws.l(ddiv.o)
    0x080074cc   0x080074cc   0x00000078   Code   RO         4885    x$fpl$deqf          fz_ws.l(deqf.o)
    0x08007544   0x08007544   0x00000026   Code   RO         4811    x$fpl$dfltu         fz_ws.l(dflt_clz.o)
    0x0800756a   0x0800756a   0x00000002   PAD
    0x0800756c   0x0800756c   0x00000154   Code   RO         4817    x$fpl$dmul          fz_ws.l(dmul.o)
    0x080076c0   0x080076c0   0x0000009c   Code   RO         4887    x$fpl$dnaninf       fz_ws.l(dnaninf.o)
    0x0800775c   0x0800775c   0x0000000c   Code   RO         4889    x$fpl$dretinf       fz_ws.l(dretinf.o)
    0x08007768   0x08007768   0x00000016   Code   RO         4802    x$fpl$drsb          fz_ws.l(daddsub_clz.o)
    0x0800777e   0x0800777e   0x00000002   PAD
    0x08007780   0x08007780   0x000001cc   Code   RO         5006    x$fpl$dsqrt         fz_ws.l(dsqrt_noumaal.o)
    0x0800794c   0x0800794c   0x000001d4   Code   RO         4803    x$fpl$dsub          fz_ws.l(daddsub_clz.o)
    0x08007b20   0x08007b20   0x00000056   Code   RO         4819    x$fpl$f2d           fz_ws.l(f2d.o)
    0x08007b76   0x08007b76   0x00000002   PAD
    0x08007b78   0x08007b78   0x000000c4   Code   RO         4821    x$fpl$fadd          fz_ws.l(faddsub_clz.o)
    0x08007c3c   0x08007c3c   0x0000000c   Code   RO         4891    x$fpl$fcheck1       fz_ws.l(fcheck1.o)
    0x08007c48   0x08007c48   0x00000184   Code   RO         4828    x$fpl$fdiv          fz_ws.l(fdiv.o)
    0x08007dcc   0x08007dcc   0x00000036   Code   RO         4831    x$fpl$ffix          fz_ws.l(ffix.o)
    0x08007e02   0x08007e02   0x00000002   PAD
    0x08007e04   0x08007e04   0x0000003e   Code   RO         4835    x$fpl$ffixu         fz_ws.l(ffixu.o)
    0x08007e42   0x08007e42   0x00000002   PAD
    0x08007e44   0x08007e44   0x00000030   Code   RO         4840    x$fpl$fflt          fz_ws.l(fflt_clz.o)
    0x08007e74   0x08007e74   0x00000026   Code   RO         4839    x$fpl$ffltu         fz_ws.l(fflt_clz.o)
    0x08007e9a   0x08007e9a   0x00000002   PAD
    0x08007e9c   0x08007e9c   0x00000102   Code   RO         4845    x$fpl$fmul          fz_ws.l(fmul.o)
    0x08007f9e   0x08007f9e   0x0000008c   Code   RO         4893    x$fpl$fnaninf       fz_ws.l(fnaninf.o)
    0x0800802a   0x0800802a   0x0000000a   Code   RO         4895    x$fpl$fretinf       fz_ws.l(fretinf.o)
    0x08008034   0x08008034   0x00000014   Code   RO         4822    x$fpl$frsb          fz_ws.l(faddsub_clz.o)
    0x08008048   0x08008048   0x000000ea   Code   RO         4823    x$fpl$fsub          fz_ws.l(faddsub_clz.o)
    0x08008132   0x08008132   0x00000004   Code   RO         4847    x$fpl$printf1       fz_ws.l(printf1.o)
    0x08008136   0x08008136   0x00000064   Code   RO         5010    x$fpl$retnan        fz_ws.l(retnan.o)
    0x0800819a   0x0800819a   0x0000005c   Code   RO         4897    x$fpl$scalbn        fz_ws.l(scalbn.o)
    0x080081f6   0x080081f6   0x0000004c   Code   RO         4849    x$fpl$scalbnf       fz_ws.l(scalbnf.o)
    0x08008242   0x08008242   0x00000030   Code   RO         5074    x$fpl$trapveneer    fz_ws.l(trapv.o)
    0x08008272   0x08008272   0x00000000   Code   RO         4899    x$fpl$usenofp       fz_ws.l(usenofp.o)
    0x08008272   0x08008272   0x000009c8   Data   RO           27    .constdata          oled.o
    0x08008c3a   0x08008c3a   0x0000001b   Data   RO          358    .constdata          inv_mpu.o
    0x08008c55   0x08008c55   0x00000001   PAD
    0x08008c56   0x08008c56   0x0000000c   Data   RO          359    .constdata          inv_mpu.o
    0x08008c62   0x08008c62   0x00000002   PAD
    0x08008c64   0x08008c64   0x00000028   Data   RO          360    .constdata          inv_mpu.o
    0x08008c8c   0x08008c8c   0x00000bf6   Data   RO          694    .constdata          inv_mpu_dmp_motion_driver.o
    0x08009882   0x08009882   0x00000012   Data   RO         2153    .constdata          stm32f1xx_hal_rcc.o
    0x08009894   0x08009894   0x00000010   Data   RO         4717    .constdata          system_stm32f1xx.o
    0x080098a4   0x080098a4   0x00000008   Data   RO         4718    .constdata          system_stm32f1xx.o
    0x080098ac   0x080098ac   0x00000011   Data   RO         4779    .constdata          c_w.l(__printf_flags_wp.o)
    0x080098bd   0x080098bd   0x00000003   PAD
    0x080098c0   0x080098c0   0x00000050   Data   RO         4853    .constdata          m_ws.l(asin.o)
    0x08009910   0x08009910   0x00000098   Data   RO         4902    .constdata          m_ws.l(atan.o)
    0x080099a8   0x080099a8   0x00000008   Data   RO         4928    .constdata          m_ws.l(qnan.o)
    0x080099b0   0x080099b0   0x00000094   Data   RO         4973    .constdata          c_w.l(bigflt0.o)
    0x08009a44   0x08009a44   0x00000020   Data   RO         5161    Region$$Table       anon$$obj.o
    0x08009a64   0x08009a64   0x0000001c   Data   RO         4997    locale$$data        c_w.l(lc_numeric_c.o)


    Execution Region RW_IRAM1 (Exec base: 0x20000000, Load base: 0x08009a80, Size: 0x00000950, Max: 0x00005000, ABSOLUTE)

    Exec Addr    Load Addr    Size         Type   Attr      Idx    E Section Name        Object

    0x20000000   0x08009a80   0x0000001b   Data   RW           28    .data               oled.o
    0x2000001b   0x08009a9b   0x00000001   PAD
    0x2000001c   0x08009a9c   0x00000035   Data   RW          361    .data               inv_mpu.o
    0x20000051   0x08009ad1   0x00000003   PAD
    0x20000054   0x08009ad4   0x00000008   Data   RW         1040    .data               sr04.o
    0x2000005c   0x08009adc   0x00000068   Data   RW         1159    .data               pid.o
    0x200000c4   0x08009b44   0x00000004   Data   RW         1222    .data               main.o
    0x200000c8   0x08009b48   0x00000007   Data   RW         1544    .data               stm32f1xx_it.o
    0x200000cf   0x08009b4f   0x00000001   PAD
    0x200000d0   0x08009b50   0x0000000c   Data   RW         1990    .data               stm32f1xx_hal.o
    0x200000dc   0x08009b5c   0x00000004   Data   RW         4719    .data               system_stm32f1xx.o
    0x200000e0        -       0x00000010   Zero   RW          693    .bss                inv_mpu_dmp_motion_driver.o
    0x200000f0        -       0x00000014   Zero   RW         1221    .bss                main.o
    0x20000104        -       0x00000030   Zero   RW         1319    .bss                adc.o
    0x20000134        -       0x00000054   Zero   RW         1361    .bss                i2c.o
    0x20000188        -       0x00000120   Zero   RW         1411    .bss                tim.o
    0x200002a8        -       0x00000048   Zero   RW         1493    .bss                usart.o
    0x200002f0        -       0x00000060   Zero   RW         5013    .bss                c_w.l(libspace.o)
    0x20000350        -       0x00000200   Zero   RW            2    HEAP                startup_stm32f103xb.o
    0x20000550        -       0x00000400   Zero   RW            1    STACK               startup_stm32f103xb.o


==============================================================================

Image component sizes


      Code (inc. data)   RO Data    RW Data    ZI Data      Debug   Object Name

       168         22          0          0         48       1513   adc.o
        12          0          0          0          0        717   encoder.o
       232         22          0          0          0        931   gpio.o
       176         30          0          0         84       1529   i2c.o
       556         46          0          0          0       4967   iic.o
      5216        210         79         53          0      28218   inv_mpu.o
      2382        118       3062          0         16      18522   inv_mpu_dmp_motion_driver.o
       676        170          0          4         20       3082   main.o
       214         14          0          0          0       1570   motor.o
       640          0          0          0          0     424637   mpu6050.o
       416         28       2504         27          0     453353   oled.o
       640         60          0        104          0       3544   pid.o
       168         26          0          8          0       1989   sr04.o
        64         26        236          0       1536        776   startup_stm32f103xb.o
       164         28          0         12          0       5633   stm32f1xx_hal.o
       944         42          0          0          0       5180   stm32f1xx_hal_adc.o
       198         14          0          0          0      28751   stm32f1xx_hal_cortex.o
       222          4          0          0          0       1671   stm32f1xx_hal_dma.o
       524         40          0          0          0       3942   stm32f1xx_hal_gpio.o
      1414         32          0          0          0       9079   stm32f1xx_hal_i2c.o
        60          8          0          0          0        802   stm32f1xx_hal_msp.o
      1240         84         18          0          0       4920   stm32f1xx_hal_rcc.o
       236         12          0          0          0       1316   stm32f1xx_hal_rcc_ex.o
      1760         58          0          0          0      14322   stm32f1xx_hal_tim.o
       188         12          0          0          0       2048   stm32f1xx_hal_tim_ex.o
      1556         10          0          0          0      10966   stm32f1xx_hal_uart.o
       128          8          0          7          0       5599   stm32f1xx_it.o
         2          0         24          4          0       1019   system_stm32f1xx.o
       792         84          0          0        288       5131   tim.o
       184         20          0          0         72       1558   usart.o

    ----------------------------------------------------------------------
     21224       1228       5958        224       2064    1047285   Object Totals
         0          0         32          0          0          0   (incl. Generated)
        52          0          3          5          0          0   (incl. Padding)

    ----------------------------------------------------------------------

      Code (inc. data)   RO Data    RW Data    ZI Data      Debug   Library Member Name

         8          0          0          0          0         68   __main.o
       312          4         17          0          0         92   __printf_flags_wp.o
        14          0          0          0          0         68   __printf_wp.o
         0          0          0          0          0          0   __rtentry.o
        12          0          0          0          0          0   __rtentry2.o
         6          0          0          0          0          0   __rtentry4.o
        52          8          0          0          0          0   __scatter.o
        26          0          0          0          0          0   __scatter_copy.o
        28          0          0          0          0          0   __scatter_zi.o
        48          6          0          0          0         96   _printf_char_common.o
         6          0          0          0          0          0   _printf_d.o
       120         16          0          0          0         92   _printf_dec.o
         6          0          0          0          0          0   _printf_f.o
      1054          0          0          0          0        216   _printf_fp_dec.o
       128         16          0          0          0         84   _printf_fp_infnan.o
       178          0          0          0          0         88   _printf_intcommon.o
        78          0          0          0          0        108   _printf_pad.o
         0          0          0          0          0          0   _printf_percent.o
         4          0          0          0          0          0   _printf_percent_end.o
        22          0          0          0          0        100   _rserrno.o
        10          0          0          0          0         68   _sputc.o
        16          0          0          0          0         68   aeabi_memset.o
       228          4        148          0          0         96   bigflt0.o
      1936        128          0          0          0        672   btod.o
        18          0          0          0          0         80   exit.o
         6          0          0          0          0        152   heapauxi.o
         0          0          0          0          0          0   indicate_semi.o
        44         10         28          0          0         76   lc_numeric_c.o
         2          0          0          0          0          0   libinit.o
        18          0          0          0          0          0   libinit2.o
         2          0          0          0          0          0   libshutdown.o
         2          0          0          0          0          0   libshutdown2.o
         8          4          0          0         96         68   libspace.o
        72          0          0          0          0         76   llsdiv.o
       138          0          0          0          0         80   lludiv10.o
       238          0          0          0          0        100   lludivv7m.o
        88          0          0          0          0         76   memcmp.o
        40          6          0          0          0         84   noretval__2sprintf.o
         8          4          0          0          0         68   rt_errno_addr_intlibspace.o
         8          4          0          0          0         68   rt_locale_intlibspace.o
        68          0          0          0          0         68   rt_memclr.o
        78          0          0          0          0         80   rt_memclr_w.o
         2          0          0          0          0          0   rtexit.o
        10          0          0          0          0          0   rtexit2.o
       128          0          0          0          0         68   strcmpv7m.o
        12          4          0          0          0         68   sys_exit.o
        74          0          0          0          0         80   sys_stackheap_outer.o
         2          0          0          0          0         68   use_no_semi.o
        98          4          0          0          0         92   d2f.o
       826         16          0          0          0        348   daddsub_clz.o
        16          4          0          0          0         68   dcheck1.o
        24          0          0          0          0         68   dcmpi.o
       688        140          0          0          0        208   ddiv.o
       120          4          0          0          0         92   deqf.o
        38          0          0          0          0         68   dflt_clz.o
       340         12          0          0          0        104   dmul.o
       156          4          0          0          0         92   dnaninf.o
        12          0          0          0          0         68   dretinf.o
       460         56          0          0          0        120   dsqrt_noumaal.o
        86          4          0          0          0         84   f2d.o
       450          8          0          0          0        236   faddsub_clz.o
        12          4          0          0          0         68   fcheck1.o
       388         76          0          0          0         96   fdiv.o
        54          4          0          0          0         84   ffix.o
        62          4          0          0          0         84   ffixu.o
        86          0          0          0          0        136   fflt_clz.o
       258          4          0          0          0         84   fmul.o
       140          4          0          0          0         84   fnaninf.o
        10          0          0          0          0         68   fretinf.o
         4          0          0          0          0         68   printf1.o
       100          0          0          0          0         68   retnan.o
        92          0          0          0          0         68   scalbn.o
        76          0          0          0          0         68   scalbnf.o
        48          0          0          0          0         68   trapv.o
         0          0          0          0          0          0   usenofp.o
       624         52         80          0          0        168   asin.o
       544         70        152          0          0        124   atan.o
       412         38          0          0          0        144   atan2.o
        38          6          0          0          0        272   dunder.o
        40          0          0          0          0         68   fpclassify.o
       170          0          0          0          0         96   poly.o
         0          0          8          0          0          0   qnan.o
        76          0          0          0          0         84   sqrt.o

    ----------------------------------------------------------------------
     11934        728        436          0         96       6924   Library Totals
        28          0          3          0          0          0   (incl. Padding)

    ----------------------------------------------------------------------

      Code (inc. data)   RO Data    RW Data    ZI Data      Debug   Library Name

      5358        214        193          0         96       3276   c_w.l
      4644        348          0          0          0       2692   fz_ws.l
      1904        166        240          0          0        956   m_ws.l

    ----------------------------------------------------------------------
     11934        728        436          0         96       6924   Library Totals

    ----------------------------------------------------------------------

==============================================================================


      Code (inc. data)   RO Data    RW Data    ZI Data      Debug   

     33158       1956       6394        224       2160    1040425   Grand Totals
     33158       1956       6394        224       2160    1040425   ELF Image Totals
     33158       1956       6394        224          0          0   ROM Totals

==============================================================================

    Total RO  Size (Code + RO Data)                39552 (  38.63kB)
    Total RW  Size (RW Data + ZI Data)              2384 (   2.33kB)
    Total ROM Size (Code + RO Data + RW Data)      39776 (  38.84kB)

==============================================================================

