:020000040800F2
:1000000050090020A9010008D33F00080934000866
:10001000D13F0008C1160008B547000800000000E5
:10002000000000000000000000000000B1410008D6
:100030002D1800080000000045410008E5410008B7
:10004000C3010008C3010008C3010008C301000880
:10005000C3010008C3010008C3010008C301000870
:100060002F180008C3010008C3010008C3010008DD
:10007000C3010008C3010008C3010008C301000850
:10008000C3010008C3010008C3010008C301000840
:10009000C3010008C3010008C301000835180008A7
:1000A000C3010008C3010008C3010008C301000820
:1000B000C3010008C3010008C3010008C301000810
:1000C000C3010008C3010008C3010008C301000800
:1000D000C3010008C3010008C30100085547000818
:1000E000C3010008C3010008C301000800F002F8C2
:1000F00000F04AF80AA090E8000C82448344AAF178
:100100000107DA4501D100F03FF8AFF2090EBAE875
:100110000F0013F0010F18BFFB1A43F0010318473B
:100120002499000044990000103A24BF78C878C18F
:10013000FAD8520724BF30C830C144BF04680C60ED
:10014000704700000023002400250026103A28BF35
:1001500078C1FBD8520728BF30C148BF0B60704739
:10016000662907F0E687642900F09E80002070472A
:100170001FB500F0F9FC04000020002106F04AFF42
:10018000E0601FBD10B510BD00F0F2FD1146FFF795
:10019000EFFF05F0B5FE00F010FE03B4FFF7F2FF2D
:1001A00003BC00F053FE000009488047094800479F
:1001B000FEE7FEE7FEE7FEE7FEE7FEE7FEE7FEE717
:1001C000FEE7FEE704480549054A064B7047000074
:1001D00061420008ED000008500300205009002093
:1001E000500500205005002010B54C1084EA53043F
:1001F00004D54042C1F1000138BF491E1B4204D55D
:100200005242C3F1000338BF5B1E00F083F914F0C3
:10021000804F04D04042C1F1000138BF491E14F0A4
:10022000004F04D05242C3F1000338BF5B1E10BD23
:100230000FB41CB5074B06AA7B446946009005988D
:1002400000F057FC0020694600F066FC1CBC5DF81D
:1002500014FB0000DD08000070B5044685690068E5
:10026000C10601D5302600E02026C00707D070BDAA
:10027000D4E9012130469047206A401C20626D1E5F
:10028000F6D570BD70B5044685690078C00707D102
:1002900070BDD4E9012120209047206A401C2062D3
:1002A0006D1EF6D570BD00002DE9F0410646002414
:1002B00010687529314616A510D0AFF300800028CC
:1002C00002DA404213A507E031688A0701D512A57A
:1002D00002E0490704D511A5012401E0AFF3008035
:1002E00000210A2206F1240709E0B0FBF2FCB0FB72
:1002F000F2F302FB1C00303078541846491C0028E9
:10030000F3D123462A463046BDE8F04100F084B9D7
:10031000000000002D0000002B0000002000000065
:100320002DE9F05F894604464FF0000ADFF824B15A
:10033000FB44C0F820A02046E168884700287DD013
:10034000252806D0D4E901219047206A401C20626C
:10035000F1E700255F462046E168884720280646E9
:1003600007DB312E05D2B81910F8200C08B105436F
:10037000F1E7A80701D525F00405C4F81CA0002763
:10038000C4F818A02A2E09D0304604F031FB38B347
:1003900004EB8708303EC8F8186019E059F8041BD0
:1003A000204604EB87029161E1688847012F0646E9
:1003B00018D1E069002820DA25F020051DE0D8F8E2
:1003C000180000EB800006EB40003038C8F8180039
:1003D0002046E1688847064604F00AFB0028EED173
:1003E000012F0AD02E2E08D12046E16888477F1CB5
:1003F0000646022F45F02005C4DBA069002803DA79
:10040000404245F00105A061E80701D025F0100544
:10041000A6B1A6F14100192802D8203645F400659E
:100420004A463146204625604D46FFF799FE60B1A9
:10043000012807D0ED1D25F0070000E007E000F1DE
:10044000080978E705F1040975E730467AE7206A7C
:10045000BDE8F09F7895000040EA010310B59B07C6
:100460000FD1042A0DD310C808C9121F9C42F8D01E
:1004700020BA19BA884201D9012010BD4FF0FF30CF
:1004800010BD1AB1D30703D0521C07E0002010BDE5
:1004900010F8013B11F8014B1B1B07D110F8013B71
:1004A00011F8014B1B1B01D1921EF1D1184610BD52
:1004B00002F0FF0343EA032242EA024200F033BBA8
:1004C0004FF0000200B5134694469646203922BFED
:1004D000A0E80C50A0E80C50B1F12001BFF4F7AF38
:1004E000090728BFA0E80C5048BF0CC05DF804EB1A
:1004F000890028BF40F8042B08BF704748BF20F888
:10050000022B11F0804F18BF00F8012B7047704785
:100510007047704753EA020C00F069802DE9F04BF8
:100520004FF00006002B1FBFB3FA83F503FA05F462
:1005300024FA05F65E4012BF1643B2FA82F502FABB
:1005400005F4C5F120051EBF22FA05FC44EA0C049F
:10055000203556EA044C4FEA144418BF641C4FF08F
:1005600000084FF00009904271EB030C39D30029C9
:1005700019BFB1FA81F701FA07F6B0FA80F700FA6D
:1005800007F6C7F120071EBF20FA07FC46EA0C0653
:100590002037B6FBF4FCA7EB0507103F07F01F0B55
:1005A000CBF120060CFA0BFB2CFA06F644BFB3463F
:1005B0000026202FA4BF5E464FF0000B5BEA060C1E
:1005C00008BF4FF0010B19EB0B09ABFB027C48EBAA
:1005D0000608C01B06FB02CC0BFB03CC71EB0C0125
:1005E000C1E70B46024641464846BDE8F08B13B5CD
:1005F0004FF000004FF00001AFF30080BDE81C4059
:10060000704710B500F0B4FA006810BD10B504468C
:1006100000F0AEFA046010BD2DE9F0470D46994692
:100620009246044600F124080168880604D5E06972
:1006300021F01001216000E00120A84201DD471BEC
:1006400000E00027A1697A1902EB0900081AA061ED
:100650002078C00602D42046FFF7FEFD002608E001
:10066000D4E901211AF806009047206A401C761C44
:1006700020624E45F4DB2078C0060AD52046FFF7FD
:10068000EBFD06E0D4E9012130209047206A401CB0
:100690002062381EA7F10107F4DC07E0D4E901214C
:1006A00018F805009047206A401C2062281EA5F11A
:1006B0000105F3DC2046FFF7E5FD2078000602D5B2
:1006C0000220BDE8F0870120FBE770472DE9FF4FCE
:1006D0000C461E464FF0FF378BB0D2E90001DDF823
:1006E00060800A908A46C1F30A5505B93D4600214B
:1006F00008464FF00000BAF1000F00F4400005DAA0
:1007000000EB80004FF4400101EA50004FEA90599D
:10071000B9F1010F00DDB9460A9850EA4A000ED03F
:1007200044F61050A5F2FF3545432F14B8F1000FE1
:100730001ED07542291E1EDDC9F100021CE0B8F171
:10074000010F4FF0000001D0302103E0F24305E03B
:100750002154401CB042FBDB3046002200212154D2
:100760000B99C1F80880C1E900200FB0BDE8F08FF7
:10077000BD1B6D1CDEE74A4600DA694206A800F0A0
:1007800081FA06AB93E8070003AB83E80700504605
:100790000A9900F062FB8DE80700A0F500501F38B1
:1007A00000900398002D0ADD42F21F014A460844DA
:1007B000002303A90390684600F0CBFD09E0A0F5F3
:1007C00000504A461F38002303A90390684600F0F2
:1007D000D5FD8DE807000004000C03D04FF0FF307A
:1007E000410800E01046B8F1000F03D0002200924B
:1007F00015461EE0751E05D400F0BEF93032625574
:100800006D1EF9D5B3460122084302D000227F1C99
:1008100004E02078302801D100227F1E002A0997A9
:1008200084D01DE0112D07DA00F0A6F930326255B0
:100830006D1C50EA0102F5D1084302D00098C8B1FE
:100840000EE00021681E05E0235C625C63542254C4
:10085000401E491C8142F7DBAB46A81B401E099095
:10086000002004F80B000B98099AC0F80880C0E932
:10087000002B7AE711264FF0000857E72DE9F04FDB
:1008800088460446D21D22F0070191B0D1E900014B
:10089000CDE90A0104F020F802460B98C00F01D000
:1008A0002D2007E02068810701D52B2002E02021C0
:1008B00001EAC000032A099001D0072A05DB03469C
:1008C0004146204600F09EF90BE12078800601D5D4
:1008D000E06900E00620B8F1650F814606D0B8F166
:1008E000660F18D0B8F1670F70D131E00020B9F170
:1008F000110F009001DB112301E009F101030AAAA5
:1009000001A90CA8FFF7E2FEDDE90C70002609F151
:100910000105834647E001204B4600904FF0004719
:100920000AAA01A90CA8FFF7D1FEDDE90DB00C99C8
:100930005D46002610B909F101000D18B9EB05005C
:1009400003D4C0F1FF3609F10105A5EB09002BE046
:10095000B9F1010F01DA4FF001090020B9F1110FCF
:100960000090484601DD112300E003460AAA01A9D0
:100970000CA8FFF7ABFEDDE90C704D460026834660
:10098000207800070AD4AB4500DA5D4601A8012DA6
:1009900004DD411911F8011C302907D04F4502DA56
:1009A00017F1040F04DA012082460FE06D1EEEE716
:1009B000002F02DCED1B3E4403E0781CA84200DD62
:1009C0007D1CB81B00F1010A4FF00047207800079A
:1009D00003D4AA4501DB4FF0FF3A0021B7F1004FE5
:1009E0000DF143088DF8431024D002202B23002F53
:1009F00001DA7F422D230A21021EA0F1010000DC52
:100A00005FB197FBF1FC97FBF1F201FB1C7C1746F1
:100A10000CF1300C08F801CDEEE7A8F101000370ED
:100A20002188090501D5452100E06521A0F10108D3
:100A300000F8011C09980FA9A1EB0807FF1D00B1E0
:100A40000120411901EBEA70A1693844081A401EDF
:100A5000A0612078C00602D42046FFF7FDFB09986C
:100A600028B1D4E901219047206A401C20622078F7
:100A7000C00622D52046FFF7EFFB1EE0002E04DB68
:100A8000B34502DD01A8805D00E03020D4E90121FA
:100A90009047206A401C2062761CAAF101005FEAA0
:100AA000000A0AD100F060F8C0680168405CD4E92F
:100AB00001219047206A401C2062281EA5F10105F3
:100AC000DCDC07E0D4E9012118F8010B9047206A2B
:100AD000401C2062381EA7F10107F3DC2046FFF717
:100AE000D1FB032011B041E601694A1C026108787C
:100AF000704700B58FB0CDE901310021059105495E
:100B00007944CDE9031011466846FFF709FC0FB0A0
:100B100000BD0000E5FFFFFF0A6802F8010B0A6054
:100B200070474FF000020429C0F0128010F0030C4F
:100B30003FF4C8ACCCF1040CBCF1020F18BF00F8B4
:100B4000012BA8BF20F8022BA1EB0C01FFF7BABCC8
:100B50005FEAC17C24BF00F8012B00F8012B48BFDD
:100B600000F8012B70470000004870471003002078
:100B700000487047F002002030B5B0F10A024FEA99
:100B8000900E71F100034EEA817EB0EB0E0061EB36
:100B900091014FEA101E4EEA017E10EB0E0041EB70
:100BA00011114FEA102E4EEA016E10EB0E0041EBD0
:100BB00011214FEA104E4EEA014E10EB0E0041EBB0
:100BC0001141401841F100014FEAD00040EA417064
:100BD0004FEAD10110EB80054FEA810444EA90749A
:100BE00044EB01046D1944EB0404521BA3414FF084
:100BF000000348BF0A3200D530BD401C41F100015E
:100C000030BD00002DE9F0411F460446032601686F
:100C1000072A01F4006004DB08B116A505E016A55B
:100C200003E008B115A500E015A521F01000206033
:100C3000A069C01EA0610FB1401EA0612046FFF751
:100C40000BFB4FB1D4E9012138469047206A401C84
:100C50002062C01C206206E0206AFAE7D4E9012184
:100C600015F8010B9047761EF8D22046FFF70AFBD5
:100C7000BDE8F0814E414E006E616E00494E460067
:100C8000696E66002DE9F047814616468AB0354800
:100C900078440DC88DE80D0032487844801C03ACC0
:100CA0000DC884E80D0041F69B300844372190FBC5
:100CB000F1F290FBF1F5A5F1800501FB12041B3C5C
:100CC00002D56442012000E00020DFF898A08046B1
:100CD0000027FA44AAF1BE0A0EE0E0070AD0324625
:100CE000684607EB470101230AEB810100F046FB50
:100CF0008DE8070064107F1C002CEED1194F7F4453
:100D0000AE3F19E0E80715D007EB04100DF1180A03
:100D100090E80E008AE80E00C068F04201D19819F0
:100D200008903246012306A903A800F027FB03AB75
:100D300083E807006D10641C002DE3D14FF0010320
:100D400032466946B8F1000F03A802D000F001FB5B
:100D500001E000F013FBC9E90001C9F808200AB05E
:100D6000BDE8F087988D000000487047F002002031
:100D70007546FFF7F9FFAE4605006946534620F079
:100D80000700854618B020B5FFF71CFABDE82040E3
:100D90004FF000064FF000074FF000084FF0000B37
:100DA00021F00701AC46ACE8C009ACE8C009ACE8EA
:100DB000C009ACE8C0098D46704710B50446AFF3D2
:100DC00000802046BDE81040FFF7E7B94FF0013C36
:100DD00050F8042B51F8043B9A4221D1A2EB0C03AA
:100DE000934313EACC1317D150F8042B51F8043B6A
:100DF0009A4215D1A2EB0C03934313EACC130BD107
:100E000050F8042B51F8043B9A4209D1A2EB0C0391
:100E1000934313EACC13DBD04FF00000704700BFC0
:100E2000D01A01BAB1FA81F101F0180122FA01F0E9
:100E3000CB40C1F12001DBB2C0B2C01A2CFA01F3E1
:100E4000D11A914311EAC311E6D170470149182024
:100E5000ABBEFEE72600020070475FEA400C08BF09
:100E600091F0000F4FEA8C234FEAC12243EA51511F
:100E70004FEA1C5018BF00F5F0404FEA300018BF91
:100E800041F000415FEA6C5C00F02980BCF1FF3F5B
:100E900008BF40F080407047130C06BF12044FF0AB
:100EA000100C4FF0000C130E04BF12020CF1080CD2
:100EB000130F04BF12010CF1040C930F04BF920036
:100EC0000CF1020CD30F04BF52000CF1010C1146BF
:100ED0004FF00002A0F11F00A0EB0C00704711F0D2
:100EE000004F08BF704731F000413FF4D5AF0B0C05
:100EF00006BF09044FF0100C4FF0000C0B0E04BF9E
:100F000009020CF1080C0B0F04BF09010CF1040CD1
:100F10008B0F04BF89000CF1020CCB0F04BF4900FA
:100F20000CF1010CCCF12003A0EB0C0022FA03F32E
:100F300002FA0CF241EA030100F10100704720F0CF
:100F40007F4C80EA030023F07F47ACEB070303F5F7
:100F50007C5300F0004003F1FF032DE980494FEA84
:100F6000154B09B44FEA144325EA0B4E24EA034813
:100F70000FF2042606EB132749083E785FEA320297
:100F800003FB0667C7F5000707FB06F64FEA543771
:100F90004FEAD64606F1020607FB066CCCF1005C70
:100FA0004FEA1C472CEA074C07FB06F40CFB06F53E
:100FB00004EB15464FEA961634BF00204FF0004070
:100FC0004FEAD13706FB07FC4FEA1C4C0CFB0BF732
:100FD000D21B03FB0CF761EB07010CFB0EF7B0EB28
:100FE000074072EB17420CFB08F734BFA2EB074235
:100FF000B2EB074261EB17414FEA0C444FEA91070D
:1010000006FB07FC4FEA1C4C0CFB0BF7B0EBC74090
:1010100072EB573203FB0CF734BFA2EBC742B2EBC3
:10102000C74261EB57310CFB0EF7B0EBC70072EB18
:1010300057720CFB08F734BFA2EBC702B2EBC70232
:1010400061EB5771039F4FEA816141EA921104EB12
:10105000CC044FEAD1374FEA826206FB07FC42EA32
:1010600090124FEA80604FEA1C4C0CFB0BF7D21B2E
:1010700003FB0CF761EB07010CFB0EF7B0EB07402D
:1010800072EB17420CFB08F734BFA2EB0742B2EB3E
:10109000074261EB17414FEA8C554FEA910704EB89
:1010A0009C2406FB07FC4FEA1C4C0CFB0BF7B0EB37
:1010B000C74072EB573203FB0CF734BFA2EBC742B9
:1010C000B2EBC74261EB57310CFB0EF7B0EBC70038
:1010D00072EB57720CFB08F734BFA2EBC702B2EBFE
:1010E000C70261EB577115EB4C254FEA816141EA6C
:1010F00092114FEA82624FEAD13742EA901206FB20
:1011000007FC44F100044FEA80604FEA1C4C0CFBE2
:101110000BF7D21B03FB0CF761EB07010CFB0EF77F
:10112000B0EB074072EB17420CFB08F734BFA2EBA1
:101130000742B2EB074261EB174115EB1C154FEA72
:10114000813141EA92414FEA823242EA90424FEACB
:1011500080304FEA0C7644F1000448EA03434EEA3B
:101160000B484FF0000EB2EB080C71EB030724BFE5
:10117000624639464EEB0E0E4FF0000B00185241FE
:1011800049414BEB0B0BB2EB080C71EB03077BF106
:10119000000B24BF624639464EEB0E0E4FF0000B9B
:1011A0000018524149414BEB0B0BB2EB080C71EBB1
:1011B00003077BF1000B24BF624639464EEB0E0E4F
:1011C00051EA020718BF46F0010616EB0E7655F1FC
:1011D000000254F1000103D5BDE88901BDE8008893
:1011E000BDE88901BDE80048B619524141EB010153
:1011F000A3F10103704780807F7E7D7C7B7A7978C4
:10120000777676757473727171706F6E6E6D6C6CCB
:101210006B6A6A696868676666656464636362616D
:101220006160605F5F5E5E5D5D5C5C5B5B5A5A59EE
:10123000595858575756565555555454535352525A
:101240005251515050504F4F4F4E4E4D4D4D4C4CB2
:101250004C4B4B4B4A4A4A494949484848474747FB
:101260004746464645454544444444434343434238
:10127000424242414141002B9C4630D477002BD062
:101280001CB54FEA370703B44FF010004FF01001C0
:10129000BAF1000F06D0BCF1000FDCBF40F008002F
:1012A00040F008014FF000000FBCBDE810400BF10A
:1012B000010BBBF1010F08BF5FEA170722BF12F154
:1012C000010211F101014FF0004143F1000300F070
:1012D000004043EA00007047F9D35708D0E746EAD8
:1012E000064613F1400F4FEA16461FDD13F1200F9B
:1012F000DFBF16430A46002120335B42BED0C3F154
:10130000200746EA064602FA07F74FEA164646EA7B
:101310000706C3F1200722FA03F201FA07F721FAC0
:1013200003F14FF0000342EA0702A7E746EA02068C
:1013300046EA06464FEA164646EA0106BCBF46EABA
:101340000646360C4FF000034FF000024FF000014C
:1013500094E72DE9804C9A46934670B491E83800A2
:1013600007C831EA400C48BF34EA430C03D5FFF705
:10137000E6FDFFF780FFF0BCBDE8008C2DE9804C56
:101380009A46934670B491E8380007C810F0804F31
:1013900008BF13F0804F03D100F005F8FFF76BFF93
:1013A000F0BCBDE8008C20F07F4780EA030023F00A
:1013B0007F4C07EB0C03A3F57C5300F00040A3F136
:1013C000FE0392F0000F00F0B38095F0000F00F0E4
:1013D00077802DE901494FEA11404FEA144621EA8E
:1013E000004800FB06FC24EA064708FB06F607FB5C
:1013F00008F800FB07F718EB06484CEB164C4FEAD1
:10140000124B18EB07484FEA15464CEB174022EAFF
:101410000B4E0BFB06FC25EA06470EFB06F607FB08
:101420000EFE0BFB07F71EEB064E4CEB164C4FF077
:1014300000061EEB074E4CEB174B18EB0B0840F168
:10144000000018EB0E0B58EB000840F100008F1A5B
:101450004FF000013CBFC943661B14BFB5EB040C41
:1014600000213CBFC943F61B4FEA17444EEA8E0EDB
:1014700027EA04454FEA1C4704FB07622CEA074CA5
:1014800005FB07F70CFB05F604FB0CFC16EB074607
:1014900042EB174216EB0C4642EB1C421BEB0606D6
:1014A00058EB0202414146EA9E0601D5BDE801899A
:1014B000B619524141EB0101A3F10103BDE80189D5
:1014C0004FEA14454FEA114724EA054621EA074C42
:1014D00005FB07F406FB07F70CFB06F105FB0CFC0C
:1014E00011EB074144EB17444FEA124711EB0C4153
:1014F00044EB1C4422EA074C05FB07F206FB07F706
:101500000CFB06F605FB0CFC16EB074642EB1742FC
:1015100016EB0C4642EB1C456A1854F1000148BF1B
:101520007047B619524141EB0101A3F10103704725
:1015300095F0000F37D04FEA11424FEA144721EAE5
:10154000024624EA074C02FB07F106FB07F70CFBF7
:1015500006F402FB0CFC14EB074441EB17414FEA85
:10156000154714EB0C4441EB1C4125EA074C02FBE8
:1015700007F506FB07F70CFB06F602FB0CFC16EB67
:10158000074645EB174516EB0C4645EB1C42121976
:1015900051F1000148BF7047B619524141EB0101BA
:1015A000A3F1010370474FEA14454FEA114724EABB
:1015B000054621EA074C05FB07F106FB07F70CFB84
:1015C00006F24FF0000605FB0CFC12EB074241EB64
:1015D000174112EB0C4251EB1C4148BF7047921867
:1015E00041EB0101A3F101037047000070B504460F
:1015F00000688168C943C90717D1816821F00101DA
:10160000816000F089FC05460AE000BF00F084FC20
:10161000401B022804D920688068C043C00706D058
:1016200020688068C043C007F0D0002070BDA06A69
:1016300040F01000A062E06A40F00100E06201208A
:1016400070BD0000F8B50026044600960068816869
:10165000C943C9072DD0816841F001018160164856
:1016600016490068B0FBF1F000E0401E0090002831
:10167000FBD100F051FC054616E000BF00F04CFC29
:10168000401B022810D920688068C043C0070BD0D7
:10169000A06A40F01000A062E06A40F00100E06241
:1016A00084F824600120F8BD20688068C043C0072A
:1016B000E4D10020F8BD0000DC00002040420F0013
:1016C000FEE700002DE9F0414E4802F06BFD4E4C64
:1016D000A0634E4802F066FD404204F14802111F2B
:1016E000E063081F04F02AFD04F10C02911E881E1D
:1016F00002F077F9A21D911E881E02F059F94448A4
:1017000044494FF000030078097850EA010200D103
:10171000A365012809D14048404A00689042A06D65
:1017200001DA401E00E0401CA065A06D012901D136
:10173000401EA0650A2801DD0A2004E06FF00901BF
:10174000884200DA08463649364AA0650978157895
:1017500041EA0502160000D1E365012902D1E26DDC
:101760000A32E265E26D012D01D10A3AE265962A5C
:1017700001DD962204E06FF09507BA4200DA3A469E
:10178000E26526B1012905D0012D03D003E02649E9
:10179000A16200E0A36206F055FBD4E90E1203F04B
:1017A0000BF806462065B4F9080006F04BFB054629
:1017B000304606F047FB216906F0DEF92A46616CE7
:1017C00003F056F8E064B4F90C0006F03BFBE16D61
:1017D00002F06AFE6065E16C0A1A08440A49C4E92D
:1017E00018206431081F02F08FF8D4E9180102F0C4
:1017F000A1F8BDE8F04104494431A1F1340002F000
:10180000D9BC0000D00100205C0000206002002054
:10181000C9000020CA0000205800002000004842F3
:10182000CB000020CC0000209A99193F704704207B
:1018300000F06CBA202000F069BA72B6FEE7000032
:1018400010B5084C01220821204600F060FB0C2056
:1018500002F079FC20460022BDE81040082100F08B
:1018600056BB000000080140F8B50024009490F831
:1018700024202546012A12D0012280F824204A681B
:101880001F23072A0DD20668776B521E02EB8202D5
:1018900093409F430B6893401F43776319E00220F6
:1018A000F8BD06680D2A0AD2376BD21F02EB8202FE
:1018B00093409F430B6893401F43376309E0F76AE7
:1018C0000D3A02EB820293409F430B6893401F4303
:1018D000F7620A68072306680A2A0AD3F7680A3AF1
:1018E00002EB420293409F438B6893401F43F76093
:1018F00008E0376902EB420293409F438B689340B4
:101900001F4337610A68102A01D0112A20D1124BD7
:1019100002689A4217D193681B0219D4936843F462
:10192000000393600968102912D10C490C4A096818
:10193000B1FBF2F101EB8101490000E0491E009189
:101940000029FBD104E0816A41F020018162012479
:1019500080F824502046F8BD00240140DC0000201F
:1019600040420F000068C06C704700002DE9F04154
:101970004FF0000704003D467ED0A06A002628B93B
:10198000E66284F82460204600F07EF82046FFF7E7
:101990002DFEA16AC90600D420B1A06A40F0100053
:1019A000A06269E0A16A21F4885141F00201A162BC
:1019B0006268E169237B0A4347EA43010A43A1685D
:1019C0004FF48077B94209D0012907D05FF00001B8
:1019D00094F814C0BCF1010F02D00AE03946F7E7D1
:1019E000F3B1A36A43F02003A362E36A43F0010367
:1019F000E3622368D3F804C02CF4694C4CEA010C70
:101A0000C3F804C021688B68DFF870C003EA0C03D8
:101A100013438B60A168B9420BD0012909D00CE0B7
:101A2000DFF85CC0A3690CEB43330B4343F4006164
:101A3000DFE7218A0D05A5F580152168CB6A23F41F
:101A400070032B43CB62216889680E4B1940914289
:101A500008D1E662A16A21F0020141F00101A16210
:101A6000BDE8F081A06A20F0020040F01000A06202
:101A7000E06A40F00100E0620120F1E7FDF7E1FFDC
:101A800000E0FFFFFE0E1FFF00B585B000210091B2
:101A900001910291039100680E49884218D10E48C5
:101AA000816941F400718161816901F400710491DF
:101AB000816941F0040181618069694600F0040098
:101AC00004901020009003200190044800F02AF9AF
:101AD00005B000BD00240140001002400008014094
:101AE00070B5044690F8240001280DD0012084F838
:101AF00024002046FFF7A6FD02004FF0000005D0AD
:101B000084F82400104670BD022070BDA16A40F226
:101B10000123994341F48071A1621F4D23681F493D
:101B2000AB4218D10E6816F4702F14D0A66A46F492
:101B30008016A6620E68760505D5A66A26F40056BC
:101B400046F48056A662A66AF6040AD5E66A26F02E
:101B50000606E66206E0A66A26F48016A6625E68BD
:101B6000E9E7E06284F824006FF002001860206862
:101B70008368C3F34243072B05D1A84208D1096803
:101B800011F4702F04D0816841F480118160B9E7AD
:101B9000816841F4A001F9E70028014004240140D4
:101BA00010B590F821100022022905D0042181638C
:101BB00080F82020012010BD01680B6823F00E037F
:101BC0000B6001680B6823F001030B6090F8403054
:101BD000C46B012101FA03F3636080F8211080F8DF
:101BE0002020104610BD000010B590F821100024F0
:101BF000022903D00421816301243DE001680A68C1
:101C000022F00E020A6001680A6822F001020A60EE
:101C10001A4A0168914201D1012121E0174A143288
:101C2000914201D110211BE0144A2832914201D186
:101C3000891515E0114A3C32914201D189140FE017
:101C40000E4A5032914202D14FF4803108E00B4AE3
:101C50006432914202D14FF4801101E04FF0807163
:101C6000064A083A5160012180F82110002180F8CD
:101C70002010416B01B18847204610BD080002408A
:101C800070B5044600F048F90546601C02D00448CF
:101C90000078044400F040F9401BA042FAD370BD24
:101CA000D000002010B5042805D020281BD1BDE8A5
:101CB0001040FFF707BD04210F4800F023F90F4C37
:101CC000012811D0204600F017FF2068406A0C4C14
:101CD00080B2208005F036FC0A4A0B4B05F046FC2A
:101CE00005F0AEF9606010BD216800204862BDE8D3
:101CF0001040024800F0D8BE000801401802002041
:101D0000540000209CC420B07268913F044910B573
:101D10000A68024202D00860FFF7C4FF10BD00004D
:101D2000140401402DE9F84FDFF8B8910024A9F11F
:101D3000040B23460F2709F1040AABF1040EC9E096
:101D40000125A5402A40AA427DD1674ED1F804C0A2
:101D5000ACEB0608B44532D014DCBCF1030F3AD02A
:101D600009DCBCF1000F2AD0BCF1010F1CD0BCF182
:101D7000020F31D11DE0BCF1110F17D0BCF1120FD1
:101D80002AD119E0B8F5881F19D006DCB8F5803FD4
:101D900015D0B8F5801F1FD111E0B8F5001F0ED087
:101DA000B8F5041F18D10AE0CB6815E0CB681B1DFD
:101DB00012E0CB6808330FE0CB680C330CE08B6883
:101DC0002BB1012B4FF0080303D0456104E004233D
:101DD00002E0056100E00023FF2A01D8064601E089
:101DE00000F104064FEA840501D9A5F12005D6F8D3
:101DF000008007FA05FC28EA0C0803FA05F548EA12
:101E00000508C6F800804D68ED0062D5374DAE6913
:101E100046F00106AE61AD6924F0030605F0010548
:101E20000095334D06EB050CDCF80850A607360F7D
:101E300007FA06F825EA0805DFF8B880404503D11F
:101E40004FF0000817E044E0DFF8AC80404502D1D5
:101E50004FF001080FE0DFF8A480404502D14FF0B9
:101E6000020808E0DFF89880404502D14FF00308EF
:101E700001E04FF0040808FA06F848EA0508CCF833
:101E800008804D68D9F80060ED024D4601D5164333
:101E900000E096432E604D68DAF80060AD025546CA
:101EA00001D5164300E096432E604D68DBF80060D4
:101EB000AD035D4601D5164300E096432E604D68A4
:101EC000DEF80060ED03754601D5164300E0964349
:101ED0002E60641C0D682A46E5407FF431AFBDE8F2
:101EE000F88F0000080401400000111000100240AB
:101EF0000000014000080140000C014000100140BA
:101F0000001401408068084000D0012070470AB1E9
:101F1000016170470904FBE70148806870470000D1
:101F2000D000002070B5040025D094F83D000025B5
:101F300020B984F83C50204600F050F9242084F861
:101F40003D002068016821F00101016020680168FE
:101F500041F4004101602068016821F40041016002
:101F600000F018FB4D4A6168914201D84C4900E0ED
:101F70004C49884201D2012070BD4B492368B0FB17
:101F8000F1F15E6826F03F060E435E60636893429F
:101F900006D94FF4967359434FF47A73B1FBF3F1BA
:101FA0002368491C1E6A26F03F06314319626168A6
:101FB000914210D84900401EB0FBF1F2521CC2F30E
:101FC0000B02042A01D2042022E0B0FBF1F0401CF5
:101FD000C0F30B001CE0A268F2B301EBC10303EBFA
:101FE0000116431EB3FBF6F35B1C43F480431B0551
:101FF00049D092B301EBC10202EB0111401EB0FBCC
:10200000F1F0401CC0F30B0040F4804040F400406D
:102010002168CA694CF6FF739A431043C861D4E93A
:10202000071001432068026822F0C00211430160DA
:10203000D4E9030101432068826848F2FF339A43E0
:1020400011438160D4E9050108432168CA6822F080
:10205000FF021043C86001E00EE016E0206801684E
:1020600041F0010101602564202084F83D002563D2
:1020700084F83E50002070BD01EB4106431EB3FBC7
:10208000F6F35B1CB3E70120C2E701EB4101401E00
:10209000B0FBF1F0401CC0F30B00B7E7A0860100D5
:1020A00080841E0000093D0040420F002DE9FF4FD3
:1020B00083B09A46DDE9119793460446DDF84080E7
:1020C000FFF72AFF054694F83D0020287FD1192309
:1020D000012240492046009501F02EFA002876D1D1
:1020E00094F83C00012872D0012084F83C0020685C
:1020F0000168C90703D1016841F00101016020684E
:10210000016821F400610160212084F83D00402035
:1021100084F83E0000262664C4F82480A4F82A909F
:10212000608D20852C48E062CDE9007553465A4603
:102130002046049901F080F970B930E02A4639460A
:10214000204601F09FFA58B1206C042804D1206881
:10215000016841F400710160012007B0BDE8F08F13
:10216000606A216800780861606A401C6062218DA5
:10217000491E89B22185628D521E6285226853698B
:10218000DB435B070BD469B100781061606A401CC7
:102190006062208D401E2085608D401E6085208DF0
:1021A0000028CBD12A463946204601F099F900286B
:1021B000CAD154F83D0B016841F400710160202040
:1021C00004F81E09E67766770020C6E7FFE70220DD
:1021D000C3E70000020010000000FFFF10B586B04A
:1021E00000210091019102910391006813498842F6
:1021F00022D1134CA06940F00800A061A069694693
:1022000000F0080004904FF44070009012200190FC
:10221000032003900B48FFF785FD0B48416841F010
:10222000E06141F002014160E06940F40010E061CA
:10223000E06900F40010049006B010BD00540040A6
:1022400000100240000C014000000140024881687B
:102250000278114481607047D0000020074810B513
:10226000016841F010010160032000F075F80F20B3
:1022700000F006F800F024F8002010BD0020024015
:1022800070B50D4D04464FF47A712878B1FBF0F02B
:102290000A490968B1FBF0F000F052FB48B9102C74
:1022A00007D200222146501E00F036F800206C6054
:1022B00070BD012070BD0000D0000020DC000020B7
:1022C0000C4808B5816941F001018161816901F023
:1022D00001010091C16941F08051C161C06900F004
:1022E000805000900448416821F0E06141F00071A5
:1022F000416008BD0010024000000140002809DBD9
:1023000000F01F02012191404009800000F1E0200F
:10231000C0F8001170470000F0B40E4B1B680C466B
:10232000C3F30223C3F10705042D00D90425191DA9
:10233000072901D2002300E0DB1E012606FA05F181
:10234000491E214099409E40761E16403143F0BC04
:1023500002F0D6BA0CED00E0064900F0070208686A
:102360004FF6FF03184040EA0220034A104308607A
:10237000704700000CED00E00000FA052DE9F8437D
:1023800005460078354CC00754D0E0690026C000EF
:1023900008D4E06940F08050E061E069012600F077
:1023A000805000902E480168C90512D4016880460B
:1023B00041F480710160FFF7AFFD074605E000BF03
:1023C000FFF7AAFDC01B642823D8D8F80000C00579
:1023D000F6D5206A10F4407021D0A98801F440712C
:1023E00081421CD0206A1F49012220F440700A60FB
:1023F00000220A602062C00711D0FFF78DFD07465A
:1024000041F2883808E000BFFFF786FDC11B414557
:1024100002D90320BDE8F883206A8007F4D5206A3A
:10242000696820F44070084320621EB1E06920F022
:102430008050E0612878800705D56068A96820F49D
:102440004040084360602878C00605D56068E968A8
:1024500020F48000084360600020DBE700100240A9
:1024600000700040400442422DE9F0470F4605004D
:1024700061D0434E306800F00700B84209D230689E
:1024800020F0070038433060306800F00700B842A1
:1024900051D128683B4C810712D5400703D56068AD
:1024A00040F4E06060602878000703D5606840F47D
:1024B000605060606068A96820F0F00008436060C8
:1024C0002878C00728D06868012810D02168022821
:1024D00010D0890700292EDA616821F00301014339
:1024E0006160FFF719FD804641F288390DE02168EF
:1024F0008903EFE78901EDE7FFF70EFDA0EB080187
:10250000494502D90320BDE8F0876068696800F09A
:102510000C00B0EB810FEFD1306800F00700B8423B
:102520000BD9306820F0070038433060306800F085
:102530000700B84201D00120E5E72878400705D51B
:102540006068E96820F4E06008436060287800076C
:1025500006D56068296920F4605040EAC1006060D7
:1025600000F038F86168084AC1F30311515CC840B3
:102570000649086006480068FFF782FE0020C2E7AF
:10258000002002400010024094980008DC00002067
:10259000D40000200448054900684968044AC1F392
:1025A0000221515CC8407047DC000020001002404E
:1025B000A49800080448054900684968044AC1F322
:1025C000C221515CC8407047DC000020001002406E
:1025D000A49800080E4A51680E4801F00C03042B21
:1025E00011D0082B0FD10C48C1F38343C903C05C41
:1025F0000AD55168084AC1F34041921E515C054A10
:102600005043B0FBF1F07047044948437047000065
:102610000010024000127A008498000800093D0072
:102620002DE9F84F040070D02078C04DC00749D084
:102630006868C0F38100012807D06868C0F3810092
:10264000022809D16868C00306D52868800339D5F7
:1026500060680028E7D035E06068B0F5803F0BD0B7
:1026600010B1B0F5A02F11D0286820F48030286078
:10267000286820F4802002E0286840F48030286038
:10268000606890B1FFF748FC06460AE0286840F40D
:1026900080202860F0E700BFFFF73EFC801B642825
:1026A00073D828688003F7D50CE0FFF735FC0646A1
:1026B00005E000BFFFF730FC801B6428F0D82868D5
:1026C0008003F7D420789A4E80074FF001094FF02D
:1026D000000839D5686810F00C0F07D06868C0F39F
:1026E0008100022809D16868C00306D428688007E1
:1026F00014D52069012808D110E02069B0B1C6F8CE
:102700000090FFF709FC074605E00AE1FFF704FC2B
:10271000C01B0228C4D828688007F7D528686169DB
:1027200020F0F80040EAC10028600DE0C6F8008003
:10273000FFF7F2FB074604E0FFF7EEFBC01B0228A1
:1027400023D828688007F7D4207800072CD579484B
:10275000A169D9B1C0F80090FFF7DEFB074604E09D
:10276000FFF7DAFBC01B02280FD8686A8007F7D58D
:1027700071484FF4FA510068B0FBF1F0009000BFCF
:102780000098411E0091FAD20EE080E0C0F800806F
:10279000FFF7C2FB074604E0FFF7BEFBC01B0228A1
:1027A00075D8686A8007F7D42078400760D5E86953
:1027B0000027C00008D4E86940F08050E861E8696B
:1027C000012700F0805000905C480168C90513D4CF
:1027D0000168834641F480710160FFF79DFB8246EA
:1027E00006E000BFFFF798FBA0EB0A0064284ED874
:1027F000DBF80000C005F5D5E06801280AD008B173
:10280000052813D0286A20F001002862286A20F0E9
:10281000040002E0286A40F001002862E06841F20A
:10282000883B98B1FFF778FB82460BE0286A40F0BE
:1028300004002862EEE700BFFFF76EFBA0EB0A0181
:1028400059455AD8286A8007F6D50CE0FFF764FB93
:10285000824605E0FFF760FBA0EB0A0159454CD822
:10286000286A8007F6D41FB1E86920F08050E8613B
:10287000E06988B36968C1F38101022944D0022864
:10288000C6F8608004D0FFF747FB044638E034E028
:10289000FFF742FB074604E0FFF73EFBC01B0228A0
:1028A0002BD828688001F7D4206AB0F5803F05D185
:1028B0006868A16820F4003008436860D4E9080122
:1028C0000843696821F4741108436860C6F8609091
:1028D000FFF722FB044606E025E000BFFFF71CFBE4
:1028E000001B022809D828688001F7D51BE000BF2B
:1028F000FFF712FB001B022802D90320BDE8F88F66
:1029000028688001F4D40EE00128F7D06868226AB4
:1029100000F48031914204D1616A00F47010884261
:1029200001D00120EAE70020E8E7000000100240A3
:102930000000424280044242DC000020007000405F
:1029400010B5401EB0F1807F01D3012010BD4FF0C3
:10295000E02460610F21601701F0D2FF0020A06128
:1029600007202061002010BD10B590F83C20012AFE
:1029700022D0012280F83C20CA688C6822F4407280
:1029800022434C6822F4806222430C6822F40062E5
:1029900022430C6922F4805222434C6922F40052F3
:1029A0002243C969002322F480420A4301684A6431
:1029B00080F83C30002010BD022010BD70B590F8AA
:1029C0003C20012A26D0012480F83C40022280F8D5
:1029D0003D2003685A689D6822F070060A683243F9
:1029E0005A600D4B02689A4208D0B2F1804F05D070
:1029F0000A4B9A4202D00A4B9A4204D1496825F008
:102A000080031943916080F83D40002180F83C101C
:102A1000084670BD022070BD002C0140000400403B
:102A20000008004010B5040003D094F83D0010B138
:102A300007E0012010BD002084F83C00204600F093
:102A40001FF8022084F83D00211D206801F00AFCD7
:102A5000012084F8460084F83E0084F83F0084F8A2
:102A6000400084F8410084F8420084F8430084F870
:102A7000440084F8450084F83D00002010BD0000AB
:102A800008B500680649884208D10648C16941F086
:102A90000201C161C06900F00200009008BD0000A1
:102AA000000400400010024090F83D10012901D0C0
:102AB00001207047022180F83D1000680B498842D0
:102AC00008D0B0F1804F05D00949884202D00949A9
:102AD000884204D1816801F00701062903D001680A
:102AE00041F001010160002070470000002C01400E
:102AF000000400400008004001680A6A41F2111316
:102B00001A4207D10A6A9B101A4203D10A6822F0BE
:102B100001020A60012180F83D100020704770B565
:102B2000044690F83C000025012817D0012684F8BF
:102B30003C60022084F83D002068826822F0770221
:102B400022F47F4282600868502838D00DDC2028AB
:102B50004FD005DC90B3102811D14AE0022070BD9F
:102B6000302846D040280AD13BE060282FD070287A
:102B70000DD0B0F5805F03D0B0F5005F12D0012515
:102B800084F83D60002084F83C00284670BDCB6886
:102B9000D1E90121206801F0AEFB2068816841F095
:102BA000770109E0CB68D1E90121206801F0A3FB9E
:102BB0002068816841F480418160E1E719E0CA68DA
:102BC0004968206801F04CFC5021206806E0CA6882
:102BD0004968206801F055FC6021206801F095FBF0
:102BE000CEE7CA684968206801F03AFC40212068B5
:102BF000F4E7226801461046F0E72DE9F0410D4662
:102C0000040003D094F83D0018B108E00120BDE8AD
:102C1000F081002084F83C00204600F041F80220BA
:102C200084F83D002068816844F207029143816086
:102C3000211D206801F016FB226890689169166AD0
:102C40002B68AF69034340F20330814341EA072117
:102C5000A868EF6908434FF6FC418843E96840EAF9
:102C60000720014328692F6A000140EA0730084322
:102C700069686D6926F0220646EA051529439360C6
:102C80002268906154F8460B0162012004F81F0984
:102C9000E0752076E0762077A0750020B7E7000089
:102CA00000B585B000210091019102910391016866
:102CB0001A48B1F1804F1BD0194A914216D1C1690F
:102CC00041F00401C161C16901F00401049181690D
:102CD00041F0080181618069694600F008000490B4
:102CE000C02000900F4800BFFFF71CF805B000BDE2
:102CF000C16941F00101C161C16901F001010491A3
:102D0000816941F0040181618069694600F0040035
:102D10000490032000900448E6E700000010024001
:102D200000080040000C01400008014070B590F818
:102D30003E60044690F83F5090F8423090F84320AF
:102D4000022021B104290ED0012E1BD114E0012E46
:102D500018D1012B16D184F83E0084F842000122DC
:102D60000021206820E0012D0CD1012A0AD184F82D
:102D70003F0084F8430014E0012D03D1012B01D161
:102D8000012A01D0012070BD84F83E0084F83F0084
:102D900084F8420084F8430001220021206801F0F9
:102DA0009DFA01220421206801F098FA2068016848
:102DB00041F001010160002070BD000000B585B048
:102DC0000021009101910291039100680B49884212
:102DD00012D10B48816941F0040181618069694623
:102DE00000F0040004904FF4106000900220019065
:102DF00003900448FEF796FF05B000BD002C01408B
:102E0000001002400008014070B5044690F83C00F4
:102E100000260D4601280FD0012084F83C006AB13D
:102E2000042A1DD0082A2FD00C2A3FD001260020CA
:102E300084F83C00304670BD022070BD206801F06F
:102E40006DFA2068816941F008018161206881691B
:102E500021F004018161206881692A69114311E030
:102E6000206801F083FA2068816941F40061816182
:102E70002068816921F480618161206881692A6903
:102E800041EA02218161D2E7206801F09BFA2068C3
:102E9000C16941F00801C1612068C16921F00401E4
:102EA000C1612068C1692A69114311E0206801F0FD
:102EB000B5FA2068C16941F40061C1612068C16947
:102EC00021F48061C1612068C1692A6941EA022157
:102ED000C161ACE710B5040003D094F83D0010B117
:102EE00007E0012010BD002084F83C00204600F0DF
:102EF0001FF8022084F83D00211D206801F0B2F97E
:102F0000012084F8460084F83E0084F83F0084F8ED
:102F1000400084F8410084F8420084F8430084F8BB
:102F2000440084F8450084F83D00002010BD0000F6
:102F300008B500680649884208D10648816941F40D
:102F400000618161806900F40060009008BD0000AC
:102F5000002C01400010024010B50446022249B185
:102F600004290ED0082913D094F84100012816D066
:102F7000012010BD94F83E000128F9D184F83E20CC
:102F80000FE094F83F000128F2D184F83F2008E0D8
:102F900094F840000128EBD184F8402001E084F847
:102FA00041200122206801F099F90F4920688842E8
:102FB00003D1426C42F4004242642068884208D047
:102FC000B0F1804F05D00949884202D008498842B3
:102FD00004D1816801F00701062903D0016841F09E
:102FE00001010160002010BD002C014000040040E0
:102FF0000008004070477047F8B50168044608684B
:10300000CA684B6910F00F0F4FF0000559D003F05C
:10301000010602F49077374365D0C10705D0D1058A
:1030200003D5616C41F001016164410705D5D90701
:1030300003D0616C41F002016164810705D5D907B5
:1030400003D0616C41F004016164010707D502F00F
:103050002001314303D0616C41F008016164616C6F
:1030600000293AD0800604D5900602D5204601F00A
:1030700060FA20684069616CC0F38010090700D4D1
:1030800060B3204601F02EFA20684069400621D541
:103090002068143050E8001F21F0400140E8001281
:1030A000002AF5D1E06BA8B16D494163E06BFEF7F2
:1030B0009BFD002811D0E06B416B01B0BDE8F040F2
:1030C000084783060FD593060DD52046BDE8F84086
:1030D00001F02FBA2046FFF78EFFF8BD2046FFF71C
:1030E0008AFF6564F8BD266B2023012E7CD1C606BD
:1030F0007AD5D60678D508684868009048694FF0B8
:103100000206400640D5E16B086840680004000CE8
:10311000E8D0A28D8242E5D9E085886920282DD0AB
:1031200020680C3050E8001F21F4807140E8001244
:10313000002AF5D12068143050E8001F21F0010169
:1031400040E80012002AF5D12068143050E8001F32
:1031500021F0400140E80012002AF5D184F8423005
:10316000256320680C3050E8001F21F0100140E872
:103170000012002AF5D1E06BFEF712FD6663A08D08
:10318000E18D401A81B22AE0A08DE18D401A81B212
:10319000E08D0028A6D00029A4D022680C3252E885
:1031A000000F20F4907042E80007002FF5D120684E
:1031B000143050E8002F22F0010240E80027002FD1
:1031C000F5D184F84230256320680C3050E8002F98
:1031D00022F0100240E80023002BF5D16663204660
:1031E000FFF708FFF8BDFFE705062BD5150629D523
:1031F00094F841002128F5D1A068B0F5805F01D195
:103200002069B0B1206A411C2162216800784860C1
:10321000E08C401E0004000CE084E3D12068C1680B
:1032200021F08001C1602068C16841F04001C160A7
:10323000D8E7206A0088C0F308004860206A801C34
:103240002062E5E74006CDD55006CBD5CA682046BA
:1032500022F04002CA6084F8413000F0D4F8C1E79F
:10326000D544000870B5040004D094F8410000254E
:1032700010B106E0012070BD84F84050204600F0F7
:1032800023F8242084F841002068C16821F400510B
:10329000C160204601F0AEF92068016921F4904137
:1032A00001612068416921F02A0141612068C168FB
:1032B00041F40051C1606564202084F8410084F825
:1032C00042006563002070BD30B585B000240094D5
:1032D0000194029403940068184988422CD118483C
:1032E000C16941F48021C161C16901F48021049167
:1032F000816941F0080181618069124D00F0080088
:1033000004904FF48060009002200190032003900D
:1033100069462846FEF706FDE814CDE90004694633
:1033200028460294FEF7FEFC002211462720FEF7F5
:10333000F3FF2720FEF7E2FF05B030BD0048004054
:1033400000100240000C014090F84230202B01D0C8
:103350000220704721B11AB10023036301F0A6B91E
:103360000120704770472DE9F843044690F841006A
:10337000984616460D46202802D00220BDE8F88364
:1033800085B17EB100206064212084F84100FEF701
:10339000C3FDA6848146E684A0682027B0F5805F3F
:1033A00002D003E00120E9E7206910B12E46002594
:1033B0000EE000260CE08021204601F092F9A8B929
:1033C000C6B116F8010B21684860E08C401EE0840D
:1033D000E08C4B464FF00002CDF800800028EAD187
:1033E0004FF04001204601F07CF940B184F8417073
:1033F0000320C3E735F8020BC0F30800E3E784F8C5
:1034000041700020BAE77047FEE701684A69D2437D
:1034100052050FD46FF480624A61002140F8301FDA
:10342000202242738173026942F004020261017337
:1034300001207047002070472DE9F84304460068DA
:103440000D46DDE9089701689846164641F48071FB
:1034500001604B4600224FF001112046009700F01A
:103460006BF848B120680068C00502D54FF40070C1
:1034700020640320BDE8F883216805F0FE000861A0
:103480003B464A461549204600F09EF888B9206818
:103490004169806900903A464946204600F0F2F8BA
:1034A00048B1206C042804D12068016841F40071FF
:1034B00001600120DEE7F5B2B8F1010F09D0216803
:1034C000300A08613A464946204600F0DBF80028F9
:1034D000E7D1206805610020CCE700000200010070
:1034E00070B516460D4604461EE02046FFF78DFFD8
:1034F00008B1012070BD681C16D0FEF70DFD801BC1
:10350000A84200D885B920684069C04340070BD560
:10351000002044F8300F20216173A073216941F02D
:10352000200121612073E4E720684069C04340071F
:10353000DBD4002070BD00002DE9F0479846174607
:103540000D460446C1F30746DDF820902AE000BF8F
:10355000B8F1FF3F26D0FEF7DFFCA0EB09014145A3
:1035600002D8B8F1000F1DD12068012E16D0806955
:1035700025EA00000004000C12D00020B84211D14E
:10358000002044F8300F20216173A073216941F0BD
:103590002001216120730120BDE8F0874069E7E741
:1035A0000120EBE72068012E0AD0806925EA00009F
:1035B0000004000C06D00020B842C9D00020EBE780
:1035C0004069F3E70120F7E72DE9F04798461646F2
:1035D0000D4604464FF000094FF0200AC1F307479B
:1035E00023E020684069C043400515D42068016885
:1035F00041F40071016021686FF480604861C4F893
:10360000309084F83DA084F83E90216C41F0040194
:10361000216484F83C9021E0701C06D0FEF77CFC0D
:10362000A0EB0800B04203D816B1012F1FD021E053
:103630002068012F15D0806925EA00000004000CE5
:1036400018D000BF44F8309F84F80DA084F80E9085
:10365000216941F02001216184F80C900120BDE82E
:10366000F087406925EA00000004000CEAD12068D8
:10367000406901E02068806925EA00000004000C30
:10368000AFD1ECE770B516460D4604461EE0204665
:10369000FFF7BBFE08B1012070BD681C16D0FEF715
:1036A0003BFC801BA84200D885B920684069C04314
:1036B00000060BD5002044F8300F20216173A07361
:1036C000216941F0200121612073E4E7206840690D
:1036D000C0430006DBD4002070BD000010B50E4CC6
:1036E000002208212046FEF712FC00F017F8012204
:1036F00010212046FEF70BFC00F010F800221021EC
:103700002046FEF704FC00F009F820460122BDE83F
:1037100010400821FEF7FBBB000C01400020401CBC
:10372000C0B20A28FBD370470C4800B5816985B048
:1037300041F0080181618069694600F00800049049
:103740001820009003200390112001900448FEF7F8
:10375000E9FA00F09DF805B000BD0000001002403D
:10376000000C014010B50C4C012208212046FEF748
:10377000CEFBFFF7D3FF012210212046FEF7C7FB47
:10378000FFF7CCFF002210212046FEF7C0FBBDE86A
:103790001040FFF7C3BF0000000C01402DE9F041CD
:1037A0000024134E074625466006040E0122102110
:1037B0003046FEF7ACFBFFF7B1FF08213046FEF7BD
:1037C000A1FB08B1641CE4B2002210213046FEF7D0
:1037D0009EFBFFF7A3FF6D1CEDB2082DE4D327B1CC
:1037E000FFF77CFF2046BDE8F081FFF7BBFFF9E75C
:1037F000000C014070B5154E05460024280601D581
:10380000012200E0002208213046FEF780FBFFF78E
:1038100085FF012210213046FEF779FBFFF77EFF7E
:10382000002210213046FEF772FB072C04D1012242
:1038300008213046FEF76BFB6806050EFFF76EFFAA
:10384000641CE4B2082CD9D370BD0000000C014008
:1038500010B50E4C012208212046FEF758FB01222C
:1038600010212046FEF753FBFFF758FF00220821E6
:103870002046FEF74CFBFFF751FF002210212046A7
:10388000FEF745FBBDE81040FFF748BF000C0140C4
:1038900010B50A4C002208212046FEF738FB012211
:1038A00010212046FEF733FBFFF738FF20460122A8
:1038B000BDE810400821FEF72ABB0000000C0140C3
:1038C00070B5104D012208212846FEF720FBFFF7B6
:1038D00025FF012210212846FEF719FBFFF71EFFE6
:1038E00008212846FEF70EFB08B1012400E0002461
:1038F000002210212846FEF70AFBFFF70FFF2046A3
:1039000070BD0000000C014010B54FF4E153046895
:103910005A429C4201DD036002E0944200DA0260F8
:103920000868984201DD0B6010BD9042FCDA0A6025
:1039300010BD00002DE9F0410D461B4E04004FF470
:1039400000514FF4805705D501223046FEF7DFFACB
:10395000002204E000223046FEF7D9FA012239465F
:103960003046FEF7D4FA002C00DA64420F4F386874
:1039700004644FF480414C00002D05DA01223046EA
:10398000FEF7C5FA002204E000223046FEF7BFFA37
:10399000012221463046FEF7BAFA002D00DA6D42C8
:1039A00038684563BDE8F081000C014088010020C3
:1039B0007CB514460D4606466B4606223B21682020
:1039C00000F080F800280BD1BDF8001049BA318012
:1039D000BDF8021049BA2980BDF8041049BA218007
:1039E0007CBD7CB514460D4606466B460622432137
:1039F000682000F067F800280BD1BDF8001049BA24
:103A00003180BDF8021049BA2980BDF8041049BAC6
:103A100021807CBD10B5FFF787FE80216B2000F070
:103A2000C0F86420FEF72CF900216B2000F0B9F8F3
:103A3000032000F082F8002000F07AF8642000F003
:103A400099F80021382000F0ACF800216A2000F03D
:103A5000A8F80021232000F0A4F88021372000F0EE
:103A6000A0F8752000F011F8682801D0012010BDE1
:103A700001216B2000F095F800216C2000F091F8F6
:103A8000642000F077F8002010BD10B50446FFF761
:103A9000DFFED020FFF7AEFEFFF712FF2046FFF754
:103AA000A9FEFFF70DFFFFF7D3FED120FFF7A2FE1F
:103AB000FFF706FF0020FFF771FE0446FFF7E8FE60
:103AC000204610BD2DE9F0411D4614460F4606461E
:103AD000FFF7BEFE7006000EFFF78CFEFFF7F0FE4C
:103AE00020B1FFF7D5FE0120BDE8F0813846FFF791
:103AF00081FEFFF7E5FEFFF7ABFE012000EB46007D
:103B0000C0B2FFF777FEFFF7DBFE09E0012C0DD016
:103B10005FF00100FFF742FE641E05F8010BE4B2FE
:103B2000002CF3D1FFF7B4FE0020DDE70020F1E721
:103B3000C006010E1C2000F034B8C006010E1B2088
:103B400000F02FB8BC2801D3012110E0622801D376
:103B500002210CE02A2801D3032108E0142801D314
:103B6000042104E00A2801D3052100E006211A20DF
:103B700000F017B810B504464FF47A70844201D9AA
:103B8000044602E0042C00D20424B0FBF4F0401EF2
:103B9000C1B2192000F005F86008BDE81040FFF739
:103BA000D1BF70B50C460546FFF752FED020FFF797
:103BB00021FEFFF785FE50B92846FFF71BFEFFF7F1
:103BC0007FFE2046FFF716FEFFF77AFE18B1FFF7DB
:103BD0005FFE012070BDFFF75BFE002070BD2DE988
:103BE000F0411E4615460F460446FFF731FE6006BB
:103BF000000EFFF7FFFDFFF763FE60B93846FFF7E1
:103C0000F9FDFFF75DFE00240CE0305DFFF7F2FDEB
:103C1000FFF756FE20B1FFF73BFE0120BDE8F08123
:103C2000641CE4B2AC42F0D3FFF732FE0020F5E7AB
:103C30003EB5002411480094019402940E4984601A
:103C4000016001250573047505614FF4602144602E
:103C5000C161FDF78BFE08B1FDF7EFFD0420CDE952
:103C60000005694602940548FDF7FEFD002801D0D5
:103C7000FDF7E3FD3EBD00000024014004010020EB
:103C80002DE9F04186B0002432480094019402945A
:103C90000394816941F010018161816901F0100193
:103CA0000491816941F020018161816901F0200165
:103CB0000491816941F004018161816901F004018D
:103CC0000491816941F0080181618069224F00F00F
:103CD00008000490002208213846FEF718F9DFF8A2
:103CE0007C804FF21806002231464046FEF70FF95D
:103CF000042000901A48CDE9010469463846FEF7D1
:103D000011F808200125CDE900050320CDE9024086
:103D100069463846FEF706F80220CDE90240CDE9B3
:103D2000006569464046FDF7FDFF202000900D48E4
:103D3000CDE9010569464046FDF7F4FF0022114632
:103D40000820FEF7E9FA0820FEF7D8FA06B0BDE829
:103D5000F08100000010024000080140000C01400A
:103D600000003110000021100D4810B50B49016012
:103D70000C49416000214FF480428160C0E9031288
:103D800041618161C1610162FEF7CCF8002803D076
:103D9000BDE81040FDF751BD10BD000000540040CB
:103DA00034010020A086010010B592B000240F94C9
:103DB0001C2168461094FCF783FB202107A8FCF720
:103DC0007FFB25482349C0E9001441F61F41C0E9A3
:103DD0000241046144618461FFF77CF808B1FDF79A
:103DE0002CFD0F940FA91C481094FEF7E7FD08B1B5
:103DF000FDF723FD602000904FF4E150CDE9010470
:103E00000394049405940022694613480694FEF72F
:103E1000FBFF08B1FDF711FD0C2269460E48FEF7C5
:103E2000F3FF08B1FDF709FD0794089409944FF4D6
:103E300000500A94CDE90B4007A907480E94FEF7FD
:103E400093FD08B1FDF7F9FC0348FEF7B7FF12B088
:103E500010BD0000002C01408801002010B58CB07E
:103E600024216846FCF72CFB0024154809944FF0E8
:103E700080410A94C0E900144FF6FF71C0E9024185
:103E8000046184610320CDE900040120CDE902042E
:103E90000494CDE905400794694609480894FEF763
:103EA000ACFE08B1FDF7C9FC099409A904480A94BD
:103EB000FEF784FD002801D0FDF7BFFC0CB010BD5B
:103EC000D001002010B586B000241748009401945A
:103ED0000294039404941349059401604721C0E9B6
:103EE00001144FF6FF71C0E903148461FEF79AFDD7
:103EF00008B1FDF7A2FC4FF48050009069460A48D3
:103F0000FEF70DFE08B1FDF798FC049404A90648DD
:103F10000594FEF753FD002801D0FDF78EFC06B096
:103F200010BD0000000400401802002010B58CB045
:103F300024216846FCF7C4FA002416480994144961
:103F40000A94C0E900144FF6FF71C0E90241046110
:103F500084610320CDE900040120CDE9020404942A
:103F6000CDE90540079469460A480894FEF745FEE6
:103F700008B1FDF762FC099409A906480A94FEF706
:103F80001DFD002801D0FDF758FC0CB010BD00004D
:103F900000080040600200200C4810B50A4901608A
:103FA0004FF416514160002181600C22C160C0E9CC
:103FB00004128161C161FFF755F9002803D0BDE803
:103FC0001040FDF73ABC10BD00480040A802002098
:103FD000FEE7FEE770B5002404F1B000C0B200F0C7
:103FE0008DF8002000F08AF8102000F087F80025F6
:103FF000002000F095F86D1CEDB2802DF8D3641C04
:10400000E4B2082CE8D370BD10B5C820FDF738FE27
:10401000BDE8104000F046BC10B50446B031C8B24F
:1040200000F06CF8102040EA141000F067F804F07B
:104030000F00BDE8104000F061B800002DE9F0412C
:10404000203A00240D468046D6B27F2803D90020AE
:104050008D1C8046EDB2102B29460FD0FFF7DCFFF8
:10406000164906EB460001EB4005285D00F058F8C4
:10407000641CE4B2062CF8D3BDE8F081FFF7CCFF56
:104080000F4F00BF04EB0610385C00F049F8641CC9
:10409000E4B2082CF6D36D1CE9B24046FFF7BCFF32
:1040A0005FF0000404EB06103844007A00F038F8A2
:1040B000641CE4B2082CF5D3DEE70000728200082D
:1040C0009A8400082DE9F041984617460E460446AA
:1040D00000250DE0434631462046FFF7AFFF083488
:1040E000E4B2782C02D90024B61CF6B26D1CEDB2F5
:1040F0007A5D002AEED1BDE8F081000001B584B000
:1041000001214FF4807204A88DE807000B460022BD
:1041100078210248FDF7CAFF05B000BD3401002038
:1041200001B584B001214FF4807204A88DE8070026
:104130000B46402278210248FDF7B8FF05B000BDCC
:1041400034010020704708B500EBC00020F060404B
:10415000009000BF0098411E0091FAD208BD0000F7
:104160000A4810B502680A490B68D21A0A2A0CD309
:1041700000680860074800F015F80749086007481C
:1041800000F010F806494042086010BDD800002039
:10419000C4000020D0010020940000206002002014
:1041A000980000200168486A002200B24A62704705
:1041B0007047000010B502680868114603F044FF1C
:1041C00003F004FE002800DA40423C2806DD00210E
:1041D0000846FFF7AFFB02490120087010BD000040
:1041E0005C000020FEF732B830B593B02821684655
:1041F000FCF766F914210AA8FCF762F900250120F2
:104200000F9510951195010412958DE823000490E7
:104210004FF4E010CDE90810022407946846FEF739
:10422000FFF908B172B6FEE70AA90F2081E8310054
:104230004FF48060CDE90D0502210AA8FEF714F9BC
:1042400008B172B6FEE74FF4004011900F940FA82A
:10425000FEF794F8002801D072B6FEE713B030BD27
:1042600070470000F0B50268194B1A4C1A4D4FF018
:104270008047984205D0B84203D0A04201D0A8425E
:1042800003D122F070064A683243984205D0B84202
:1042900003D0A04201D0A84203D122F44074CA68DE
:1042A00022434C6922F08002224302608A68C26283
:1042B0000A688262984201D1096901630121416162
:1042C0000169C90703D0016921F001010161F0BD55
:1042D000002C0140000400400008004010B501F02F
:1042E0001F030121046A99408C430462016A9A40C9
:1042F0001143016210BD10B5846842EA032224F420
:104300007F440A432243826010BD826822F070021B
:104310000A4342F0070181607047000030B5036A2C
:10432000026A22F0010202624268846924F0730585
:104330000C682C4323F002058B682B430A4DA842DE
:104340000BD123F00805CB6822F440722B434D6952
:1043500023F0040315438A692A4342608461496853
:104360004163036230BD0000002C014030B5026A99
:10437000036A23F010030362436884690D6824F420
:10438000E64444EA05248D6822F0200242EA051240
:104390000B4DA8420ED1CD6822F0800242EA0512F0
:1043A0004D6923F4406343EA85038D6922F040029E
:1043B00043EA85034360846149688163026230BDDA
:1043C000002C014030B5036A026A22F48072026256
:1043D0004268C46923F4007324F073050C682C430D
:1043E0008D6843EA05230C4DA8420ED1CD6823F415
:1043F000006343EA05234D6922F4405242EA051264
:104400008D6923F4806342EA05124260C461496801
:10441000C163036230BD0000002C014030B5046A66
:10442000026A22F4805202624268C3690D6823F472
:10443000E64343EA05238D6824F4005444EA053436
:10444000064DA84204D14D6922F4804242EA851209
:104450004260C36149680164046230BD002C0140C0
:1044600010B5036A046A24F001040462846924F02C
:10447000F00444EA021423F00A020A43846102624F
:1044800010BD10B5036A046A24F010040462846944
:1044900023F0A00324F4704444EA023243EA0111F9
:1044A0008261016210BD000070B5094D0E46A96A17
:1044B00003F0F4FC0446304603F0C4FC696A03F0E0
:1044C000EDFC214603F058FBBDE8704003F07EBCD4
:1044D0005C00002010B5406A0021C185C184FEF750
:1044E0008AFD10BD01680C3151E8002F22F4907252
:1044F00041E80023002BF5D10168143151E8002F69
:1045000022F0010241E80023002BF5D1016B0129C3
:1045100009D101680C3151E8002F22F0100241E866
:104520000023002BF5D1202180F8421000210163E7
:10453000704708B590F84210222901D0022008BD2A
:1045400082684FF480539A4201D1016921B1816A96
:104550009A421BD04AB10AE00268816A5268C2F3EB
:1045600008020A80816A891C08E0026972B1026847
:10457000526802F07F020A70816A491C8162C18D13
:10458000491E0904090CC18503D01BE0026852686A
:10459000F1E70168CA6822F02002CA600168CA68AF
:1045A00022F48072CA6001684A6922F001024A61FD
:1045B000202180F8421000214163026B012A03D0C0
:1045C000FEF7D0FE002008BD016301680C3151E800
:1045D000002F22F0100241E80023002BF5D10168E2
:1045E0000A68D20602D50A6849680091818DFEF7F3
:1045F00001FDE7E770B5044600680169E26821F44F
:104600004051114301612169A06808436169084371
:104610002168CA6841F20C639A430243CA60206869
:104620004169A26921F44071114341611E4920682A
:10463000884202D1FDF7BEFF01E0FDF7ABFF00EBC2
:10464000C00101EB0012606864218000B2FBF0F34E
:10465000B3FBF1F36FF018067343B2FBF0F5B2FB56
:10466000F0F605EB8305322303EB0515B5FBF1F5F9
:10467000B6FBF1F605F0F00505EB0615B2FBF0F61A
:10468000B2FBF0F0B0FBF1F06FF01802504306EB14
:10469000800003EB0010B0FBF1F0216800F00F0088
:1046A0002844886070BD0000003801408162828526
:1046B000C28500214164222180F84210016921B1A4
:1046C0000168CA6842F48072CA6001684A6942F0AF
:1046D00001024A610068C16841F02001C160002008
:1046E00070472DE9F843984617460D460446089E44
:1046F00024E0701C22D0FDF70FFCA0EB0800B042B4
:104700001AD8CEB12068C168490717D5802D15D0B9
:10471000402D13D00168C94309070FD40168002553
:10472000406800902046FFF7DDFE0820606484F8B2
:1047300040500120BDE8F8830320FBE720680068B3
:1047400035EA000004D00020B842D2D00020F1E7C2
:104750000120F9E710B51548FEF74EFC1448027821
:10476000401F0021027042B10123012A07D0052A0F
:1047700009D0032A0AD0072A0DD0417000E0437007
:104780008170C1700AE041708370FAE741708170F6
:10479000C170037103E041708170C3700171BDE8A5
:1047A0001040012202490148FEF7CEBDA8020020B8
:1047B000CD000020FEE700002DE9F0472B4C80469D
:1047C0000E46E06915462849814603F03DFA074642
:1047D0002062701903F036FB414603F035FC03F00C
:1047E000F5FA0646E06A03F02DFB616B884603F09C
:1047F00055FB0546304603F025FB064641464FF083
:104800007E5003F021FC314603F048FB294603F0BB
:10481000B3F903F0DBFAE062216B0546084444F685
:1048200020612063884202DC4942884200DA08465F
:1048300020632078012802D1002020632070206BA3
:1048400003F000FB394603F029FB0446284603F039
:10485000F9FA494603F022FB214603F08DF9BDE841
:10486000F04703F0B3BA0000000048435C000020AA
:104870002DE9F0410A4D0E4607461146A86903F09E
:104880000DFB04463146384603F0D4FB696903F05A
:1048900005FB214603F070F9BDE8F04103F096BA3C
:1048A0005C000020FEB50024094F4FF480750126FE
:1048B0003819CDE900060123002278210295054828
:1048C000FDF7F4FB641CE4B21B2CF1D3FEBD000029
:1048D0000000002034010020490050EAC12018BF28
:1048E00004204A0D18BF40F0010040F2FF72B2EB05
:1048F000515F08BF40F00200012808BF0520704743
:104900000907090E002804DB00F1E02080F80014FC
:10491000704700F00F0000F1E02080F8141D704790
:104920002DE9F0414F1E00EBC7010446D1E900011B
:1049300015461E4637F006020DD02A46334602F0D1
:1049400015FE7F1E04EBC703D3E9002302F0AAFB88
:1049500037F00602F1D1022F25D0042F13D0062FF5
:1049600018BFBDE8F0812A46334602F0FFFDD4E9C6
:104970000A2302F097FB2A46334602F0F7FDD4E9FA
:10498000082302F08FFB2A46334602F0EFFDD4E9FC
:10499000062302F087FB2A46334602F0E7FDD4E9FE
:1049A000042302F07FFB2A46334602F0DFFDD4E900
:1049B000022302F077FB2A46334602F0D7FDD4E902
:1049C0000023BDE8F04102F06DBB012203F0E5BB1E
:1049D00002F068BB002213461046114602F01EBCCE
:1049E000024A0020110703F0D8BB000001FDFFFFC1
:1049F00030380A2801D2012070470020704700009B
:104A00002DE9FE4F07460E460025684600F0F8FFE8
:104A100000246FF00F0AE8464FF0010957F8240010
:104A200056F82410401A00D5404203F00BFA5146C4
:104A300003F0E1FB58F8241011F0FF4F0BD003F006
:104A400003F94FF07E5103F0FFFA0A4920F00040CD
:104A5000884205DC07E0084908440849884202D337
:104A600009FA04F00543641C032CD7DB2846BDE893
:104A7000FE8F0000295C0F3E666666C19A99D900D8
:104A80002DE9F04D8D4F21F0004A86B005460C46C9
:104A9000BA452ADBAAEB070028430AD0884882459A
:104AA00001DC1AD1CDB106B02846BDE8F04DFFF7C4
:104AB0008CBF844A844B284602F058FD07460E46B8
:104AC000824A834B2846214602F050FD06B03A4602
:104AD0003346BDE8F04D02F0E5BA0120FBF796FD44
:104AE00006B0BDE8F04DFFF775BF7A48824542DA5F
:104AF000BAF1795F0BDA2846FFF7EEFE042808BF0B
:104B0000FFF76EFF284606B02146BDE8F08D2A4625
:104B10000B46104602F02AFD834602466E480E46BA
:104B20000B4606217844FFF7FBFE5A46334602F057
:104B30001DFD804669488A465A463346042178441A
:104B4000FFF7EEFE5A46334602F010FD00223B46C8
:104B500002F0A8FA02460B464046514602F05EFBC0
:104B60002A46234602F002FD06B02A462346BDE847
:104B7000F04D02F097BA284624F0004100223D464D
:104B80003B4602F0F1FD4FF0FF3203F006FB064614
:104B9000024653480F460B4606217844FFF7C0FEF5
:104BA00032463B4602F0E2FCCDE900014D48324678
:104BB0003B4604217844FFF7B3FE32463B4602F001
:104BC000D5FC00222B4602F06DFA83460291304656
:104BD000394602F0F9F9804643480D46504517DC46
:104BE000DDE900015A46029B02F018FB42462B46C3
:104BF00002F0BCFC42462B4602F054FA012203F0BC
:104C0000CCFA304A304B02F0A1FE304A304B4CE037
:104C10004FF0000A52460B46404602F043FACDE9F7
:104C2000031052462B461046194602F09FFC3246AE
:104C30003B4602F099FDDDE9033202F0EFFA064649
:104C40000F46DDE900015A46029B02F0E7FA83466F
:104C5000009101223046394603F09FFA194A1A4B57
:104C600002F082FD06460F4601224046294603F027
:104C700094FA5A46009B02F079FC32463B4602F019
:104C800065FE06460F4601225046294603F085FA86
:104C90000E4DDFF858802A46434602F065FD324645
:104CA0003B4602F061FD2A46434602F05DFD002CC2
:104CB000D8BF81F0004106B0BDE8F08D0000F03FA4
:104CC0000000F07F075C143326A6913C182D445455
:104CD000FB21F93F0000E03F984D0000AE4D000081
:104CE000224D0000384D00003333EF3FFB21E93FF8
:104CF0002DE9F84F04460D4621F00040009173491C
:104D0000814211DC7249884201DC06D12CB1204677
:104D10002946BDE8F84FFFF758BE6E48002DCCBFBE
:104D20006D496E49BDE8F88F6D49814211DD6D49CD
:104D30008142D8BF4FF0FF366DDD20462946FFF790
:104D4000CBFD042808BFFFF74BFE20462946BDE8EF
:104D5000F88F6549654F25F00045814233DD644990
:104D6000814219DD002632464FF080432046294615
:104D700002F098F980468A4601222046294603F02F
:104D80000CFA00223B4602F0E1FD4246534602F097
:104D900045FA04460D463EE001260022BA463B464F
:104DA0002046294602F07EF980460F4600225346EF
:104DB0002046294602F0CAFD42463B4602F02EFA42
:104DC00004460D4627E04B4981421BDDDFF828A150
:104DD0000226002253462046294602F0C7FB002245
:104DE0003B4602F05FF980460F46002253462046BC
:104DF000294602F0ABFD42463B4602F00FFA04465C
:104E00000D4608E0032622462B4600203B4902F0CF
:104E100005FA04460D4622462B461046194602F076
:104E2000A5FB8B46824602460B4602F09FFB0746D7
:104E30000246334888460B4606217844FFF770FD4A
:104E400052465B4602F092FB82462E488B463A461B
:104E5000434605217844FFF763FD3A46434602F096
:104E600085FB02460B46002E504659460CDA02F0EE
:104E700019F922462B4602F079FB01B022462B4657
:104E8000BDE8F04F02F070BC02F00CF922462B4650
:104E900002F06CFB1C4A7A4402EBC603D3E9002300
:104EA00002F054FD22462B4602F050FD174A7A4488
:104EB00002EBC603D3E9002302F056FC009A002A55
:104EC000B8BF81F00041BDE8F88F00000000104439
:104ED0000000F07F182D4454FB21F93FFB21F9BF5E
:104EE0000000DC3F0000203E0000F33F0000F03FE8
:104EF0000000E63F008003400000F83F0000F0BFE4
:104F00003A4B0000F84A0000964A00005E4A000052
:104F10002DE9F04D9446CCF1000423F000464CEA14
:104F20000404594F46EAD4749A46884621F0004258
:104F3000BC4206D8454240EA050442EAD474BC4269
:104F400004D9BDE8F04D6246FFF742BDAAF14055D5
:104F5000A5F17F6555EA0C040BD0022404EAAA747B
:104F60004A4DDFF82CE144EAD87452EA000B04D031
:104F70000CE0BDE8F04DFFF7BBBE002C14BF012CC8
:104F8000BDE8F08D022C30D0032C32D056EA0C0B49
:104F90000AD0BE4220D1BA4209D126F0804622F082
:104FA00080423346114617E000291ADB25E0DFF87E
:104FB000E4B0FB44002C04BFDBE90001BDE8F08D48
:104FC000012C02BFDBE9000181F00041BDE8F08D5A
:104FD000022C0AD0032C0CD0BA4212D1B8F1000F27
:104FE0000BDA2A482C49BDE8F08D28462B49BDE84C
:104FF000F08D28467146BDE8F08D24482849BDE86B
:10500000F08D921B12153C2AC4BF204F244E10DC99
:10501000BAF1000FBEBF12F13C0F00273E4608DB7D
:10502000624602F0FBF821F00041FFF761FE0746FF
:105030000E4694B1012C08BF86F000460DD0194AE7
:10504000194B022C3846314615D002F07FFC2A4617
:10505000BDE8F04D114B02F079BC002213463846F2
:10506000314602F033FA04BF0220FBF7CFFA38468C
:105070003146BDE8F08D02F069FC2A46BDE8F04DEE
:10508000064B02F071BB00000000F07F182D445465
:10509000FB2109C0F2490000FB21F9BFFB210940B7
:1050A000FB21F93F075C143326A6A13C08B560B18B
:1050B00020208DF8000028208DF8010030208DF888
:1050C000020038208DF8030004E0A3220421684682
:1050D000FBF7EEF96A46042140F69E2001F0DEFE61
:1050E00001F09CFB08BD00003EB5044602208DF88F
:1050F0000000CA208DF80100E3208DF8020009208D
:105100008DF803006A460421682001F0C7FEA32041
:105110008DF80000610609D5C0218DF80110C82165
:105120008DF80210C2218DF8031005E08DF8010002
:105130008DF802008DF8030014F4C07F09D0C4215B
:105140008DF80410CC218DF80510C6218DF80610BD
:1051500005E08DF804008DF805008DF806008DF847
:1051600008008DF807008DF809006A460A2140F60C
:10517000A72001F093FEA0074FF0D80503D0202010
:105180008DF8000001E08DF800506A46012140F6DC
:10519000B62001F083FEA00601D5012000E000202A
:1051A00000F08EF814F4C07F1ED0E0050AD5B220BE
:1051B0008DF800008B208DF80100B6208DF80200DC
:1051C0009B2009E0B0208DF8000080208DF80100C0
:1051D000B4208DF8020090208DF803006A46042167
:1051E00040F6A22001F05AFEE1074FF40B6022D0F6
:1051F000F8218DF800106A46012101F04FFEFA21D6
:10520000072000F049FB072000F014FB012000F00C
:1052100031FB642000F0D4FB4FF4FA7000F0E0FBA7
:10522000C821254800F0CEFA282000F0E3FA0A2031
:1052300000F0F0FA05E08DF800506A46012101F017
:105240002DFEA00703D5D9208DF8000001E08DF8D0
:1052500000506A46012140F23D7001F01FFE6007D8
:1052600001D5012000E0002000F048F8E00601D55B
:10527000012000E00020FFF719FF104D44F0080066
:10528000688101F0CBFA0020A873600601D50620E2
:10529000A87314F4C07F02D0A87B801DA87314F0FB
:1052A000140F02D0A87B1030A873A00702D0A87BEF
:1052B000001DA87300203EBD09E3CA02E0000020E3
:1052C0000EB54FF4976310B106A107C901E008A21B
:1052D00007CA8DE807006A460921184601F0DEFD7D
:1052E0000EBD0000B8AAB38DB4980D355D00000066
:1052F000B8AAAAAAB088C3C5C700000008B560B1A3
:10530000C0208DF80000C2208DF80100C4208DF867
:105310000200C6208DF8030004E08B2204216846B9
:10532000FBF7C6F86A46042140F6982001F0B6FD66
:1053300001F074FA08BD0000C8234FF480620249EE
:1053400040F6F63001F04CB98C8C00082DE9FF4F87
:1053500089B01746DDE916520024544E884681462E
:105360002C80A246B07B694601F0E6F94FF0FF3B86
:1053700018B158460DB0BDE8F08F708910F0140FC9
:105380004CD0BDF800109DF8022049BA090441EA4A
:1053900002239DF803100B433B60BDF804109DF8F9
:1053A000062049BA090441EA02229DF807101B149D
:1053B0000A437A60BDF808109DF80A4049BA09040A
:1053C00041EA04219DF80B4012142143B960BDF855
:1053D0000C409DF80EC064BA240444EA0C2C9DF8DD
:1053E0000F4009144CEA040CC7F80CC04FEA2C47D4
:1053F0005B43494302FB023207FB071111441024AF
:10540000A1F17061B1F1007F04D901F007FAA5F8AC
:1054100000A0AEE7298841F48071298042066946E0
:1054200011D50A19A41D13885BBAA8F80030538857
:105430005BBAA8F80230928852BAA8F804202A88E9
:1054400042F008022A8010F4C07F11D00A19A41D6E
:1054500013885BBAA9F8003053885BBAA9F8023008
:10546000928852BAA9F804202A8842F070022A8051
:10547000800716D00C44E07800F0C00500F03F0132
:105480006078C00706D0C80801F007013268491CDF
:1054900002B190476078000703D5716809B1A80987
:1054A00088470C9800F01EFE002063E7E000002013
:1054B0002DE9FF41044603A800F07AFFBDF80C0077
:1054C000410CC3032F48008900F0030254F8225016
:1054D000420700D56D42C0F3C102860654F822206F
:1054E00000D55242C0F38116C00554F8264000D5BD
:1054F0006442A5FB0367E81700FB037005FB01008E
:10550000850045EA9670A2FB0367D51705FB037576
:1055100002FB0152950045EA9672A4FB0367E5176A
:1055200005FB037304FB01318B0043EA9671030E04
:105530008DF80030030C8DF80130030A8DF802302D
:105540008DF80300100E8DF80400100C8DF8050086
:10555000100A8DF80600080E8DF80800080C8DF86A
:105560000900080A8DF80A008DF807208DF80B1045
:105570006A460C214FF4257001F090FC04B0BDE8A0
:10558000F0810000E000002030B5044613A285B091
:1055900007CA8DE807004FF0FF35C82C16D8C82081
:1055A000B0FBF4F1491E080A8DF80C008DF80D10BF
:1055B00003AA022140F2162001F070FC30B96A46BD
:1055C0000C2140F6C12001F069FC10B1284605B05D
:1055D00030BD054884810020F9E70000FEF2ABC42D
:1055E000AAF1DFDFBBAFDFDFE0000020F8B5304914
:1055F000098901F0030250F822404A0700D56442AD
:10560000C1F3C1028B0650F8222000D55242C1F3EB
:10561000811350F82330C80500D55B42254984FB2F
:105620000140850045EA947082FB0142A40F44EAE0
:10563000820483FB0121950F45EA8105010E8DF857
:105640000010010C8DF80110010A8DF802108DF880
:1056500003006A4604214FF4747001F01FFC4FF000
:10566000FF3688B9200E8DF80000200C8DF801005F
:10567000200A8DF802008DF803406A4604214FF499
:10568000757001F00BFC08B13046F8BD280E8DF89E
:105690000000280C8DF80100280A8DF802008DF812
:1056A00003506A4604214FF4767001F0F7FBF8BD11
:1056B000E000002009E3CA022DE9FF4104463CA0B6
:1056C00004F00303006802903AA0006803903AA037
:1056D00006683AA0056802A8C15C8DF80010C4F302
:1056E000C101425C8DF80120C4F38112805C8DF809
:1056F000020003A8C35C8DF80430415C8DF80510EE
:10570000805C8DF806006A46032140F2264001F0D5
:10571000C5FB4FF0FF37E0BB01AA032140F22A404E
:1057200001F0BCFBA8BBCDE9006560070BD59DF877
:10573000000040F001008DF800009DF8040040F0EA
:1057400001008DF80400A0060BD59DF8010040F083
:1057500001008DF801009DF8050040F001008DF872
:105760000500E0050BD59DF8020040F001008DF822
:1057700002009DF8060040F001008DF806006A4620
:1057800003214FF4886001F089FB10B901AA0321BD
:1057900000E004E040F2314001F080FB18B13846EF
:1057A00004B0BDE8F081064804810020F8E700005D
:1057B0004CCD6C000CC92C0036567600264666008F
:1057C000E00000204FF47A7290FBF2F008B54843F5
:1057D000010E8DF80010010C8DF80110010A8DF8F2
:1057E00002108DF803006A4604214FF4AE7001F0F8
:1057F00055FB08BD0521B0FBF1F008B5010A8DF895
:1058000000108DF801006A4602214FF4AD7001F0DE
:1058100045FB08BD0521B0FBF1F008B5010A8DF884
:1058200000108DF801006A4602214FF4AC7001F0BF
:1058300035FB08BD08B500218DF80010C10702D066
:1058400030218DF80010810705D59DF8001041F03A
:105850000C018DF80010400705D59DF8000040F0C0
:1058600003008DF800006A4601214FF4A47001F096
:1058700015FB08BD08B560B1042800D90420401EFE
:105880008DF800006A46012140F24F1001F006FB3E
:1058900008BD0120F3E700002DE9FC410546400763
:1058A0004FF0FF367CD0B1F5C86F79D8084602F0CA
:1058B000E1FA3E4902F0C8F9074601A800F05AFD96
:1058C0009DF80400022806D004280DD008282ED008
:1058D000102865D134E00E21384602F08CFC02F02D
:1058E00091FA84B2324907E00D21384602F083FC78
:1058F00002F088FA2F4984B2384602F0CFFA02F05B
:1059000081FA210A8DF8001080B28DF80140010A59
:105910008DF802108DF80300E8076C4620D022466F
:1059200002214FF4EA7001F0B9FAC8BB11E00C2172
:10593000384602F060FC02F065FA84B21E49DBE7EB
:105940000B21384602F057FC02F05CFA84B21B4986
:10595000D2E7A21C02214FF4927001F09FFAF8B92D
:10596000A8070DD56A4602214FF4EC7001F096FAB3
:10597000B0B9A21C02214FF4947001F08FFA78B9EB
:10598000680710D56A4602214FF4EE7001F086FADE
:1059900030B9A21C02214FF4967001F07FFA10B1C9
:1059A0003046BDE8FC810020FBE7000000004843D2
:1059B000000040460000C045000040450000C044D3
:1059C0000521B0FBF1F008B5010A8DF800108DF843
:1059D00001006A4602214FF4EF7001F05FFA08BD42
:1059E0000521B0FBF1F008B5010A8DF800108DF823
:1059F00001006A4602214FF4ED7001F04FFA08BD34
:105A00002DE9FE430646264801AB042240680D21DD
:105A10000078FEF757F810B10720BDE8FE839DF827
:105A200004101C2000EAD1029DF80710DFF87490E2
:105A3000C1F301131A438DF800209DF80520C1F32E
:105A4000810300EAD2021A438DF801209DF8062056
:105A500001F0030100EAD20008430024124F8DF840
:105A60000200A0466D46285D10B146F824900AE079
:105A700046F824800DE000BF56F82400394602F0B5
:105A80000DFA46F82400285D401E10F0FF0028554E
:105A9000F2D1641CE4B2032CE5D30020BDE7000082
:105AA0001C0000207B14AE3E1D5A843F2DE9FE4FA2
:105AB00005460120C14E8DF800004FF000088DF81A
:105AC000018030680C461746817C70686B46022264
:105AD0000078FEF784F84FF0FF3A00287AD1C8200A
:105AE000FCF7CEF88DF8008030686B460122C17B50
:105AF00070680078FEF773F80028EFD130686B46C5
:105B00000122417970680078FEF769F80028E5D134
:105B100030686B460122817C70680078FEF75FF880
:105B20000028DBD130686B460122C17D70680078A7
:105B3000FEF755F80028D1D130686B460122017973
:105B400070680078FEF74BF80028C7D14FF00C09B9
:105B50008DF8009030686B460122017970680078FA
:105B6000FEF73DF8002835D10F20FCF789F8B06A20
:105B70006B460122407A8DF80000306881787068A9
:105B80000078FEF72CF8002824D1B06A6B46012279
:105B9000007A8DF800003068417870680078FEF770
:105BA0001EF8002873D1B06A807A0FB140F0E0008F
:105BB0008DF8000030686B460122817970680078AA
:105BC000FEF70DF8002862D12FB1B06AC07A40F01C
:105BD000E00001E04AE018208DF8000030686B46D4
:105BE0000122C17970680078FDF7F9FFF0BB17B1A9
:105BF000C820FCF745F840208DF8000030686B465F
:105C00000122017970680078FDF7E9FF70BB782008
:105C10008DF8000030686B46012241797068007889
:105C2000FDF7DDFF10BB3220FCF72AF88DF800806D
:105C3000306847466B464179706801220078FDF76D
:105C4000CEFF98B931687068B046897A00786B46A3
:105C50000222FDF737FF48B9BDF80000AF6040BA37
:105C6000B0FBF9F06F60C6B22F6000E00FE0A760F4
:105C700067602760002739E0D8F80010D8F80400E2
:105C80006B46C97A00780C22FDF71CFF10B1504614
:105C9000BDE8FE8FBDF80000236840BA00B2BDF831
:105CA0000210BDF804201844206049BA606809B2A7
:105CB0000844606052BAA06812B21044A060BDF8F7
:105CC00006002B6840BA01B2BDF80800BDF80A20F2
:105CD0001944296040BA696800B20844686052BA41
:105CE000A86812B210447F1CFFB2A860B742C3D3A9
:105CF00028688322C117090441EA104100040023E7
:105D0000FAF772FA32460023FAF76EFA28606868EA
:105D10008322C117090441EA104100040023FAF765
:105D200063FA32460023FAF75FFA6860A8688322B4
:105D3000C117090441EA104100040023FAF754FA9C
:105D400032460023FAF750FAA86020684FF4006545
:105D5000C117090441EA104100042A460023FAF75A
:105D600043FA32460023FAF73FFA206060682A4679
:105D7000C117090441EA104100040023FAF734FA7C
:105D800032460023FAF730FA6060A0682A46C1174D
:105D9000090441EA104100040023FAF725FA3246CB
:105DA0000023FAF721FAA060002802DDA0F5803078
:105DB00001E000F58030A060002069E71C000020B1
:105DC0002DE9F84F81462E488846002540686B46ED
:105DD000032200780D21FDF775FE10B10720BDE804
:105DE000F88F9DF80000002400F01F008DF80000DF
:105DF0009DF801006FF00F0B00F01F008DF80100FF
:105E00009DF802006E4600F01F008DF802004FF072
:105E1000010A00BF59F8241058F82400081A00D5C8
:105E2000404202F00FF8594602F0E5F90746305DAE
:105E3000C0B1144802E0144902F030F8315D491E47
:105E400011F0FF013155F6D10146384601F0FCFE54
:105E50004FF07E5102F0F8F80C4920F000408842E3
:105E600005DC07E00A483844B0F1D97F02D90AFAC4
:105E700004F00543641C032CCCDB2846AFE700008C
:105E80001C0000200000C84154E3853F295C0F3E00
:105E90000000E0BE00B5024600F00DF80346D01C3D
:105EA00000F009F843EAC003901D00F004F843EA4B
:105EB000801080B200BD90F90010002902DD4FF083
:105EC0000000704702DA4FF00400704790F90110AB
:105ED000002902DD4FF00100704702DA4FF00500A3
:105EE000704790F90200002802DD4FF00200704771
:105EF00002DA4FF0060070474FF0070070470000CD
:105F0000FCF7ACF9FEF770F9FDF7BAFEFDF72CFFD0
:105F1000FDF7D8FFFDF748FFFDF7A0FFFEF706F8F5
:105F2000FEF73AF8FDF784FEFEF76EF8FEF752F83A
:105F3000FDF770FD00F0D0F90021102345A20846BE
:105F4000FEF7C0F8002211461720FCF7E5F91720EC
:105F5000FCF7D4F900214448FCF7FEFF0C2142482D
:105F6000FCF7FAFF3C214148FCF7E0FE3C214048A9
:105F7000FCF7DCFE00210846FDF7DCFC01223D4970
:105F80003D48FDF7E1F94FF47A7423460E223BA118
:105F90003948FDF7E8F93D48FBF7A2FDFEF71AF88E
:105FA000A0463B4C3B4D3C4E3C4FDFF8F4A0DFF8A5
:105FB000F4B04FF06639206801F0B2FD02460B469E
:105FC00039A13C48FAF734F900211023394A084630
:105FD000FEF778F8FBF734FC286801F0A1FD0246D3
:105FE0000B4635A13348FAF723F91023314A022131
:105FF0000020FEF767F8FEF7B3F8336831A12D48AB
:106000003A68FAF715F910232A4A04210020FEF70E
:1060100059F81E48FBF7A6FC01F094FA4A4653468D
:1060200001F0A4FA00225B4601F0F8F802460B46A4
:1060300028A12048FAF7FCF810231E4A0621002068
:10604000FEF740F8434614221A490B48FDF78BF936
:10605000B1E700004D505520496E697420537563B7
:10606000636573730000000088010020D0010020E8
:1060700060020020CD000020A802002048656C6C62
:106080006F20576F726C64210D0A0000040100201C
:10609000A00000205800002098000020940000205C
:1060A00066660A4000FEAF40526F6C6C3A252E3295
:1060B00066202000F0000020446973743A252E32D7
:1060C000662020004C3A2530356420523A25303580
:1060D00064200000566F6C746167653A252E326645
:1060E00020200000704700002DE9F041124C20F004
:1060F0000101002594F8240010B10020BDE8F081D2
:10610000A07A4FF0FF3668B10840277C207488429F
:1061100000D0354641B1012000F02AFF00F07EFB9F
:1061200038B127743046E9E7207D00B1012000F046
:106130001FFF2846E2E700001C0000202DE9F74F72
:106140008EB00CA902A8CDE900010BAB03AA09A9E6
:1061500007A8FFF7FBF818B1012011B0BDE8F08FD8
:10616000BDF80800C0057DD5039801F06BFE6FF007
:106170001D04214602F03FF88246049801F062FEB9
:10618000214602F038F88146059801F05BFE214671
:1061900002F031F88046069801F054FE214602F0E4
:1061A0002AF805460121504602F025F806464146E8
:1061B00001F074FE04464FF04041484601F06EFE87
:1061C0000746294601F06AFE214601F0D5FC01F0A0
:1061D000A7FCFEF755FC4FF0663B5A463D4B01F0DD
:1061E000C5F900F02DFF0E9908600121404602F02C
:1061F00002F84146009001F051FE044638464946F7
:1062000001F04CFE214601F01FFF4FF07E5101F0DE
:10621000B3FC01F085FC07460C463046494601F0C8
:106220003DFE06462946009801F038FE314601F051
:10623000A3FC01F075FC3A462346FEF769FE5A4678
:10624000244B01F093F900F0FBFE0F9908602946FA
:10625000084601F023FE07464146084601F01EFEAF
:10626000064600E034E04946084601F017FE0446C1
:106270005146084601F012FE214601F07DFC3146F0
:1062800001F0E2FE394601F0DFFE01F049FC06466E
:106290000C462946504601F001FE05464146484657
:1062A00001F0FCFD294601F067FC012101F0A3FF8C
:1062B00001F036FC32462346FEF72AFE5A46054BCD
:1062C00001F054F900F0BCFE10990860002044E78A
:1062D000022042E766A64C4010B5FDF725FA00F013
:1062E000EDF808B10A2010BD782000F07BFD10F019
:1062F000FF0F01D0012010BD7820FFF7F5FE10F050
:10630000FF0F01D0022010BD642000F02BFD10F023
:10631000FF0F01D0032010BDFFF70EF810F0FF0FA4
:1063200001D0042010BD1248FFF7B4FDFFF7C4F9F7
:1063300010F0FF0F01D0052010BD40F27310FEF7E2
:10634000D3FE10F0FF0F01D0062010BD6420FFF730
:106350001BF910F0FF0F01D0072010BD00F0C8FDA1
:10636000012000F025FC10F0FF00F6D0092010BD40
:10637000480000200D494A7A42B1012A08D0022A79
:106380000FD0032A0FD04FF0FF307047022200E0F9
:1063900004220270C97C11B11106C90D01700020E0
:1063A00070470822F5E71022F3E700001C000020E8
:1063B0000F494A7A42B1012A09D0022A11D0032A90
:1063C00012D04FF0FF3070474FF4804201E041F6A9
:1063D0009C720280C97C11B1C2F34E010180002081
:1063E00070474FF48052F4E74FF40062F1E7000089
:1063F0001C0000200B49097A39B1012907D0022974
:106400000AD003290BD0002103E0FA2101E04FF468
:10641000FA710180002070474FF47A71F9E74FF468
:10642000FA61F6E71C0000200A49097A41B1012906
:1064300008D002290AD003290AD04FF0FF30704754
:10644000054900E005490160002070470449FAE76A
:106450000449F8E71C0000200000034300008342C9
:1064600033330342333383410C49C97A072913D2AA
:10647000DFE801F01204060A0C0E1000BC2100E057
:1064800062210180002070472A21FAE71421F8E7F1
:106490000A21F6E70521F4E70021F2E71C000020BD
:1064A000054991F8242012B14FF0FF307047C98997
:1064B00001800020704700001C0000202DE9FC41F5
:1064C000464C80208DF8000020686B460122817CBC
:1064D00060680078FDF783FB4FF0FF37002875D127
:1064E0006420FBF7CDFB00258DF8005020686B463B
:1064F0000122817C60680078FDF771FB002865D17E
:1065000020686B460622817D60680078FDF7DAFA24
:1065100000285BD19DF805009DF80310C007400FCF
:1065200001F0010140EA41009DF801104FF0010621
:1065300001F00101084304D0012831D0022810D015
:1065400044E020686B460122C17860680078FDF75E
:10655000B9FAD8BB9DF8000010F00F0036D004281F
:106560001ED0E574FF2004F80A0F4FF6FF7104F8FF
:10657000020C04F8010C6070A180A0712072A6705A
:1065800026766576E572A572E56025616561A5767A
:10659000E576A5834FF4FA6000F046FBB0B901E060
:1065A000E674DFE7022000F061FA78B92A2000F0F3
:1065B000A3FB58B9322000F0D5FB38B90020FFF713
:1065C00093FD18B9002000F085FA10B13846BDE8F7
:1065D000FC81002000F006FC0020F8E71C000020F1
:1065E0002DE9FF4FDFF89480064685B098F8250026
:1065F00015460F464FF0FF39B0BBAFB3002420E083
:10660000301B102800DD102080B283463A19014665
:106610009246204600F042FC30BB6A46594620466E
:1066200000F0D2F800BB50465A466946F9F714FF0D
:1066300020B16FF0010009B0BDE8F08F04EB0B0052
:1066400084B2B442DCD3280A8DF810008DF81150C2
:10665000D8F80000444604AB817ED8F8040002223A
:106660000078FDF7BCFA08B14846E4E7012084F859
:1066700025000898E0840020DDE700001C000020D1
:106680002DE9F84305464FF0FF39282844D807275D
:10669000284C00267DB1012000F0FCFA20208DF866
:1066A00000004FF00108012D17D0052D18D88DF8E6
:1066B000018005201FE0002000F0ECFA8DF800605A
:1066C0008DF8017020686B460222817C606800783A
:1066D000FDF785FA00BB267529E08DF80160E8E733
:1066E000142D04D802208DF801000A2003E00320B5
:1066F0008DF80100142000F0FFFA9DF801006B46B0
:1067000007EB80108DF8010020680222817C606810
:106710000078FDF764FA10B14846BDE8F883082018
:10672000A072267384F814800020FFF7DDFC00209F
:10673000F3E700001C0000202DE9F843214C064639
:10674000174694F8240089464FF0FF3890B3A07A9A
:1067500080B320686B460222817A60680078FDF77A
:10676000B1F938BBBDF8000045BAB54202D20020ED
:1067700038701FE060684188B5EB510F11D921686E
:1067800000786B46497C0122FDF79CF990B99DF891
:106790000000C00605D500F041F86FF00100BDE82B
:1067A000F8832068F2B24B46C17A60680078FDF742
:1067B00089F908B14046F2E7B5FBF6F0401E3870A3
:1067C0000020ECE71C000020F8B516000D464FF045
:1067D000FF371FD0104CA17AE1B1010A8DF80010EB
:1067E000C0B28DF80100411960684289914211D808
:1067F000216800786B46097E0222FDF7F0F948B95E
:106800002068EAB23346417D60680078FDF75AF9A6
:10681000002800D03846F8BD1C000020F8B5564CC2
:106820004FF0FF36A07A00287DD000258DF800506B
:1068300020686B460122C17B60680078FDF7CFF9C4
:10684000002870D120686B46012241796068007889
:10685000FDF7C5F9002866D120686B460122017951
:1068600060680078FDF7BBF900285CD194F824003B
:10687000E0B30C208DF8000020686B4601220179FE
:1068800060680078FDF7ABF9002872D13220FBF781
:10689000F7F9C0208DF80000A07AC00702D0E020F0
:1068A0008DF8000020686B4601220179606800784D
:1068B000FDF795F900285CD1607C18B102208DF8B5
:1068C000000001E08DF8005020686B460122C17B7A
:1068D00060680078FDF783F928BB8DF800502068C8
:1068E0006B4601224179606800783EE0FFE70420B2
:1068F0008DF8000020686B460122017960680078FD
:10690000FDF76DF978B9A07C90B9A07AC0070FD0D7
:106910005FF060008DF8000020686B46012201796D
:106920006068007800E024E0FDF759F908BB01E059
:106930004020EFE73220FBF7A3F9607C18B101207B
:106940008DF8000001E08DF8005020686B460122B0
:10695000C17B60680078FDF742F950B92068064BAA
:1069600001224179606810330078FDF738F900287A
:1069700000D03046F8BD00001C0000202DE9F04793
:10698000394C82468AB094F824000F4620B100208A
:1069900000F00EF9012600E0002607A8FFF72AFD07
:1069A00006A8FFF7E7FC09A8FFF75EFD08A8FFF7B8
:1069B00077FD94F80A9094F810800025002239465B
:1069C0005046FFF773F810B16D1C022DF6DB022D57
:1069D0001AD00025012203A96846FFF767F810B115
:1069E0006D1C022DF6DB022D0ED003A93846FEF7F2
:1069F00007F8C7B269465046FFF7E2F910F0FF0FFB
:106A00004FF0000502D002E0002503E001250FB998
:106A100045F00205FF2020726072E0724FF6FF71B0
:106A2000E181A072207401202073BDF81C0000F0E9
:106A3000FBF89DF8180000F019F8BDF8240000F0EC
:106A40005BF9BDF8200000F08DF9484600F0CAF966
:106A50004046FFF749FB16B1012000F0A9F80AB043
:106A60002846BDE8F08700001C00002038B5184C0F
:106A70004FF0FF35A17A19B3022806D0042806D0BA
:106A800008280ED010281BD10DE0002000E00820BF
:106A90008DF80000607A9DF80010B0EBD10F04D0A3
:106AA00005E01020F4E71820F2E7002038BD206848
:106AB0006B460122C17960680078FDF790F808B153
:106AC000284638BD9DF80000C0086072EDE7000060
:106AD0001C000020F8B5354C0546A07CA84201D129
:106AE0000020F8BD31484FF0FF366B46D0E900106A
:106AF0004FF001020979007835B3FCF7E3FF70BB72
:106B00009DF800006B4620F020008DF80000206802
:106B10000122017960680078FDF761F8F8B9032077
:106B2000FBF7AEF802208DF8000094F8220078B34D
:106B300082202BE020686B460122017D606800788E
:106B4000FDF74DF858B92EE0FCF7BCFF38B9A07A34
:106B5000C0079DF8000003D040F0200002E00CE0E8
:106B600020F020008DF8000020686B46012201799A
:106B700060680078FDF733F808B13046F8BD0320AF
:106B8000FBF77EF894F8220000B180208DF8000019
:106B900094F823000028CDD09DF8000040F030008C
:106BA0008DF80000C6E7A5749AE700001C000020DD
:106BB00038B51C4C94F8241081421DD0002500B338
:106BC00094F82500D0B1002000F0D2F90020FFF7A2
:106BD00081FFE08C00F0C6F88DF8005060686B46CD
:106BE000012200782321FCF7FAFF012084F8240019
:106BF00000F0BEF9FFF712FE002038BD4FF0FF3065
:106C000038BD002000F0B4F9207C8DF800006068E9
:106C10006B46012200782321FCF7E1FF84F8245021
:106C2000E8E700001C00002038B5194C4FF0FF3594
:106C3000A17A31B3FA2809D0B0F5FA7F08D0B0F5BF
:106C40007A7F0FD0B0F5FA6F1BD10DE0002000E085
:106C500008208DF80000207A9DF80010B0EBD10FCD
:106C600004D005E01020F4E71820F2E7002038BD3A
:106C700020686B460122817960680078FCF7AFFFDD
:106C800008B1284638BD9DF80000C0082072EDE725
:106C90001C00002038B5174C054694F82300A84284
:106CA00001D1002038BD0DB1302000E000208DF86A
:106CB0000000A07C28B19DF8000040F002008DF893
:106CC000000094F8220028B19DF8000040F08000F8
:106CD0008DF8000020686B460122017D6068007815
:106CE000FCF77DFF10B14FF0FF3038BD84F8235022
:106CF000D7E700001C00002038B5194C4FF0FF35D5
:106D0000A17A31B3BC2801D3012010E0622801D35D
:106D100002200CE02A2801D3032008E0142801D324
:106D2000042004E00A2801D3052000E006208DF8A5
:106D30000000E07A9DF80010884201D1002038BDA3
:106D400020686B460122817860680078FCF747FF75
:106D500008B1284638BD9DF80000E072EEE700005B
:106D60001C000020F8B51E4D04464FF0FF37A87AEE
:106D700048B395F8240030BB287D4FF47A7648B1AB
:106D800064B1282C03D8E0B2FFF77AFC26E000209B
:106D9000FFF776FC042C05D2042406E00020FFF760
:106DA0006FFCF9E7B44200D93446B6FBF4F0401E5C
:106DB0008DF8000028686B460122417868680078E9
:106DC000FCF70DFF08B13846F8BD9DF80000401CE7
:106DD000B6FBF0F0E8814008FFF78EFF0020F8BD19
:106DE0001C000020F8B5054610F0700F4FF00006AB
:106DF00001D0012004E015B18DF8006002E04020D0
:106E00008DF80000244C6B4601222068817C60686C
:106E10000078FCF7E4FE4FF0FF3760BB9DF8000000
:106E200020F0400020738DF80060680602D4042032
:106E30008DF80000A80605D49DF8000040F002007F
:106E40008DF80000E80605D49DF8000040F0010030
:106E50008DF80000280705D49DF8000040F03800A8
:106E60008DF8000020686B460122C17C60680078C4
:106E7000FCF7B5FE10B1A6723846F8BD25B1082D55
:106E800002D00020FFF706FFA57226753220FAF720
:106E9000F7FE0020F8BD00001C000020F8B5160029
:106EA0000D464FF0FF371FD0104CA17AE1B1010A17
:106EB0008DF80010C0B28DF8010041196068428958
:106EC000914211D8216800786B46097E0222FCF7B6
:106ED00086FE48B92068EAB23346417D6068007892
:106EE000FCF77DFE002800D03846F8BD1C000020CD
:106EF00010B588B0694604A8FFF740FD032802D00A
:106F0000012008B010BD07A8FFF78EFA049800F022
:106F100099FF07990C4600F0C1FF00F057FF04905D
:106F2000059800F08FFF214600F0B8FF00F04EFFFB
:106F30000590069800F086FF214600F0AFFF00F0B4
:106F400045FF069004A8FEF751FB03A8FFF730FAAF
:106F5000BDF80C0000994143009101994143019112
:106F60000299414368460291FEF7A2FA0020C8E761
:106F7000F8B5144C0146224694F82460D2E9000288
:106F800000235D1E56B179B1022111E0C17B10785A
:106F90006B460122FCF723FE68B90EE0A67A56B1D3
:106FA00011B1617C61B902E08DF80030EEE701219A
:106FB0008DF80010EAE72846F8BD9DF800006074DF
:106FC0000020F8BD1C0000202DE9F04106460F46C8
:106FD00000F0D6FB041E0D4618BF0120284320F008
:106FE0000040C0F17F6000F1E040C00F0ED0301CC7
:106FF00018BF0120384320F00040C0F17F6000F14D
:10700000E040C00F04BF0120F9F700FB20462946ED
:10701000BDE8F08110B500290AD00878002807D013
:1070200005487844F9F7D2FE002801D0002010BDB1
:107030000248784410BD0000422A00003A2A0000AD
:1070400021F00042A2F16052B2F5801F01F000432E
:1070500028BFD2F17F6C0BD95FEA001C43EAC20261
:1070600042EB507018BF704728BF20F001007047F6
:10707000B2F5801FBCBF184670474FEA410C1CF5A3
:10708000001F02D2084600F0D0BF70B500F018FB18
:1070900000000089FFF7F6BF4FF00040A0F5800028
:1070A0007047000010B591EA030F48BF83F000431A
:1070B00000F15484841A71EB030C05D2121943EBCE
:1070C0000C03001B61EB0C01DFF824E14FEA1154C3
:1070D000A4EB135C1EEA430F18BF9EEA445F73D013
:1070E00023EA0E03DCF1200E21EA045143F480135D
:1070F00032D322FA0CFE10EB0E0023FA0CFE41EB09
:107100000E01CCF1200E03FA0EFE10EB0E0051F131
:107110000001B1F5801FCCF1200E32D201EB0451F9
:1071200012FA0EF2BDE8104058BF7047401C38BF3D
:107130005FEA420218BF7047002814BF20F0010028
:1071400041F100014FEA410313F5001F38BF7047BA
:10715000A1F1C04100F002BB012A43EB0302ACF1F4
:10716000200CDCF11F0E32BF4FF0000E23FA0CF39F
:1071700010EB030041EB0451B4EB115FD0D0A1EB55
:10718000045101F5801149085FEA300001EB045118
:107190000ED350F1000038BF12FA0EFE08D1BDE840
:1071A0001040C9E7401C38BF5FEA4202CAD1C3E7BA
:1071B000BDE810404FEA410313F5001F38BF704788
:1071C000A1F1C04100F0CABA9EEA445F08D011EABA
:1071D0005E0FBDE8104004BF01F000410020704781
:1071E000BDE8104070B500F06BFA00BF64FBBE3E16
:1071F0000000E0FF02494FF0000000F09CBF00BF1C
:107200000000F87F491058BFC1F140415B1058BFE2
:10721000C3F140438B42EFF3008070472DE9C0413A
:1072200030B4DFF8A0C23CEA111418BF3CEA1314D2
:1072300000F0EC8081EA03051CEA111444EAD574DD
:1072400018BF1CEA131500F0C780A4EB05044FF02B
:10725000004545EAC12145EAC32341EA505143EACA
:10726000525304F17F74994204F500344FEAC02070
:107270004FEAC22208BF904200F09C804FEA13659B
:107280000FF24016765D4FEA134506FB05F7C7F18E
:10729000807706FB07F74FEAD737A7FB03687642EC
:1072A000C8F58038A7FB06CE38BFA8F1010807FB58
:1072B00008E64FF0000EA6FB028CE6FB03CEDCF1E5
:1072C000000CCEF1004E38BFAEF1010EA6FB0C58FB
:1072D0004FF000074FF00005E6FB0E87A1FB08C644
:1072E000A0FB07CE16EB0E0645F10005E1FB076596
:1072F00015F1E04E7EBFA4F580345FEA46066D418D
:1073000016F1800745F100054FEA17274FEA066698
:1073100047EA0567A6F1DE46B6F1805F4FEA15251C
:107320001FD9384624F0010C05EBC471BCF1FE6F87
:1073300001EB0C1102D8F0BCBDE8008124425CBF17
:1073400001F5801E9EEAC47F02D4F0BCBDE8008136
:10735000244238D4F0BCA1F1C041BDE8004100F0A6
:10736000FDB94FEAD22242EA43524FEAD323A7FBA8
:1073700002864FEAD02040EA415007FB03661EEA2E
:107380000E0F4FEAD12105FB026658BFA6EB00564F
:10739000B6EB00564FEA520E4EEAC37E18EB0E0EC5
:1073A00056EB530EBDD518EB02085E417F1C55F11C
:1073B0000005B6E74FF480154FF000074FF00006C8
:1073C0004FF00008ADE7F0BC4FF0000001F1C04104
:1073D00001F00041BDE8008111EA0C1F0CEA131511
:1073E00000D00CE013EA0C1F00F025804FF00000E5
:1073F000F0BC81EA030101F00041BDE80081F0BC6E
:10740000BDE8004181EA030100F0A8B9F0BCBDE885
:10741000004170B500F054F9097EFC3E00F007B859
:1074200081EA03014FF0000001F00041704781EA5A
:10743000030100F093B9F0BCBDE800414FF000003B
:1074400021497047FFFDFBF9F7F5F4F2F0EEEDEBA3
:10745000E9E8E6E4E3E1E0DEDDDBDAD8D7D5D4D352
:10746000D1D0CFCDCCCBCAC8C7C6C5C4C2C1C0BF9E
:10747000BEBDBCBBBAB9B8B7B6B5B4B3B2B1B0AFA4
:10748000AEADACABAAA9A8A8A7A6A5A4A3A3A2A188
:10749000A09F9F9E9D9C9C9B9A9999989797969543
:1074A00095949393929191908F8F8E8E8D8C8C8BDF
:1074B0008B8A898988888787868585848483838267
:1074C000828181800000FF070000F87F51EA030CF1
:1074D00017D41CF5801F58BFBCF5801F00F1068033
:1074E000994218BF704708BF9042704707D711F5FF
:1074F000801F58BF13F5801F19D4994270478942E5
:1075000070471CF5801F08D5BCF5801FF7D58B424E
:1075100018BF704708BF824270474FF4001C1CEB35
:10752000410F38BF1CEB430F01D28B42704770B53F
:1075300000F0C6F8922449004FF000514FF08053FC
:10754000FFF760BEB0FA80F310FA03F10AD0C3F17E
:107550001D0303F580634FEA41504FEA035202EBEB
:10756000D12170474FF0000070470000DFF848C19C
:1075700070B51CEA111E1EBF1CEA13159EEA0C0F03
:1075800095EA0C0F00F06F8081EA030423EA4C13A4
:107590004EEAD47E21EA4C1141F4801143F4801369
:1075A000AE44A1FB024CA0FB0365AEF17F7E361911
:1075B00055EB0C05A1FB034C4CF10003A0FB021C96
:1075C00016EB0C06654153F10003094218BF46F063
:1075D000010613F4007F0BD14FEA03314FEA053067
:1075E000340341EA155140EA16506FF003020AE0F5
:1075F0004FEAC3214FEAC520F40241EA555140EA5F
:1076000056506FF0020202EB2E4201EB025585EA62
:10761000CE710AD05FEA440C18BF24F0004450F148
:10762000000041F1000120EAD47040F2FE7C624586
:1076300000D270BDA84214BF4FF080444FF04044C8
:10764000002E08BF0024BEF1806FA8BFA1F1C04189
:10765000BDE8704080F282804FF0000001F1C0412F
:1076600001F0004170479EEA0C0F0CEA131518BF99
:1076700095EA0C0F06D04FF0000081EA030E0EF0E1
:10768000004170BD00F01CF88900013E00F007B811
:1076900000F009B84FEA430C5FEA5C5C08D081EA6D
:1076A000030100F05BB84FEA410C5FEA5C5CF6D185
:1076B0004FF00000014970470000FF070000F87F0D
:1076C0000EF1020E2EF0030E5EF8046B364205D466
:1076D000012A43EB030515F5001F12D8012841EBE1
:1076E000010C1CF5001F0CD80ED14FEAD17C15F50A
:1076F000001F0CEB4C0C0CF1020C08BF4CEBD37CC4
:1077000004E04FF0080C01E04FEAD37C0CEB4C0591
:1077100026FA05F606F00706B6F1040C06D20EEBC3
:10772000860CBDE870404CF0010C6047DFE80CF0BF
:10773000090B02024FF000414FF00000A1F50021BB
:1077400070BD19461046012851EB010418BFD4F54D
:10775000001484BF002001F0004170BD0808A0F5AE
:1077600000114FEA3101704791EA030F10B581F023
:1077700000413FF59FAC83F0004300F0EFB80000FC
:107780002DE9F04101F5801CBCF5001FC0F2C3805B
:107790004FEA115C21EA0C510CF1FD0C41F480110F
:1077A0005FEA5C0C0CF5C07C01D3400049413DA46C
:1077B000890241EA905187028E0E0A0CA45D04FBF7
:1077C00004F602FB06F6C6F14046A4FB0662F60D7F
:1077D00046EA422606FB06F4A4FB01235242C3F10B
:1077E000404338BF5B1EA6FB02420024E6FB032495
:1077F000D20B42EA4446A6FB0623A1FB02E2A3FB0E
:1078000007E4A4184FF0000252F10002E3FB01422A
:107810006442C2F1404E38BFAEF1010EA6FB042314
:107820004FF00002E6FB0E32A2FB03464FF00004CD
:10783000B61954F10004E2FB0264A1FB06E6A4FBC6
:1078400007E816EB08064FF0000858F10008E4FBC3
:1078500001687642C8F1405838BFA8F10108A2FB80
:1078600006E4A3FB08E52D194FF0000454F10004D1
:10787000E2FB0854A1FB05E6A7FB04E818EB0608A9
:107880004FF0000656F10006E1FB048618F12005D2
:1078900056F10006A809A8F11B08B10908F03F0835
:1078A000B8F10A0F40EA86601CD901EB0C51BDE823
:1078B000F08100BFFCF5EEE8E2DDD8D3CFCBC7C343
:1078C000C0BDB9B6B4B1AEACA9A7A5A3A19F9D9BFD
:1078D0009A9896959392908F8D8C8B8988878685C0
:1078E00084838281A0FB006800FB01F208EB420860
:1078F000B8EB872807D5341858EB0104D5D5401CC0
:1079000051F10001D1E7341A78EB0104CDD4401EC7
:1079100071F10001C9E75FEA4C0C5FEA9C5C0DD194
:1079200005D34FF0000001F00041BDE8F081BDE853
:10793000F04170B5FFF7C4FE6DDBFFBEBDE8F0415E
:107940004FF00000004970470000F87F10B591EA41
:10795000030F48BF83F000433FF5ACAB841A71EBD3
:10796000030C07D212198CF0004C43EB0C03001BE4
:1079700061EB0C01DFF8A4E14FEA1154A4EB135CB6
:107980001EEA430F18BF9EEA445F00F0B08023EA6E
:107990006E03524221EA0451C3EB6E0338BF5B1EF3
:1079A000DCF1200E25D322FA0CFE10EB0E0043FA78
:1079B0000CFE41EB0E01CCF1200E03FA0EFE10EB93
:1079C0000E0051F10001CCF1200E29D412FA0EF272
:1079D00001EB0451BDE8104058BF7047401C1CBF6C
:1079E000B2F1004F704700280CBF491C20F0010085
:1079F000704712EB020E43EB030218BF4FF0010E6B
:107A00004EEA4202ACF1200CDCF11E0E54D943FACE
:107A10000CFE10EB0E0051F1FF31CCF11E0ED5D54E
:107A20000EF1010E12FA0EFE404141EB010101EB95
:107A3000445C5FEA5C5C10D910EBDE7001EB045132
:107A400038BFBEF1004FBDE8104018BF7047002896
:107A50000CBF491C20F00100704730D24FEAD42CF3
:107A600011F5001124F400641BD0B1FA81F20B3A35
:107A7000A41AA41ED2F12003914030FA03F3194353
:107A8000904001EBCC71002C01EB0451BDE810409B
:107A9000A8BF704701F1C0414FF0000001F0004164
:107AA0007047B0FA80F310FA03F100D110BDE41A68
:107AB000173C4805C90AE4E701EB045110BD491021
:107AC00001EB0451BDE810404FEA300002E04FF0F6
:107AD000000170474A0008BF0042F8D0B2F5001F0D
:107AE00028BF704701F000414FF0000070479EEA48
:107AF000445F07D011EA5E0FBDE8104004BF0021CB
:107B000000207047BDE8104070B5FFF7D9FD00BFF9
:107B100040DFF63E83F00041104670470000E0FF72
:107B200043004FEAD30C4FEA3C0C43401FBF4007D1
:107B30000CF1605113F0FE4F70471CF0006F03D141
:107B400000200CF0004170470CF0004343EA5070F5
:107B500010B540EACC0000F022FA00BF000000920D
:107B60004FEA0001FFF7FABD4FF000414FF000006F
:107B7000A1F500217047000090EA010F48BF81F095
:107B8000004100F16882421A3CBF801A89184FEA0E
:107B9000D0524FF07F4C1CEA410FA2EBD15318BFDB
:107BA0009CEA026F00F03B804FF0004C4CEA002052
:107BB0004CEA012121FA03FC10EB0C0C1ED202F15D
:107BC000FF325FEA1C2040EBC25038BF70471CF008
:107BD0007F0F4FEA400C18BFBCF17F4F38BF704792
:107BE000C3F12003994008BF20F00100BCF17F4F92
:107BF00038BF7047A0F1C04000F017BA4FEA3C0010
:107C0000000A40EBC25028BF1CF0FF0F4FEA400CA7
:107C1000E6D018BFBCF17F4F38BF7047EAE79CEA57
:107C2000026F05D010EA5C0F08BF00F000407047FB
:107C300010B500F0B4F900BF64FBBE3E014800F08F
:107C40007ABA00BF0000C07F4FF47F0C1CEAD0124C
:107C50001EBF1CEAD11392EA0C0F93EA0C0F00F03E
:107C6000858090EA010F48BF42F4807240F4000C16
:107C700041F400002CF07F4120F07F4000B58142AC
:107C8000A2EB03020FF2081CACEB504EC0F1000057
:107C90009EF800E04FEA4E0E00FB0EFC38BF490094
:107CA0004FEA2C1C02F5FA020CFB0EF34FEACE1E33
:107CB0004FEA112C4FEAC1210EEB635E42EB2242E8
:107CC0000EFB0CFC4FEA1C5300FB03114FEA112C76
:107CD0004FEA01310EFB0CFC4FEADC4C00FB0C11AF
:107CE000C14228BF09184CEB03335DF804EB10EBDD
:107CF000410143EBC250B2F57C0F38BF704729D524
:107D000012F0F00F1CBF00F1C04000F000407047BF
:107D1000008182838485868788898B8C8D8E8F9164
:107D20009293959697999A9C9D9FA0A2A3A5A7A888
:107D3000AAACAEB0B2B3B5B7B9BCBEC0C2C5C7C9B4
:107D4000CCCED1D4D7D9DCDFE2E6E9ECF0F3F7FA18
:107D5000FE0000004FEA400C0CF1807CBCF17E4F2D
:107D600028BF7047B0F1C04000F05FB990EA010F42
:107D70000CEAD11348BF42F48072624538BF6345B4
:107D800007D213F47F0F16D080EA010000F0004004
:107D9000704710B500F003F9097EFC3E00F005B80D
:107DA00080EA010000F00040704780EA010000F026
:107DB000004000F03AB912F47F0F04BF0248704748
:107DC00080EA010000F031B90000C07F41000B0ED5
:107DD000D3F19E0208D950F400034FEA032323FA9B
:107DE00002F048BF4042704710B500F0D8F800BF1D
:107DF00049922480002070476FF0004282EA200000
:107E000070470000C10DD1F19E0206DB4FEA00234E
:107E100043F0004323FA02F07047004207D54FEACF
:107E20004001B1F1FE4F02D24FF00000704710B593
:107E300000F0B5F849922480002070476FEA2000D6
:107E40007047000010F0004148BF4042B0FA80F394
:107E500010FA03F2C3F19D030BD051EAC35101EBB9
:107E60001220530638BF704700F1010008BF20F010
:107E700001007047B0FA80F310FA03F2C3F19D03DA
:107E80000AD0D90501EB1220530638BF704700F124
:107E9000010008BF20F00100704700004FF47F0C84
:107EA0001CEAD0121EBF1CEAD11392EA0C0F93EA0F
:107EB0000C0F00F0478090EA010F48BF42F4807237
:107EC0004FF0004C4CEA00204CEA012102EB030287
:107ED000A0FB0113A2F50002002918BF43F0010323
:107EE0005B0028BF4FEA330342EB22425FEA132CC8
:107EF0004CEBC2502EBFBCEB436FB2F57C0F70470A
:107F00004FEA036CBCF1004F08BF20F00100B2F54E
:107F10007C0F38BF70470BD582F0FF0212F5803F0F
:107F2000C8BF704700F1C040D8BF00F000407047A4
:107F300000F5000C5FEA4C0C48BF7047B0F1C04040
:107F400000F073B890EA010F0CEAD11348BF42F475
:107F50008072624538BF634504D280EA010000F0B8
:107F60000040704710B500F01AF800BF8900013ECC
:107F700000F007B800F009B85FEA410C5FEA1C6C3A
:107F800008D080EA010000F050B85FEA400C5FEAD8
:107F90001C6CF6D14FF00040A0F5800070470EF148
:107FA000020E2EF0030E5EF8044B244204D44FEA76
:107FB0004102B2F17F4F11D84FEA4003B3F17F4F36
:107FC0000CD80ED14FEAD07CB2F17F4F0CEB4C0CA9
:107FD0000CF1020C08BF4CEBD17C04E04FF0080C14
:107FE00001E04FEAD17C0CEB4C0324FA03F404F0DB
:107FF0000704B4F1040C06D20EEB840CBDE810406B
:108000004CF0010C6047DFE80CF0070802024FF06B
:108010000040A0F5800010BD0846420018BFD2F114
:10802000807288BF00F0004010BDFF2141EAD050AF
:10803000C005704780F0004090EA010F7FF5A3ADC6
:1080400081F0004100F007B890EA010F48BF81F0CD
:1080500000413FF598AD421A04D882F00042A0EBEF
:10806000020011444FEAD0524FF07F4C1CEA410FFE
:10807000A2EBD15318BF9CEA026F4AD04FF0004CDC
:108080004CEA00204CEA012121FA03FCB0EB0C0C75
:108090000FD412F0FE0F36D05FEA4C001DD500124F
:1080A00040EBC25038BF70471CF03F0F18BF7047FD
:1080B0000BE0A2F101025FEA1C2040EBC25038BF86
:1080C00070471CF07F0F18BF7047C3F12003994021
:1080D00014BF401E20F00100704780084FEA1223B1
:1080E00008BF7047B0FA80FCA2EB0C02CCF1280C60
:1080F00060FA0CF093EA122F04BF00EBC2507047F5
:108100004FEAC3707047130A5FEADC1008BF70477C
:10811000F6E79CEA026F04D010EA5C0F08BF00206B
:10812000704710B5FFF73BFF40DFF63E81F000409F
:108130007047F8F7A3BB0CF00F03092B08BF08200A
:1081400000F07F800A2B0BD0082B18BF704708BFA8
:108150001CF0400F0AD04FF000004FF000017047B4
:108160001CF0400F18BF4FF0004070471CF0100F7C
:1081700008D020F0704300F07F4242EAD3014FEA7A
:108180004370704700F0604021F07F4242EA0002F5
:1081900001F07F4040EA727070474FF0FF0C4CF4E2
:1081A000E06C1CEA11531CBF9CEA030C9445C2BF4F
:1081B000DA4201EB02517047002B0DD0BCF1000FE9
:1081C0000FD0002A01F00041A4BF41F0E04141F08E
:1081D0007F614FF00000704701F000414FF0000058
:1081E000704750EA01334FF09B0C18BF4CF0806C85
:1081F0007FF400A870474FF0FF0212EAD0521CBF74
:1082000092F0FF038B42C2BFD14200EBC1507047D6
:10821000002A0AD0002B0BD0002900F00040A4BF98
:1082200040F0FE4040F40000704700F0004070470E
:1082300043024FF00B0C18BF4CF0806C7FF4FEAC87
:1082400070471CF4801F11D01CF4E02F03D06FEA9C
:10825000CC31490070474FF04050EFF3008222F0DC
:10826000704242EA000282F3008870474FF000003B
:1082700070470000000000000000002F0000000018
:108280000700070000147F147F1400242A7F2A129D
:10829000006264081323003649552250000005038C
:1082A000000000001C224100000041221C000014BC
:1082B000083E08140008083E0808000000A06000FE
:1082C000000808080808000060600000002010088E
:1082D0000402003E5149453E0000427F40000042FA
:1082E00061514946002141454B31001814127F105D
:1082F000002745454539003C4A494930000171098C
:10830000050300364949493600064949291E00003F
:1083100036360000000056360000000814224100E6
:108320000014141414140000412214080002015116
:10833000090600324959513E007C1211127C007F1F
:1083400049494936003E41414122007F4141221CBA
:10835000007F49494941007F09090901003E41491F
:10836000497A007F0808087F0000417F4100002013
:1083700040413F01007F08142241007F40404040BF
:10838000007F020C027F007F0408107F003E414105
:10839000413E007F09090906003E4151215E007FF0
:1083A000091929460046494949310001017F010167
:1083B000003F4040403F001F2040201F003F40380A
:1083C000403F006314081463000708700807006149
:1083D0005149454300007F41410000552A552A5527
:1083E000000041417F0000040201020400404040BF
:1083F0004040000001020400002054545478007FE3
:108400004844443800384444442000384444487FB9
:1084100000385454541800087E0901020018A4A41E
:10842000A47C007F080404780000447D40000040E4
:1084300080847D00007F102844000000417F4000C0
:10844000007C04180478007C080404780038444454
:10845000443800FC242424180018242418FC007C30
:108460000804040800485454542000043F444020A9
:10847000003C4040207C001C2040201C003C403040
:10848000403C004428102844001CA0A0A07C0044CC
:1084900064544C441414141414140000000000001C
:1084A00000000000000000000000000000F80000D4
:1084B0000000000000333000000000100C06100C1B
:1084C0000600000000000000000040C07840C078B6
:1084D0004000043F04043F040400007088FC08309E
:1084E0000000001820FF211E0000F008F000E01836
:1084F000000000211C031E211E0000F008887000EF
:1085000000001E2123241927211010160E00000040
:1085100000000000000000000000000000E018045F
:108520000200000000071820400000020418E000CC
:1085300000000040201807000000404080F080400C
:1085400040000202010F01020200000000F00000E2
:1085500000000101011F01010100000000000000F6
:10856000000080B07000000000000000000000006B
:1085700000000001010101010101000000000000F4
:1085800000000030300000000000000000008060AB
:108590001804006018060100000000E01008081030
:1085A000E000000F102020100F00001010F8000055
:1085B00000000020203F20200000007008080888EC
:1085C00070000030282422213000003008888848BC
:1085D00030000018202020110E000000C02010F8EC
:1085E000000000070424243F240000F808888808BD
:1085F00008000019212020110E0000E010888818C2
:108600000000000F112020110E0000380808C838A3
:1086100008000000003F0000000000708808088883
:108620007000001C222121221C0000E0100808100C
:10863000E0000000312222110F00000000C0C00045
:10864000000000000030300000000000008000004A
:10865000000000008060000000000000804020104A
:108660000800000102040810200040404040404043
:1086700040000404040404040400000810204080A6
:1086800000000020100804020100007048080808DB
:10869000F0000000003036010000C030C828E810AB
:1086A000E0000718272423140B000000C038E00066
:1086B0000000203C23020227382008F888888870B0
:1086C0000000203F202020110E00C03008080808BC
:1086D0003800071820202010080008F808080810A3
:1086E000E000203F202020100F0008F88888E808CC
:1086F0001000203F20202320180008F88888E80870
:108700001000203F200003000000C0300808083897
:10871000000007182020221E020008F808000008A8
:10872000F808203F210101213F20000808F808082F
:1087300000000020203F2020000000000808F8086A
:108740000800C08080807F00000008F888C02818DA
:108750000800203F20012638200008F8080000000B
:108760000000203F20202020300008F8F800F8F812
:108770000800203F003F003F200008F830C00008FC
:10878000F808203F200007183F00E01008080810F4
:10879000E0000F10202020100F0008F8080808083B
:1087A000F000203F210101010000E010080808103E
:1087B000E0000F18242438504F0008F88888888873
:1087C0007000203F2000030C30200070880808084B
:1087D00038000038202121221C00180808F8080859
:1087E00018000000203F2000000008F808000008E2
:1087F000F808001F202020201F000878880000C8EB
:108800003808000007380E010000F80800F80008DA
:10881000F800033C0700073C0300081868808068E4
:10882000180820302C03032C30200838C800C83822
:1088300008000000203F2000000010080808C83889
:1088400008002038262120201800000000FE020227
:1088500002000000007F40404000000C30C00000DB
:108860000000000000010638C00000020202FE0005
:108870000000004040407F000000000004020202AF
:1088800004000000000000000000000000000000E4
:1088900000008080808080808080000202040000D0
:1088A00000000000000000000000000080808080C8
:1088B00000000019242222223F2008F800808000B6
:1088C0000000003F112020110E0000000080808079
:1088D0000000000E11202020110000000080808880
:1088E000F800000E112020103F20000080808080C2
:1088F0000000001F222222221300008080F08888BE
:1089000088180020203F2020000000008080808008
:108910008000006B94949493600008F8008080803D
:108920000000203F210000203F2000809898000098
:1089300000000020203F20200000000000809898C8
:10894000000000C08080807F000008F80000808068
:108950008000203F24022D302000000808F800008D
:1089600000000020203F2020000080808080808048
:108970008000203F20003F20003F808000808080DA
:108980000000203F210000203F20000080808080E8
:108990000000001F202020201F0080800080800019
:1089A000000080FFA12020110E00000000808080C8
:1089B0008000000E112020A0FF8080808000808039
:1089C000800020203F212000010000008080808066
:1089D00080000033242424241900008080E080805B
:1089E00000000000001F20200000808000000080A8
:1089F0008000001F202020103F2080808000008009
:108A0000808000010E300806010080800080008018
:108A100080800F300C030C300F00008080008080BD
:108A200080000020312E0E312000808080000080E8
:108A3000808080818E701806010000808080808098
:108A400080000021302C2221300000000000807CBA
:108A5000020200000000003F40400002027C800053
:108A600000000040403F0000000000000000FF0048
:108A7000000000000000FF0000002010E824272470
:108A800024E424342C20E00000000000000000005A
:108A90000000000000000000000080601F090909BC
:108AA000097F090949897F000000000000000000DB
:108AB000000000000000000000000000FC2424244E
:108AC000FC252624FC2424240400000000000000CF
:108AD0000000000000000000000040308F80844C47
:108AE00055252525554C80808000000000000000A1
:108AF00000000000000000000000008060F8070493
:108B0000E4A4A4BFA4A4E40400000000000000004A
:108B100000000000000000000000010000FF4040D5
:108B20007F4A4A4A4A4A7F40400000000000000055
:108B3000000000000000000000000000F8888888A5
:108B400088FF88888888F800000000000000000086
:108B50000000000000000000000000001F080808DE
:108B6000087F888888889F80F0000000000000004F
:108B7000000000000000000000000000FE028282F1
:108B80008282FA828282828202000000000000005B
:108B90000000000000000000000080601F40404016
:108BA00040407F404044584040000000000000002A
:108BB00000000000000000000000008060F80704D2
:108BC000E4A4A4BFA4A4E40400000000000000008A
:108BD00000000000000000000000010000FF404015
:108BE0007F4A4A4A4A4A7F40400000000000000095
:108BF0000000000000000000000000000000000075
:108C00000000000000000000000000000000000064
:108C100000000000000000000000000036360000E8
:108C20000000000000000000000000000000000044
:108C30000000000000000000000075191A0C6A23F3
:108C40001B1C1F207274433B4138393A6B6C376FE1
:108C500006246D6E70006800000476005401F7FD74
:108C6000000100008300000000080000000100185F
:108C700032000500000020410000D242295C0F3E76
:108C80009A99993E3333733F295C0F3E0000700080
:108C900000000024000000020003000000650054F2
:108CA000FFEF0000FA80000B12820001030C30C3BA
:108CB0000E8C8CE914D5400213710F8E3883F88323
:108CC0003000F883258EF8833000F883FFFFFFFF24
:108CD0000FFEA9D6240004001A8279A10000003CEE
:108CE000FFFF00000010000038836FA2003E033039
:108CF0004000000002CAE3093E800000200000009E
:108D0000000000004000000060000000000C0000B7
:108D1000000C186E000006920A16C0DFFFFF025614
:108D2000FD8CD377FFE1C496E0C5BEAA0000000029
:108D3000FFFF0B2B000016570000035940000000F6
:108D400000001DFA00026C1D000000003FFFDFEB79
:108D5000003EB3B6000D227800002F3C000000005A
:108D6000001942B5000039A20000B365D90E9FC9B1
:108D70001DCF4C3430000000500000003BB67AE8B4
:108D80000064000000C800000000000010000000A7
:108D90001000FA921000225E000D229F00010000D8
:108DA00000320000FF46000063D400001000000005
:108DB00004D6000004CC000004CC000000001072B7
:108DC000000000400000000000000000000600025B
:108DD0000005000700000000006400000000000023
:108DE00000000005000500640020000000000000F5
:108DF00000000000000040000000030000000032FE
:108E0000F8980000FF650000830F0000FF9BFC0046
:108E10000000000000000000000000000000000052
:108E20000000000000000000000000000000000042
:108E300000000000000000000000100040000000E2
:108E4000000000060000B26A000200000001FB837F
:108E50000068000000D9FC007CF1FF8300000000E6
:108E600000650000006403E800640028000000259D
:108E70000000000016A0000000001000000010001C
:108E8000002F0000000001F4000010000028000086
:108E9000FFFF4581FFFFFA720000000000000000A4
:108EA000004400050005BAC6004778A20000000192
:108EB0000000000000000600000000140000254D26
:108EC000002F706D000005AE000C02D00000000005
:108ED000000000000000000000000000001B000077
:108EE000000000000000000000000000006400001E
:108EF000000800000000000000000000000000006A
:108F00000000000000000000000000000000000061
:108F10000000000000000000000000000000000051
:108F20000000000000000000000000000000000041
:108F30000000000000000000000000000000000031
:108F4000000000000000000000000000001B000006
:108F50000000000000000000000E000E00000AC724
:108F60000004000000000032FFFFFF9C00000B2BFC
:108F7000000000020000000100000064FFE50000A6
:108F800000000000000000000000000000000001E0
:108F9000000000000001000000000000000180004F
:108FA0000001800000018000002426D300000000A2
:108FB00000000000000600100096003C00000000C9
:108FC0000000000000000000000000000C0A4E68D5
:108FD000CDCF770950166759C619CE820000000020
:108FE0000000000000000000000000000000000081
:108FF0000000000017D784000300000000000000FC
:1090000000000000C7938F9D1E1B1C19000000006C
:109010000000000000000000000000000000000050
:10902000000000000203188500004000000000035B
:1090300000000003000000000000000040000000ED
:109040000000000000000000000000000000000020
:109050000000000000000000000000000000000010
:109060000000000000000000000000000000000000
:10907000677DDF7E72902E554CF6E688000000007A
:10908000000000000000000000000000D8DCB4B8C0
:10909000B0D8B9ABF3F8FAB3B7BB8E9EAEF132F5E8
:1090A0001BF1B4B8B08097F1A9DFDFDFAADFDFDF03
:1090B000F2AAC5CDC7A90CC92C97F1A98926466685
:1090C000B28999A92D557DB0B08AA896365676F109
:1090D000BAA3B4B280C0B8A89711B28398BAA3F06B
:1090E000240844106418B2B9B49883F1A329557DBB
:1090F000BAB5B1A38393F0002850F5B2B6AA839312
:1091000028547CF1B9A3829361BAA2DADEDFDB8155
:109110009AB9AEF5606870F1DABAA2DFD9BAA2FAEC
:10912000B9A38292DB31BAA2D9BAA2F8DF85A4D062
:10913000C1BBAD83C2C5C7B8A2DFDFDFBAA0DFDF26
:10914000DFD8D8F1B8AAB38DB4980D355DB2B6BAF0
:10915000AF8C96198F9FA70E161EB49AB8AA872CAB
:10916000547CBAA4B08AB691325676B28494A4C81C
:1091700008CDD8B8B4B0F19982A82D557D98A80E25
:10918000161EA22C547C92A4F02C5078F184A8983E
:10919000C4CDFCD80DDBA8FC2DF3D9BAA6F8DABAF9
:1091A000A6DED8BAB2B68696A6D0F3C841DAA6C86B
:1091B000F8D8B0B4B882A892F52C548898F135D973
:1091C000F418D8F1A2D0F8F9A884D9C7DFF8F88349
:1091D000C5DADF69DF83C1D8F40114F1A8824EA893
:1091E00084F311D182F5D992289788F109F41C1CD7
:1091F000D884A8F3C0F9D1D99782F129F40DD8F316
:10920000F9F9D1D982F4C203D8DEDF1AD8F1A2FA73
:10921000F9A88498D9C7DFF8F8F883C7DADF69DFDF
:10922000F883C3D8F40114F198A8822EA884F3110E
:10923000D182F5D992509788F109F41CD884A8F30B
:10924000C0F8F9D1D99782F149F40DD8F3F9F9D1E1
:10925000D982F4C403D8DEDFD8F1AD8898CCA80950
:10926000F9D98292A8F57CF1883ACF944A6E98DBBE
:109270006931DAADF2DEF9D88795A8F221D1DAA505
:10928000F9F417D9F1AE8ED0C0C3AE82C684C3A89C
:109290008595C8A588F2C0F1F4010EF18E9EA8C68E
:1092A0003E56F554F18872F40115F19845856EF536
:1092B0008E9E0488F142985A8E9E068869F4011C9D
:1092C000F1981E1108D0F504F11E97020298362578
:1092D000DBF9D985A5F3C1DA85A5F3DFD88595A893
:1092E000F309DAA5FAD88292A8F578F1881A849F52
:1092F00026889821DAF41DF3D8879F39D1AFD9DFBA
:10930000DFFBF9F40CF3D8FAD0F8DAF9F9D0DFD9A9
:10931000F9D8F40BD8F3879F39D1AFD9DFDFF41D2B
:10932000F3D8FAFCA869F9F9AFD0DADEFAD9F88FE8
:109330009FA8F1CCF398DB45D9AFDFD0F8D8F18FF7
:109340009FA8CAF38809DAAF8FCBF8D8F2AD978D12
:109350000CD9A5DFF9BAA6F3FAF412F2D8950DD11B
:10936000D9BAA6F3FADAA5F2C1BAA6F3DFD8F1BAF0
:10937000B2B68696A6D0CAF349DAA6CBF8D8B0B46E
:10938000B8D8AD84F2C0DFF18FCBC3A8B2B6869651
:10939000C8C1CBC3F3B0B48898A821DB718D9D718F
:1093A000859521D9ADF2FAD88597A828D9F408D89F
:1093B000F28D29DAF405D9F285A4C2F2D8A88D94E9
:1093C00001D1D9F411F2D88721D8F40AD8F28498BF
:1093D000A8C801D1D9F411D8F3A4C8BBAFD0F2DE2C
:1093E000F8F8F8F8F8F8F8F8D8F1B8F6B5B9B08A9E
:1093F00095A3DE3CA3D9F8D85CA3D9F8D87CA3D92F
:10940000F8D8F8F9D1A5D9DFDAFAD8B18530F7D98B
:10941000DED8F830ADDADED8F2B48C99A32D557DC4
:10942000A083DFDFDFB591A0F629D9FBD8A0FC2906
:10943000D9FAD8A0D051D9F8D8FC51D9F9D879D9CE
:10944000FBD8A0D0FC79D9FAD8A1F9F9F9F9F9A09B
:10945000DADFDFDFD8A1F8F8F8F8F8ACDEF8ADDE37
:109460008393AC2C547CF1A8DFDFDFF69D2CDAA0CF
:10947000DFD9FADB2DF8D8A850DAA0D0DED9D0F8A1
:10948000F8F8DB55F8D8A878DAA0D0DFD9D0FAF808
:10949000F8F8F8DB7DF8D89CA88CF530DB38D9D00B
:1094A000DEDFA0D0DEDFD8A848DB58D9DFD0DEA0D1
:1094B000DFD0DED8A868DB70D9DFDFA0DFDFD8F12E
:1094C000A888902C547C98A8D05C38D1DAF2AE8C65
:1094D000DFF9D8B087A8C1C1B188A8C6F9F9DA36D2
:1094E000D8A8F9DA36D8A8F9DA36D8A8F9DA36D809
:1094F000A8F9DA36D8F78D9DADF818DAF2AEDFD8D4
:10950000F7ADFA30D9A4DEF9D8F2AEDEFAF983A7C6
:10951000D9C3C5C7F1889BA77AADF7DEDFA4F8846D
:109520009408A797F300AEF29819A488C6A394886C
:10953000F632DFF28393DB09D9F2AADFD8D8AEF88E
:10954000F9D1DAF3A4DEA7F1889B7AD8F38494AE3C
:1095500019F9DAAAF1DFD8A881C0C3C5C7A39283DD
:10956000F628ADDED9F8D8A350ADD9F8D8A378AD98
:10957000D9F8D8F8F9D1A1DADEC3C5C7D8A181944A
:10958000F818F2B089ACC3C5C7F1D8B8B4B09786A3
:10959000A8319B069907AB9728889BF00C201440B4
:1095A000B0B4B8F0A88A9A285078B79BA829517906
:1095B000247059446938644831F1BBAB88002C549D
:1095C0007CF0B38BB8A804285078F1B088B4972603
:1095D000A85998BBABB38B02264666B0B8F08A9CFC
:1095E000A82951798B2951798A2470598B20587177
:1095F0008A4469388B3940688A6448318B304960C5
:1096000088F1AC002C547CF08CA804285078F188A8
:109610009726A85998AC8C02264666F0899CA82902
:109620005179247059446938644831A9880920590E
:1096300070AB11384069A8193148608CA83C415C76
:10964000207C00F187981986A86E767EA999882DCE
:10965000557DD8B1B5B9A3DFDFDFAED0DFAAD0DE4C
:10966000F2ABF8F9D9B087C4AAF1DFDFBBAFDFDF17
:10967000B9D8B1F1A3978E60DFB084F2C8F8F9D9F8
:10968000DED89385F14AB183A308B5839A0810B751
:109690009F10D8F1B0BAAEB08AC2B2B68E9EF1FBBE
:1096A000D9F41DD8F9D90CF1D8F8F8AD61D9AEFBD1
:1096B000D8F40CF1D8F8F8AD19D9AEFBDFD8F41610
:1096C000F1D8F8AD8D61D9F4F4ACF59C9C8DDF2B0D
:1096D000BAB6AEFAF8F40BD8F1AED0F8AD51DAAEB6
:1096E000FAF8F1D8B9B1B6A3839C08B9B1839AB599
:1096F000AAC0FD3083B79F10B58B93F20202D1ABA5
:10970000DADED8F1B080BAABC0C3B284C1C3D8B17D
:10971000B9F38BA391B609B4D9ABDEB0879CB9A3DA
:10972000DDF1B38B8B8B8B8BB087A3A3A3A3B28B01
:10973000B69BF2A3A3A3A3A3A3A3A3A3A3F1B08760
:10974000B59AA3F39BA3A3DCBAACDFB9A3A3A3A3ED
:10975000A3A3A3A3A3A3A3A3A3A3A3A3D8D8D8BB22
:10976000B3B7F1AAF9DAFFD9809AAA28B48098A7EA
:1097700020B79787A86688F07951F1902C870CA7BD
:1097800081976293F071716085940129517990A558
:10979000F1284C6C870C95188578A38390284C6C25
:1097A000886CD8F3A28200F210A8921980A2F2D994
:1097B00026D8F188A84DD948D896A83980D93CD860
:1097C0009580A839A68698D92CDA87A72CD8A8899D
:1097D0009519A980D938D8A88939A980DA3CD8A8A0
:1097E0002EA83990D90CD8A8953198D90CD8A809A9
:1097F000D9FFD801DAFFD89539A9DA26FFD890A881
:109800000D8999A810809821DA2ED88999A83180DD
:10981000DA2ED8A886963180DA2ED8A8873180DA59
:109820002ED8A88292F34180F1D92ED8A882F319BC
:1098300080F1D92ED882ACF3C0A28022F1A62EA747
:109840002EA92298A829DAACDEFFD8A2F22AF1A923
:109850002E8292A8F23180A696F1D900AC8C9C0C95
:1098600030ACDED0DEFFD88C9CACD010ACDE809269
:10987000A2F24C82A8F1CAF235F19688A6D900D896
:10988000F1FF010202030405060708090A0B0C0D8B
:109890000E0F101000000000000000000102030481
:1098A0000607080900000000010203040400000884
:1098B0000000000000000002000100001000000095
:1098C000555555555555C53F7D6FEB0312D6D4BF41
:1098D0005544880E55C1C93F3B8F68B52882A4BF47
:1098E00088B20175E0EF493F09F7FD0DE13D023F08
:1098F0004B2D8A1C273A03C0C88A599CE52A004090
:1099000059018D1B6C06E6BF82922EB1C5B8B33FDC
:109910004FBB610567ACDD3F182D4454FB21E93F87
:109920009BF681D20B73EF3F182D4454FB21F93F76
:10993000E2652F227F2B7A3C075C143326A6813CFC
:10994000BDCBF07A8807703C075C143326A6913CA7
:10995000C4EB98999999C9BF711623FEC671BCBF13
:109960006D9A74AFF2B0B3BF9AFDDE522DDEADBF7B
:109970002F6C6A2C44B4A2BF0D5555555555D53F93
:10998000FF8300922449C23F6E204CC5CD45B73FAE
:10999000513DD0A0660DB13FEB0D76244B7BA93F26
:1099A00011DA22E33AAD903F000000000000000011
:1099B00002400000000000A0000000000540000080
:1099C000000000C8000000000C4000000000409CA7
:1099D00000000000194000000020BCBE0000000094
:1099E00034400000BFC91B8E00000004B5400000D9
:1099F000504BCFD06607E2CF010000006C41000061
:109A00003E8251AADFEEA73401000000D9420000D7
:109A1000DCB5A0E23A301F97FFFFFFFFB44500001E
:109A2000FD25A0C8E9A3C14FFFFFFFFFFF3F0000D6
:109A30000000008000000000FF3F000000000080E8
:109A400000000000809A000800000020E0000000F4
:109A500028010008609B0008E0000020700800005A
:109A6000440100081C00000043000000F8FFFFFF55
:109A70000C0000000E0000000F0000002E0000008F
:109A8000AE001040B081FFA1A6A83FC8D300D5808A
:109A9000D805D9F1DA12D8308D14AF003A8C00080D
:109AA000568C0008000000000000000000000000CC
:109AB00000000000000000000000000000000000A6
:109AC00000000000648C000801000000010000009C
:109AD0000100000000000000000000000000000085
:109AE00000000000000000000000000000007041C5
:109AF00000003443333313409A99193FA69B443BEB
:109B0000000020419A99193F000000000000000069
:109B10003333333F0000000000000000000000006D
:109B20000000000000000000000000000000000035
:109B30000000000000000000000000000000000025
:109B40000000000000000000000000000000000015
:109B500001000000100000000000000000127A0068
:04000005080000ED02
:00000001FF
